{
  "_format": "hh-sol-artifact-1",
  "contractName": "MainContract",
  "sourceName": "contracts/MainContract.sol",
  "abi": [
    {
      "inputs": [],
      "stateMutability": "nonpayable",
      "type": "constructor"
    },
    {
      "anonymous": false,
      "inputs": [
        {
          "indexed": true,
          "internalType": "address",
          "name": "lsp",
          "type": "address"
        },
        {
          "indexed": false,
          "internalType": "address",
          "name": "sertifikasiID",
          "type": "address"
        },
        {
          "indexed": false,
          "internalType": "string",
          "name": "sertifikatCID",
          "type": "string"
        },
        {
          "indexed": false,
          "internalType": "uint256",
          "name": "tanggal",
          "type": "uint256"
        }
      ],
      "name": "KelulusanDiupdate",
      "type": "event"
    },
    {
      "anonymous": false,
      "inputs": [
        {
          "indexed": true,
          "internalType": "address",
          "name": "lsp",
          "type": "address"
        },
        {
          "indexed": false,
          "internalType": "string",
          "name": "metadataCID",
          "type": "string"
        }
      ],
      "name": "LSPDidaftarkan",
      "type": "event"
    },
    {
      "anonymous": false,
      "inputs": [
        {
          "indexed": true,
          "internalType": "address",
          "name": "lsp",
          "type": "address"
        }
      ],
      "name": "LSPDihapus",
      "type": "event"
    },
    {
      "anonymous": false,
      "inputs": [
        {
          "indexed": true,
          "internalType": "address",
          "name": "lsp",
          "type": "address"
        },
        {
          "indexed": false,
          "internalType": "string",
          "name": "metadataCID",
          "type": "string"
        }
      ],
      "name": "LSPDitambahkan",
      "type": "event"
    },
    {
      "anonymous": false,
      "inputs": [
        {
          "indexed": true,
          "internalType": "address",
          "name": "lsp",
          "type": "address"
        },
        {
          "indexed": false,
          "internalType": "string",
          "name": "alasan",
          "type": "string"
        }
      ],
      "name": "LSPDitolak",
      "type": "event"
    },
    {
      "anonymous": false,
      "inputs": [
        {
          "indexed": true,
          "internalType": "address",
          "name": "lsp",
          "type": "address"
        },
        {
          "indexed": false,
          "internalType": "string",
          "name": "suratIzinCID",
          "type": "string"
        }
      ],
      "name": "LSPDiverifikasi",
      "type": "event"
    },
    {
      "anonymous": false,
      "inputs": [
        {
          "indexed": true,
          "internalType": "address",
          "name": "lsp",
          "type": "address"
        },
        {
          "indexed": false,
          "internalType": "string",
          "name": "newMetadataCID",
          "type": "string"
        }
      ],
      "name": "LSPMetadataUpdated",
      "type": "event"
    },
    {
      "anonymous": false,
      "inputs": [
        {
          "indexed": true,
          "internalType": "address",
          "name": "peserta",
          "type": "address"
        },
        {
          "indexed": false,
          "internalType": "string",
          "name": "newCID",
          "type": "string"
        }
      ],
      "name": "MetadataDiupdate",
      "type": "event"
    },
    {
      "anonymous": false,
      "inputs": [
        {
          "indexed": true,
          "internalType": "address",
          "name": "peserta",
          "type": "address"
        },
        {
          "indexed": false,
          "internalType": "string",
          "name": "metadataCID",
          "type": "string"
        },
        {
          "indexed": false,
          "internalType": "uint256",
          "name": "tanggal",
          "type": "uint256"
        }
      ],
      "name": "PesertaTerdaftar",
      "type": "event"
    },
    {
      "anonymous": false,
      "inputs": [
        {
          "indexed": true,
          "internalType": "address",
          "name": "lsp",
          "type": "address"
        },
        {
          "indexed": false,
          "internalType": "address",
          "name": "sertifikasiID",
          "type": "address"
        },
        {
          "indexed": false,
          "internalType": "string",
          "name": "alasan",
          "type": "string"
        },
        {
          "indexed": false,
          "internalType": "uint256",
          "name": "tanggal",
          "type": "uint256"
        }
      ],
      "name": "SertifikasiBatal",
      "type": "event"
    },
    {
      "anonymous": false,
      "inputs": [
        {
          "indexed": true,
          "internalType": "address",
          "name": "peserta",
          "type": "address"
        },
        {
          "indexed": false,
          "internalType": "address",
          "name": "sertifikasiID",
          "type": "address"
        },
        {
          "indexed": false,
          "internalType": "enum SertifikasiStorage.SkemaSertifikasi",
          "name": "skema",
          "type": "uint8"
        },
        {
          "indexed": false,
          "internalType": "uint256",
          "name": "tanggal",
          "type": "uint256"
        }
      ],
      "name": "SertifikasiDiajukan",
      "type": "event"
    },
    {
      "inputs": [
        {
          "internalType": "address",
          "name": "lspAddress",
          "type": "address"
        }
      ],
      "name": "addLSPToWhitelist",
      "outputs": [],
      "stateMutability": "nonpayable",
      "type": "function"
    },
    {
      "inputs": [
        {
          "internalType": "enum SertifikasiStorage.SkemaSertifikasi",
          "name": "skema",
          "type": "uint8"
        }
      ],
      "name": "ajukanSertifikasi",
      "outputs": [],
      "stateMutability": "nonpayable",
      "type": "function"
    },
    {
      "inputs": [],
      "name": "batalkanSertifikasi",
      "outputs": [],
      "stateMutability": "nonpayable",
      "type": "function"
    },
    {
      "inputs": [],
      "name": "bnsp",
      "outputs": [
        {
          "internalType": "address",
          "name": "",
          "type": "address"
        }
      ],
      "stateMutability": "view",
      "type": "function"
    },
    {
      "inputs": [
        {
          "internalType": "address",
          "name": "peserta",
          "type": "address"
        }
      ],
      "name": "cekStatusPeserta",
      "outputs": [
        {
          "internalType": "bool",
          "name": "terdaftar",
          "type": "bool"
        },
        {
          "internalType": "bool",
          "name": "aktif",
          "type": "bool"
        },
        {
          "internalType": "bool",
          "name": "adaSertifikasiAktif",
          "type": "bool"
        },
        {
          "internalType": "uint256",
          "name": "totalSertifikasi",
          "type": "uint256"
        }
      ],
      "stateMutability": "view",
      "type": "function"
    },
    {
      "inputs": [
        {
          "internalType": "string",
          "name": "metadataCID",
          "type": "string"
        }
      ],
      "name": "daftarLSP",
      "outputs": [],
      "stateMutability": "nonpayable",
      "type": "function"
    },
    {
      "inputs": [
        {
          "internalType": "string",
          "name": "metadataCID",
          "type": "string"
        }
      ],
      "name": "daftarPeserta",
      "outputs": [],
      "stateMutability": "nonpayable",
      "type": "function"
    },
    {
      "inputs": [
        {
          "internalType": "address",
          "name": "sertifikasiID",
          "type": "address"
        }
      ],
      "name": "getDetailSertifikasi",
      "outputs": [
        {
          "components": [
            {
              "internalType": "address",
              "name": "peserta",
              "type": "address"
            },
            {
              "internalType": "enum SertifikasiStorage.SkemaSertifikasi",
              "name": "skema",
              "type": "uint8"
            },
            {
              "internalType": "string",
              "name": "sertifikatCID",
              "type": "string"
            },
            {
              "internalType": "bool",
              "name": "lulus",
              "type": "bool"
            },
            {
              "internalType": "bool",
              "name": "aktif",
              "type": "bool"
            },
            {
              "internalType": "uint256",
              "name": "tanggalPengajuan",
              "type": "uint256"
            },
            {
              "internalType": "uint256",
              "name": "tanggalSelesai",
              "type": "uint256"
            },
            {
              "internalType": "uint256",
              "name": "tanggalExpiry",
              "type": "uint256"
            },
            {
              "internalType": "address",
              "name": "lspPenilai",
              "type": "address"
            },
            {
              "internalType": "string",
              "name": "alasanGagal",
              "type": "string"
            }
          ],
          "internalType": "struct SertifikasiStorage.Sertifikasi",
          "name": "",
          "type": "tuple"
        }
      ],
      "stateMutability": "view",
      "type": "function"
    },
    {
      "inputs": [
        {
          "internalType": "address",
          "name": "lspAddress",
          "type": "address"
        }
      ],
      "name": "getLSP",
      "outputs": [
        {
          "internalType": "string",
          "name": "metadataCID",
          "type": "string"
        },
        {
          "internalType": "enum RegistrasiLSP.StatusLSP",
          "name": "status",
          "type": "uint8"
        },
        {
          "internalType": "string",
          "name": "suratIzinCID",
          "type": "string"
        },
        {
          "internalType": "string",
          "name": "alasanTolak",
          "type": "string"
        }
      ],
      "stateMutability": "view",
      "type": "function"
    },
    {
      "inputs": [
        {
          "internalType": "address",
          "name": "peserta",
          "type": "address"
        }
      ],
      "name": "getMetadataCID",
      "outputs": [
        {
          "internalType": "string",
          "name": "",
          "type": "string"
        }
      ],
      "stateMutability": "view",
      "type": "function"
    },
    {
      "inputs": [
        {
          "internalType": "address",
          "name": "peserta",
          "type": "address"
        }
      ],
      "name": "getPesertaInfo",
      "outputs": [
        {
          "internalType": "string",
          "name": "metadataCID",
          "type": "string"
        },
        {
          "internalType": "bool",
          "name": "terdaftar",
          "type": "bool"
        },
        {
          "internalType": "bool",
          "name": "aktif",
          "type": "bool"
        },
        {
          "internalType": "address",
          "name": "sertifikasiAktif",
          "type": "address"
        },
        {
          "internalType": "uint256",
          "name": "tanggalDaftar",
          "type": "uint256"
        },
        {
          "internalType": "uint256",
          "name": "totalSertifikasi",
          "type": "uint256"
        }
      ],
      "stateMutability": "view",
      "type": "function"
    },
    {
      "inputs": [
        {
          "internalType": "address",
          "name": "peserta",
          "type": "address"
        }
      ],
      "name": "getPesertaMetadata",
      "outputs": [
        {
          "internalType": "string",
          "name": "cid",
          "type": "string"
        }
      ],
      "stateMutability": "view",
      "type": "function"
    },
    {
      "inputs": [
        {
          "internalType": "address",
          "name": "sertifikasiID",
          "type": "address"
        }
      ],
      "name": "getSertifikasi",
      "outputs": [
        {
          "components": [
            {
              "internalType": "address",
              "name": "peserta",
              "type": "address"
            },
            {
              "internalType": "enum SertifikasiStorage.SkemaSertifikasi",
              "name": "skema",
              "type": "uint8"
            },
            {
              "internalType": "string",
              "name": "sertifikatCID",
              "type": "string"
            },
            {
              "internalType": "bool",
              "name": "lulus",
              "type": "bool"
            },
            {
              "internalType": "bool",
              "name": "aktif",
              "type": "bool"
            },
            {
              "internalType": "uint256",
              "name": "tanggalPengajuan",
              "type": "uint256"
            },
            {
              "internalType": "uint256",
              "name": "tanggalSelesai",
              "type": "uint256"
            },
            {
              "internalType": "uint256",
              "name": "tanggalExpiry",
              "type": "uint256"
            },
            {
              "internalType": "address",
              "name": "lspPenilai",
              "type": "address"
            },
            {
              "internalType": "string",
              "name": "alasanGagal",
              "type": "string"
            }
          ],
          "internalType": "struct SertifikasiStorage.Sertifikasi",
          "name": "",
          "type": "tuple"
        }
      ],
      "stateMutability": "view",
      "type": "function"
    },
    {
      "inputs": [
        {
          "internalType": "uint256",
          "name": "id",
          "type": "uint256"
        }
      ],
      "name": "getSertifikasiAddressById",
      "outputs": [
        {
          "internalType": "address",
          "name": "",
          "type": "address"
        }
      ],
      "stateMutability": "view",
      "type": "function"
    },
    {
      "inputs": [
        {
          "internalType": "address",
          "name": "sertifikasiID",
          "type": "address"
        }
      ],
      "name": "getSertifikasiDetail",
      "outputs": [
        {
          "internalType": "address",
          "name": "peserta",
          "type": "address"
        },
        {
          "internalType": "enum SertifikasiStorage.SkemaSertifikasi",
          "name": "skema",
          "type": "uint8"
        },
        {
          "internalType": "string",
          "name": "sertifikatCID",
          "type": "string"
        },
        {
          "internalType": "bool",
          "name": "lulus",
          "type": "bool"
        },
        {
          "internalType": "bool",
          "name": "aktif",
          "type": "bool"
        },
        {
          "internalType": "uint256",
          "name": "tanggalPengajuan",
          "type": "uint256"
        },
        {
          "internalType": "uint256",
          "name": "tanggalSelesai",
          "type": "uint256"
        },
        {
          "internalType": "address",
          "name": "lspPenilai",
          "type": "address"
        },
        {
          "internalType": "string",
          "name": "alasanGagal",
          "type": "string"
        }
      ],
      "stateMutability": "view",
      "type": "function"
    },
    {
      "inputs": [
        {
          "internalType": "address",
          "name": "sertifikasiID",
          "type": "address"
        }
      ],
      "name": "getSertifikatCID",
      "outputs": [
        {
          "internalType": "string",
          "name": "cid",
          "type": "string"
        }
      ],
      "stateMutability": "view",
      "type": "function"
    },
    {
      "inputs": [
        {
          "internalType": "enum SertifikasiStorage.SkemaSertifikasi",
          "name": "skema",
          "type": "uint8"
        }
      ],
      "name": "getSkemaNama",
      "outputs": [
        {
          "internalType": "string",
          "name": "",
          "type": "string"
        }
      ],
      "stateMutability": "pure",
      "type": "function"
    },
    {
      "inputs": [
        {
          "internalType": "address",
          "name": "lspAddress",
          "type": "address"
        }
      ],
      "name": "getStatusLSP",
      "outputs": [
        {
          "internalType": "int8",
          "name": "",
          "type": "int8"
        }
      ],
      "stateMutability": "view",
      "type": "function"
    },
    {
      "inputs": [],
      "name": "getTotalSertifikasi",
      "outputs": [
        {
          "internalType": "uint256",
          "name": "",
          "type": "uint256"
        }
      ],
      "stateMutability": "view",
      "type": "function"
    },
    {
      "inputs": [
        {
          "internalType": "address",
          "name": "lspAddress",
          "type": "address"
        }
      ],
      "name": "hapusLSP",
      "outputs": [],
      "stateMutability": "nonpayable",
      "type": "function"
    },
    {
      "inputs": [
        {
          "internalType": "address",
          "name": "",
          "type": "address"
        }
      ],
      "name": "isLSP",
      "outputs": [
        {
          "internalType": "bool",
          "name": "",
          "type": "bool"
        }
      ],
      "stateMutability": "view",
      "type": "function"
    },
    {
      "inputs": [
        {
          "internalType": "address",
          "name": "",
          "type": "address"
        }
      ],
      "name": "isLSPTerdaftar",
      "outputs": [
        {
          "internalType": "bool",
          "name": "",
          "type": "bool"
        }
      ],
      "stateMutability": "view",
      "type": "function"
    },
    {
      "inputs": [
        {
          "internalType": "address",
          "name": "",
          "type": "address"
        }
      ],
      "name": "isPesertaTerdaftar",
      "outputs": [
        {
          "internalType": "bool",
          "name": "",
          "type": "bool"
        }
      ],
      "stateMutability": "view",
      "type": "function"
    },
    {
      "inputs": [
        {
          "internalType": "address",
          "name": "peserta",
          "type": "address"
        }
      ],
      "name": "lihatRiwayatSertifikasi",
      "outputs": [
        {
          "internalType": "address[]",
          "name": "",
          "type": "address[]"
        }
      ],
      "stateMutability": "view",
      "type": "function"
    },
    {
      "inputs": [
        {
          "internalType": "address",
          "name": "",
          "type": "address"
        }
      ],
      "name": "lspList",
      "outputs": [
        {
          "internalType": "string",
          "name": "metadataCID",
          "type": "string"
        },
        {
          "internalType": "enum RegistrasiLSP.StatusLSP",
          "name": "status",
          "type": "uint8"
        },
        {
          "internalType": "string",
          "name": "suratIzinCID",
          "type": "string"
        },
        {
          "internalType": "string",
          "name": "alasanTolak",
          "type": "string"
        }
      ],
      "stateMutability": "view",
      "type": "function"
    },
    {
      "inputs": [
        {
          "internalType": "address",
          "name": "",
          "type": "address"
        }
      ],
      "name": "lspWhitelist",
      "outputs": [
        {
          "internalType": "bool",
          "name": "",
          "type": "bool"
        }
      ],
      "stateMutability": "view",
      "type": "function"
    },
    {
      "inputs": [],
      "name": "pesertaCount",
      "outputs": [
        {
          "internalType": "uint256",
          "name": "",
          "type": "uint256"
        }
      ],
      "stateMutability": "view",
      "type": "function"
    },
    {
      "inputs": [
        {
          "internalType": "address",
          "name": "",
          "type": "address"
        }
      ],
      "name": "pesertaList",
      "outputs": [
        {
          "internalType": "string",
          "name": "metadataCID",
          "type": "string"
        },
        {
          "internalType": "bool",
          "name": "terdaftar",
          "type": "bool"
        },
        {
          "internalType": "bool",
          "name": "aktif",
          "type": "bool"
        },
        {
          "internalType": "address",
          "name": "sertifikasiAktif",
          "type": "address"
        },
        {
          "internalType": "uint256",
          "name": "tanggalDaftar",
          "type": "uint256"
        }
      ],
      "stateMutability": "view",
      "type": "function"
    },
    {
      "inputs": [
        {
          "internalType": "uint256",
          "name": "",
          "type": "uint256"
        }
      ],
      "name": "sertifikasiById",
      "outputs": [
        {
          "internalType": "address",
          "name": "",
          "type": "address"
        }
      ],
      "stateMutability": "view",
      "type": "function"
    },
    {
      "inputs": [
        {
          "internalType": "address",
          "name": "",
          "type": "address"
        }
      ],
      "name": "sertifikasiList",
      "outputs": [
        {
          "internalType": "address",
          "name": "peserta",
          "type": "address"
        },
        {
          "internalType": "enum SertifikasiStorage.SkemaSertifikasi",
          "name": "skema",
          "type": "uint8"
        },
        {
          "internalType": "string",
          "name": "sertifikatCID",
          "type": "string"
        },
        {
          "internalType": "bool",
          "name": "lulus",
          "type": "bool"
        },
        {
          "internalType": "bool",
          "name": "aktif",
          "type": "bool"
        },
        {
          "internalType": "uint256",
          "name": "tanggalPengajuan",
          "type": "uint256"
        },
        {
          "internalType": "uint256",
          "name": "tanggalSelesai",
          "type": "uint256"
        },
        {
          "internalType": "uint256",
          "name": "tanggalExpiry",
          "type": "uint256"
        },
        {
          "internalType": "address",
          "name": "lspPenilai",
          "type": "address"
        },
        {
          "internalType": "string",
          "name": "alasanGagal",
          "type": "string"
        }
      ],
      "stateMutability": "view",
      "type": "function"
    },
    {
      "inputs": [
        {
          "internalType": "address",
          "name": "lspAddress",
          "type": "address"
        },
        {
          "internalType": "string",
          "name": "alasan",
          "type": "string"
        }
      ],
      "name": "tolakLSP",
      "outputs": [],
      "stateMutability": "nonpayable",
      "type": "function"
    },
    {
      "inputs": [
        {
          "internalType": "address",
          "name": "sertifikasiID",
          "type": "address"
        },
        {
          "internalType": "string",
          "name": "alasan",
          "type": "string"
        }
      ],
      "name": "updateKegagalan",
      "outputs": [],
      "stateMutability": "nonpayable",
      "type": "function"
    },
    {
      "inputs": [
        {
          "internalType": "address",
          "name": "sertifikasiID",
          "type": "address"
        },
        {
          "internalType": "string",
          "name": "sertifikatCID",
          "type": "string"
        }
      ],
      "name": "updateKelulusan",
      "outputs": [],
      "stateMutability": "nonpayable",
      "type": "function"
    },
    {
      "inputs": [
        {
          "internalType": "string",
          "name": "newCID",
          "type": "string"
        }
      ],
      "name": "updateMetadata",
      "outputs": [],
      "stateMutability": "nonpayable",
      "type": "function"
    },
    {
      "inputs": [
        {
          "internalType": "string",
          "name": "newMetadataCID",
          "type": "string"
        }
      ],
      "name": "updateMetadataLSP",
      "outputs": [],
      "stateMutability": "nonpayable",
      "type": "function"
    },
    {
      "inputs": [
        {
          "internalType": "address",
          "name": "sertifikasiID",
          "type": "address"
        }
      ],
      "name": "verifikasiKelulusan",
      "outputs": [
        {
          "internalType": "bool",
          "name": "valid",
          "type": "bool"
        }
      ],
      "stateMutability": "view",
      "type": "function"
    },
    {
      "inputs": [
        {
          "internalType": "address",
          "name": "lspAddress",
          "type": "address"
        },
        {
          "internalType": "string",
          "name": "suratIzinCID",
          "type": "string"
        }
      ],
      "name": "verifikasiLSP",
      "outputs": [],
      "stateMutability": "nonpayable",
      "type": "function"
    },
    {
      "inputs": [
        {
          "internalType": "address",
          "name": "sertifikasiID",
          "type": "address"
        }
      ],
      "name": "verifikasiSertifikasiLengkap",
      "outputs": [
        {
          "internalType": "bool",
          "name": "exists",
          "type": "bool"
        },
        {
          "internalType": "bool",
          "name": "lulus",
          "type": "bool"
        },
        {
          "internalType": "bool",
          "name": "aktif",
          "type": "bool"
        },
        {
          "internalType": "address",
          "name": "peserta",
          "type": "address"
        },
        {
          "internalType": "enum SertifikasiStorage.SkemaSertifikasi",
          "name": "skema",
          "type": "uint8"
        },
        {
          "internalType": "string",
          "name": "sertifikatCID",
          "type": "string"
        },
        {
          "internalType": "uint256",
          "name": "tanggalSelesai",
          "type": "uint256"
        },
        {
          "internalType": "address",
          "name": "lspPenilai",
          "type": "address"
        }
      ],
      "stateMutability": "view",
      "type": "function"
    }
  ],
  "bytecode": "0x6080604052348015600f57600080fd5b50600080546001600160a01b03191633179055613d29806100316000396000f3fe608060405234801561001057600080fd5b50600436106102315760003560e01c8063732a6f3211610130578063c73c6005116100b8578063e216eaeb1161007c578063e216eaeb146105a1578063e8acac99146105b4578063f2416e3e146105c7578063f26d0d29146105cf578063f81ce2d2146105f257600080fd5b8063c73c6005146103f4578063cb5fb9a014610518578063d39cd69e1461053f578063d75f27ac14610568578063e06445321461057b57600080fd5b80639653d19e116100ff5780639653d19e146104cc5780639e2ed884146104df578063a35fcfe5146104f2578063a3d9914f14610268578063afaf49ea1461050557600080fd5b8063732a6f32146104705780637433efb4146104835780638d70327f14610496578063918b5be1146104b957600080fd5b80633af61c21116101be5780635dc49397116101825780635dc49397146103f45780635e58b527146104145780635eb5e4e7146104375780636df8a5a61461044a5780636e75758e1461045d57600080fd5b80633af61c211461034d5780633ced72f9146103805780634021e5cf14610393578063542a7dc2146103b65780635cf6de2b146103c957600080fd5b806314851c8a1161020557806314851c8a146102c457806316467b60146102e457806316c89ca0146102f957806316efcaac14610321578063282ef0211461034557600080fd5b8062ee260b146102365780630b5a9a7e146102685780630e0473e5146102885780631017604f1461029f575b600080fd5b6102496102443660046132be565b61062d565b60405161025f9a99989796959493929190613349565b60405180910390f35b61027b6102763660046132be565b6107b1565b60405161025f91906133d3565b61029160065481565b60405190815260200161025f565b6102b26102ad3660046132be565b610a24565b60405161025f969594939291906134a3565b6102d76102d23660046132be565b610bc9565b60405161025f91906134e8565b6102f76102f236600461357d565b610c42565b005b61030c6103073660046132be565b610e48565b60405161025f999897969594939291906135d0565b61033461032f3660046132be565b6110c1565b60405161025f959493929190613651565b6102f761118a565b61037061035b3660046132be565b600a6020526000908152604090205460ff1681565b604051901515815260200161025f565b6102f761038e36600461357d565b6113ab565b6103706103a13660046132be565b60046020526000908152604090205460ff1681565b6102f76103c43660046132be565b61154b565b6000546103dc906001600160a01b031681565b6040516001600160a01b03909116815260200161025f565b6104076104023660046132be565b611661565b60405161025f9190613691565b6103706104223660046132be565b60016020526000908152604090205460ff1681565b6102f76104453660046136a4565b61176d565b6102f761045836600461357d565b611b1c565b6103dc61046b3660046136c5565b611d27565b6102f761047e36600461357d565b611d94565b6103706104913660046132be565b611f35565b6104a96104a43660046132be565b612158565b60405161025f94939291906136de565b6102f76104c7366004613738565b612342565b6104a96104da3660046132be565b612451565b6102f76104ed366004613738565b61261a565b6102f7610500366004613738565b612731565b6102f7610513366004613738565b612a02565b61052b6105263660046132be565b612c46565b60405161025f98979695949392919061377a565b6103dc61054d3660046136c5565b6008602052600090815260409020546001600160a01b031681565b6102f76105763660046132be565b612eba565b61058e6105893660046132be565b612f05565b60405160009190910b815260200161025f565b6104076105af3660046132be565b612f5e565b6104076105c23660046136a4565b612fbe565b600754610291565b6103706105dd3660046132be565b600b6020526000908152604090205460ff1681565b6106056106003660046132be565b61308c565b604080519415158552921515602085015290151591830191909152606082015260800161025f565b600360205260009081526040902080546001820180546001600160a01b03831693600160a01b90930460ff16929190610665906137e8565b80601f0160208091040260200160405190810160405280929190818152602001828054610691906137e8565b80156106de5780601f106106b3576101008083540402835291602001916106de565b820191906000526020600020905b8154815290600101906020018083116106c157829003601f168201915b5050505060028301546003840154600485015460058601546006870154600788018054979860ff808816996101009098041697509495939492936001600160a01b03909216929161072e906137e8565b80601f016020809104026020016040519081016040528092919081815260200182805461075a906137e8565b80156107a75780601f1061077c576101008083540402835291602001916107a7565b820191906000526020600020905b81548152906001019060200180831161078a57829003601f168201915b505050505090508a565b604080516101408101825260008082526020820181905260609282018390528282018190526080820181905260a0820181905260c0820181905260e082018190526101008201526101208101919091526001600160a01b03828116600090815260036020526040902054166108415760405162461bcd60e51b815260040161083890613822565b60405180910390fd5b6001600160a01b038281166000908152600360208181526040928390208351610140810190945280549485168452929390840191600160a01b90910460ff1690811115610890576108906132d9565b60038111156108a1576108a16132d9565b81526020016001820180546108b5906137e8565b80601f01602080910402602001604051908101604052809291908181526020018280546108e1906137e8565b801561092e5780601f106109035761010080835404028352916020019161092e565b820191906000526020600020905b81548152906001019060200180831161091157829003601f168201915b5050509183525050600282015460ff8082161515602084015261010090910416151560408201526003820154606082015260048201546080820152600582015460a082015260068201546001600160a01b031660c082015260078201805460e09092019161099b906137e8565b80601f01602080910402602001604051908101604052809291908181526020018280546109c7906137e8565b8015610a145780601f106109e957610100808354040283529160200191610a14565b820191906000526020600020905b8154815290600101906020018083116109f757829003601f168201915b5050505050815250509050919050565b606060008060008060008060026000896001600160a01b03166001600160a01b031681526020019081526020016000206040518060c0016040529081600082018054610a6f906137e8565b80601f0160208091040260200160405190810160405280929190818152602001828054610a9b906137e8565b8015610ae85780601f10610abd57610100808354040283529160200191610ae8565b820191906000526020600020905b815481529060010190602001808311610acb57829003601f168201915b5050509183525050600182015460ff808216151560208085019190915261010083049091161515604080850191909152620100009092046001600160a01b031660608401526002840180548351818402810184019094528084526080909401939091830182828015610b8357602002820191906000526020600020905b81546001600160a01b03168152600190910190602001808311610b65575b5050509183525050600391909101546020918201528151908201516040830151606084015160a085015160809095015151939d929c50909a509850919650945092505050565b6001600160a01b038116600090815260026020818152604092839020909101805483518184028101840190945280845260609392830182828015610c3657602002820191906000526020600020905b81546001600160a01b03168152600190910190602001808311610c18575b50505050509050919050565b3360009081526001602052604090205460ff16610c8d5760405162461bcd60e51b8152602060048201526009602482015268048616e7961204c53560bc1b6044820152606401610838565b826001600160a01b038116610cb45760405162461bcd60e51b815260040161083890613859565b82828080601f0160208091040260200160405190810160405280939291908181526020018383808284376000920182905250845190039250610d0b9150505760405162461bcd60e51b815260040161083890613885565b6001600160a01b03851660009081526003602052604090206002810154610100900460ff16610d765760405162461bcd60e51b815260206004820152601760248201527629b2b93a34b334b5b0b9b4903a34b230b59030b5ba34b360491b6044820152606401610838565b80546001600160a01b0316610d9d5760405162461bcd60e51b815260040161083890613822565b60028101805461ffff191690554260048201556006810180546001600160a01b0319163317905560078101610dd3858783613921565b5080546001600160a01b031660009081526002602052604090819020600101805462010000600160b01b03191690555133907f7176ae479d15b28ef81160f7cb60a461e03d280ed14952ffe689854e31aede6490610e38908990899089904290613a0a565b60405180910390a2505050505050565b6001600160a01b038181166000908152600360205260408120549091829160609183918291829182918291879116610e925760405162461bcd60e51b815260040161083890613822565b6001600160a01b038a811660009081526003602081815260408084208151610140810190925280549586168252939490939291840191600160a01b90910460ff1690811115610ee357610ee36132d9565b6003811115610ef457610ef46132d9565b8152602001600182018054610f08906137e8565b80601f0160208091040260200160405190810160405280929190818152602001828054610f34906137e8565b8015610f815780601f10610f5657610100808354040283529160200191610f81565b820191906000526020600020905b815481529060010190602001808311610f6457829003601f168201915b5050509183525050600282015460ff8082161515602084015261010090910416151560408201526003820154606082015260048201546080820152600582015460a082015260068201546001600160a01b031660c082015260078201805460e090920191610fee906137e8565b80601f016020809104026020016040519081016040528092919081815260200182805461101a906137e8565b80156110675780601f1061103c57610100808354040283529160200191611067565b820191906000526020600020905b81548152906001019060200180831161104a57829003601f168201915b5050505050815250509050806000015181602001518260400151836060015184608001518560a001518660c00151876101000151886101200151995099509950995099509950995099509950509193959799909294969850565b6002602052600090815260409020805481906110dc906137e8565b80601f0160208091040260200160405190810160405280929190818152602001828054611108906137e8565b80156111555780601f1061112a57610100808354040283529160200191611155565b820191906000526020600020905b81548152906001019060200180831161113857829003601f168201915b505050506001830154600390930154919260ff8082169361010083049091169250620100009091046001600160a01b03169085565b3360009081526002602052604090206001015460ff1680156111c3575033600090815260026020526040902060010154610100900460ff165b6111df5760405162461bcd60e51b815260040161083890613a40565b336000908152600260205260409020600101546201000090046001600160a01b03168061124e5760405162461bcd60e51b815260206004820152601b60248201527f546964616b2061646120736572746966696b61736920616b74696600000000006044820152606401610838565b6001600160a01b03811660009081526003602052604090206002810154610100900460ff166112bf5760405162461bcd60e51b815260206004820152601d60248201527f536572746966696b61736920737564616820746964616b20616b7469660000006044820152606401610838565b60028101805461ff00191690554260048201556040805180820190915260178152764469626174616c6b616e206f6c6568207065736572746160481b6020820152600782019061130f9082613a6d565b50336000908152600260209081526040808320600101805462010000600160b01b031916905580516001600160a01b03861681526060928101839052601792810192909252764469626174616c6b616e206f6c6568207065736572746160481b608083015242908201527f7176ae479d15b28ef81160f7cb60a461e03d280ed14952ffe689854e31aede649060a0015b60405180910390a25050565b6000546001600160a01b031633146113d55760405162461bcd60e51b815260040161083890613b2c565b826001600160a01b0381166113fc5760405162461bcd60e51b815260040161083890613859565b82828080601f01602080910402602001604051908101604052809392919081815260200183838082843760009201829052508451900392506114539150505760405162461bcd60e51b815260040161083890613885565b6001600160a01b038516600090815260096020526040812090600182015460ff166002811115611485576114856132d9565b146114d25760405162461bcd60e51b815260206004820152601f60248201527f4c535020746964616b2064616c616d20737461747573206d656e756e676775006044820152606401610838565b60018101805460ff19166002179055600381016114f0858783613921565b50604080516020810190915260008152600282019061150f9082613a6d565b50856001600160a01b03167f6214efe84e589b41714ba0c9ee2bb9bde0eb09b641a218032b5f7ad0e7ee777d8686604051610e38929190613b50565b6000546001600160a01b031633146115755760405162461bcd60e51b815260040161083890613b2c565b806001600160a01b03811661159c5760405162461bcd60e51b815260040161083890613859565b6001600160a01b0382166000908152600b602052604090205460ff16156115fa5760405162461bcd60e51b815260206004820152601260248201527114dd59185a08191a4b5dda1a5d195b1a5cdd60721b6044820152606401610838565b6001600160a01b0382166000818152600b602052604090819020805460ff19166001179055517fb805885fe4dd8482cc8db6d8ad71cbb6eb1f7a7d765760278d55a92d6fad29f19061139f906020808252600190820152602d60f81b604082015260600190565b6001600160a01b03811660009081526002602052604090206001015460609060ff166116cf5760405162461bcd60e51b815260206004820152601760248201527f5065736572746120746964616b207465726461667461720000000000000000006044820152606401610838565b6001600160a01b038216600090815260026020526040902080546116f2906137e8565b80601f016020809104026020016040519081016040528092919081815260200182805461171e906137e8565b8015610c365780601f1061174057610100808354040283529160200191610c36565b820191906000526020600020905b81548152906001019060200180831161174e5750939695505050505050565b3360009081526002602052604090206001015460ff1680156117a6575033600090815260026020526040902060010154610100900460ff165b6117c25760405162461bcd60e51b815260040161083890613a40565b33600090815260026020526040902060018101546201000090046001600160a01b0316156118325760405162461bcd60e51b815260206004820152601b60248201527f4d617369682061646120736572746966696b61736920616b74696600000000006044820152606401610838565b6007805490600061184283613b82565b909155505060075433600081815260056020526040812080549192849290914291908561186e83613b82565b909155506040805160a060208201819052600c60c08301526b534552544946494b4153495f60a01b60e0830152918101959095526001600160a01b0390931660608501526080840191909152908201526101000160408051808303601f19018152828252805160209182012060008681526008835283902080546001600160a01b0319166001600160a01b03831617905561014084019092523383529092508101856003811115611921576119216132d9565b815260200160405180602001604052806000815250815260200160001515815260200160011515815260200142815260200160008152602001426305a39a8061196a9190613b9b565b815260006020808301829052604080518083018252838152938101939093526001600160a01b0385811683526003808352939092208451815493166001600160a01b0319841681178255918501519093909284926001600160a81b03199091161790600160a01b9084908111156119e3576119e36132d9565b0217905550604082015160018201906119fc9082613a6d565b506060820151600282018054608085015161ffff1990911692151561ff00191692909217610100921515830217905560a0830151600383015560c0830151600483015560e083015160058301558201516006820180546001600160a01b0319166001600160a01b039092169190911790556101208201516007820190611a829082613a6d565b5050506001838101805462010000600160b01b031916620100006001600160a01b03851690810291909117909155600285018054928301815560009081526020902090910180546001600160a01b031916909117905560405133907f3ac6af73e630a22fd1e8f791a2b123684b5551df2f5f617948313d0df595a37290611b0e90849088904290613bb4565b60405180910390a250505050565b3360009081526001602052604090205460ff16611b675760405162461bcd60e51b8152602060048201526009602482015268048616e7961204c53560bc1b6044820152606401610838565b826001600160a01b038116611b8e5760405162461bcd60e51b815260040161083890613859565b82828080601f0160208091040260200160405190810160405280939291908181526020018383808284376000920182905250845190039250611be59150505760405162461bcd60e51b815260040161083890613885565b6001600160a01b03851660009081526003602052604090206002810154610100900460ff16611c505760405162461bcd60e51b815260206004820152601760248201527629b2b93a34b334b5b0b9b4903a34b230b59030b5ba34b360491b6044820152606401610838565b80546001600160a01b0316611c775760405162461bcd60e51b815260040161083890613822565b60028101805460ff191660019081179091558101611c96858783613921565b506002808201805461ff001916905542600483018190556006830180546001600160a01b0319163390811790915583546001600160a01b03166000908152602093909352604092839020600101805462010000600160b01b031916905591517fad88f87555b407755a665f13e36f4952e39e6ee937b6c0adb7896b91d47bb8e391610e38918a918a918a9190613a0a565b60006007548211158015611d3b5750600082115b611d785760405162461bcd60e51b815260206004820152600e60248201526d1251081d1a59185ac81d985b1a5960921b6044820152606401610838565b506000908152600860205260409020546001600160a01b031690565b6000546001600160a01b03163314611dbe5760405162461bcd60e51b815260040161083890613b2c565b826001600160a01b038116611de55760405162461bcd60e51b815260040161083890613859565b82828080601f0160208091040260200160405190810160405280939291908181526020018383808284376000920182905250845190039250611e3c9150505760405162461bcd60e51b815260040161083890613885565b6001600160a01b038516600090815260096020526040812090600182015460ff166002811115611e6e57611e6e6132d9565b14611ebb5760405162461bcd60e51b815260206004820152601f60248201527f4c535020746964616b2064616c616d20737461747573206d656e756e676775006044820152606401610838565b6001818101805460ff1916909117905560028101611eda858783613921565b506040805160208101909152600081526003820190611ef99082613a6d565b50856001600160a01b03167fa2afc48ad450df786fc5287f1e8dea74f2f5e8252d2aac21bb732fb36e83f9468686604051610e38929190613b50565b6001600160a01b03818116600090815260036020526040812054909116611f5e57506000919050565b6001600160a01b0382811660009081526003602081815260408084208151610140810190925280549586168252939490939291840191600160a01b90910460ff1690811115611faf57611faf6132d9565b6003811115611fc057611fc06132d9565b8152602001600182018054611fd4906137e8565b80601f0160208091040260200160405190810160405280929190818152602001828054612000906137e8565b801561204d5780601f106120225761010080835404028352916020019161204d565b820191906000526020600020905b81548152906001019060200180831161203057829003601f168201915b5050509183525050600282015460ff8082161515602084015261010090910416151560408201526003820154606082015260048201546080820152600582015460a082015260068201546001600160a01b031660c082015260078201805460e0909201916120ba906137e8565b80601f01602080910402602001604051908101604052809291908181526020018280546120e6906137e8565b80156121335780601f1061210857610100808354040283529160200191612133565b820191906000526020600020905b81548152906001019060200180831161211657829003601f168201915b50505050508152505090508060600151801561215157508060800151155b9392505050565b6001600160a01b0381166000908152600960205260408120600181015481546060939284928392829160ff169060028301906003840190849061219a906137e8565b80601f01602080910402602001604051908101604052809291908181526020018280546121c6906137e8565b80156122135780601f106121e857610100808354040283529160200191612213565b820191906000526020600020905b8154815290600101906020018083116121f657829003601f168201915b50505050509350818054612226906137e8565b80601f0160208091040260200160405190810160405280929190818152602001828054612252906137e8565b801561229f5780601f106122745761010080835404028352916020019161229f565b820191906000526020600020905b81548152906001019060200180831161228257829003601f168201915b505050505091508080546122b2906137e8565b80601f01602080910402602001604051908101604052809291908181526020018280546122de906137e8565b801561232b5780601f106123005761010080835404028352916020019161232b565b820191906000526020600020905b81548152906001019060200180831161230e57829003601f168201915b505050505090509450945094509450509193509193565b3360009081526002602052604090206001015460ff16801561237b575033600090815260026020526040902060010154610100900460ff165b6123975760405162461bcd60e51b815260040161083890613a40565b81818080601f01602080910402602001604051908101604052809392919081815260200183838082843760009201829052508451900392506123ee9150505760405162461bcd60e51b815260040161083890613885565b336000908152600260205260409020612408838583613921565b50336001600160a01b03167fbfc8ffd6fbbc13c20f5b640faea3048bcbf648d1ed4ab5a142eb81a4d5c11eca8484604051612444929190613b50565b60405180910390a2505050565b60096020526000908152604090208054819061246c906137e8565b80601f0160208091040260200160405190810160405280929190818152602001828054612498906137e8565b80156124e55780601f106124ba576101008083540402835291602001916124e5565b820191906000526020600020905b8154815290600101906020018083116124c857829003601f168201915b5050506001840154600285018054949560ff909216949193509150612509906137e8565b80601f0160208091040260200160405190810160405280929190818152602001828054612535906137e8565b80156125825780601f1061255757610100808354040283529160200191612582565b820191906000526020600020905b81548152906001019060200180831161256557829003601f168201915b505050505090806003018054612597906137e8565b80601f01602080910402602001604051908101604052809291908181526020018280546125c3906137e8565b80156126105780601f106125e557610100808354040283529160200191612610565b820191906000526020600020905b8154815290600101906020018083116125f357829003601f168201915b5050505050905084565b81818080601f01602080910402602001604051908101604052809392919081815260200183838082843760009201829052508451900392506126719150505760405162461bcd60e51b815260040161083890613885565b3360009081526009602052604081206001015460ff166002811115612698576126986132d9565b036126db5760405162461bcd60e51b81526020600482015260136024820152722132b63ab6903832b93730b4103230b33a30b960691b6044820152606401610838565b3360009081526009602052604090206126f5838583613921565b50336001600160a01b03167f888338719acbecc4ba224509d272f9176d7b20628c353787dd9b2a1cdcd33f638484604051612444929190613b50565b81818080601f01602080910402602001604051908101604052809392919081815260200183838082843760009201829052508451900392506127889150505760405162461bcd60e51b815260040161083890613885565b3360009081526009602052604081206001015460ff1660028111156127af576127af6132d9565b146128135760405162461bcd60e51b815260206004820152602e60248201527f5375646168207065726e6168206461667461722061746175207374617475732060448201526d62756b616e204d656e756e67677560901b6064820152608401610838565b336000908152600960205260409020805461282d906137e8565b1590506128725760405162461bcd60e51b815260206004820152601360248201527229bab230b4103832b93730b4103230b33a30b960691b6044820152606401610838565b6000546001600160a01b031633036128d75760405162461bcd60e51b815260206004820152602260248201527f424e535020746964616b2062697361206461667461722073656261676169204c604482015261053560f41b6064820152608401610838565b604051806080016040528084848080601f01602080910402602001604051908101604052809392919081815260200183838082843760009201829052509385525050506020808301829052604080518083018252838152818501528051808301825283815260609094019390935233825260099052208151819061295b9082613a6d565b50602082015160018083018054909160ff1990911690836002811115612983576129836132d9565b02179055506040820151600282019061299c9082613a6d565b50606082015160038201906129b19082613a6d565b5050336000818152600a602052604090819020805460ff19166001179055519091507f97aeb5fb194ec62c9d9b39612021999b672308ae532baa9acaef2ddc56c95c4f906124449086908690613b50565b81818080601f0160208091040260200160405190810160405280939291908181526020018383808284376000920182905250845190039250612a599150505760405162461bcd60e51b815260040161083890613885565b3360009081526002602052604090206001015460ff1615612aae5760405162461bcd60e51b815260206004820152600f60248201526e29bab230b4103a32b93230b33a30b960891b6044820152606401610838565b6040518060c0016040528084848080601f0160208091040260200160405190810160405280939291908181526020018383808284376000920182905250938552505060016020840181905260408401525060608201819052608090910190604051908082528060200260200182016040528015612b35578160200160208202803683370190505b5081524260209182015233600090815260029091526040902081518190612b5c9082613a6d565b50602082810151600183018054604086015160608701516001600160a01b0316620100000262010000600160b01b03199115156101000261ff00199515159590951661ffff1990931692909217939093179290921691909117905560808301518051612bce926002850192019061322d565b5060a09190910151600390910155336000908152600460205260408120805460ff191660011790556006805491612c0483613b82565b9190505550336001600160a01b03167f5c2d1095c6c47db736747eb0de0af919db06bb86af4c022f4da6cd652fde0ea884844260405161244493929190613bdf565b6001600160a01b038181166000908152600360208181526040808420815161014081019092528054958616825293948594859485948594606094869485948594919291840191600160a01b900460ff1690811115612ca657612ca66132d9565b6003811115612cb757612cb76132d9565b8152602001600182018054612ccb906137e8565b80601f0160208091040260200160405190810160405280929190818152602001828054612cf7906137e8565b8015612d445780601f10612d1957610100808354040283529160200191612d44565b820191906000526020600020905b815481529060010190602001808311612d2757829003601f168201915b5050509183525050600282015460ff8082161515602084015261010090910416151560408201526003820154606082015260048201546080820152600582015460a082015260068201546001600160a01b031660c082015260078201805460e090920191612db1906137e8565b80601f0160208091040260200160405190810160405280929190818152602001828054612ddd906137e8565b8015612e2a5780601f10612dff57610100808354040283529160200191612e2a565b820191906000526020600020905b815481529060010190602001808311612e0d57829003601f168201915b50505091909252505081516001600160a01b031615159a50909150899050612e77575050604080516020810190915260008082529750879650869550859450849350915082905080612eaf565b6001816060015182608001518360000151846020015185604001518660c0015187610100015198509850985098509850985098509850505b919395975091939597565b6000546001600160a01b03163314612ee45760405162461bcd60e51b815260040161083890613b2c565b6001600160a01b03166000908152600a60205260409020805460ff19169055565b6001600160a01b0381166000908152600a602052604081205460ff16612f2e5750600019919050565b6001600160a01b03821660009081526009602052604081206001015460ff166002811115612151576121516132d9565b6001600160a01b0381811660009081526003602052604090205460609116612f985760405162461bcd60e51b815260040161083890613822565b6001600160a01b038216600090815260036020526040902060010180546116f2906137e8565b60606000826003811115612fd457612fd46132d9565b03612ff8576040518060800160405280604c8152602001613c38604c913992915050565b600182600381111561300c5761300c6132d9565b0361303057604051806060016040528060368152602001613cbe6036913992915050565b6002826003811115613044576130446132d9565b03613068576040518060600160405280603a8152602001613c84603a913992915050565b604051806060016040528060348152602001613c046034913992915050565b919050565b600080600080600060026000876001600160a01b03166001600160a01b031681526020019081526020016000206040518060c00160405290816000820180546130d4906137e8565b80601f0160208091040260200160405190810160405280929190818152602001828054613100906137e8565b801561314d5780601f106131225761010080835404028352916020019161314d565b820191906000526020600020905b81548152906001019060200180831161313057829003601f168201915b5050509183525050600182015460ff808216151560208085019190915261010083049091161515604080850191909152620100009092046001600160a01b0316606084015260028401805483518184028101840190945280845260809094019390918301828280156131e857602002820191906000526020600020905b81546001600160a01b031681526001909101906020018083116131ca575b505050918352505060039190910154602091820152810151604082015160608301516080909301515191999098506001600160a01b0390921615159650945092505050565b828054828255906000526020600020908101928215613282579160200282015b8281111561328257825182546001600160a01b0319166001600160a01b0390911617825560209092019160019091019061324d565b5061328e929150613292565b5090565b5b8082111561328e5760008155600101613293565b80356001600160a01b038116811461308757600080fd5b6000602082840312156132d057600080fd5b612151826132a7565b634e487b7160e01b600052602160045260246000fd5b600481106132ff576132ff6132d9565b9052565b6000815180845260005b818110156133295760208185018101518683018201520161330d565b506000602082860101526020601f19601f83011685010191505092915050565b6001600160a01b038b168152613362602082018b6132ef565b6101406040820152600061337a61014083018b613303565b8915156060840152881515608084015260a0830188905260c0830187905260e083018690526001600160a01b0385166101008401528281036101208401526133c28185613303565b9d9c50505050505050505050505050565b602081526133ed6020820183516001600160a01b03169052565b6000602083015161340160408401826132ef565b506040830151610140606084015261341d610160840182613303565b90506060840151613432608085018215159052565b50608084015180151560a08501525060a084015160c084015260c084015160e084015260e084015161010084015261010084015161347c6101208501826001600160a01b03169052565b50610120840151838203601f190161014085015261349a8282613303565b95945050505050565b60c0815260006134b660c0830189613303565b96151560208301525093151560408501526001600160a01b03929092166060840152608083015260a090910152919050565b602080825282518282018190526000918401906040840190835b818110156135295783516001600160a01b0316835260209384019390920191600101613502565b509095945050505050565b60008083601f84011261354657600080fd5b50813567ffffffffffffffff81111561355e57600080fd5b60208301915083602082850101111561357657600080fd5b9250929050565b60008060006040848603121561359257600080fd5b61359b846132a7565b9250602084013567ffffffffffffffff8111156135b757600080fd5b6135c386828701613534565b9497909650939450505050565b6001600160a01b038a1681526135e9602082018a6132ef565b6101206040820152600061360161012083018a613303565b8815156060840152871515608084015260a0830187905260c083018690526001600160a01b03851660e08401528281036101008401526136418185613303565b9c9b505050505050505050505050565b60a08152600061366460a0830188613303565b95151560208301525092151560408401526001600160a01b03919091166060830152608090910152919050565b6020815260006121516020830184613303565b6000602082840312156136b657600080fd5b81356004811061215157600080fd5b6000602082840312156136d757600080fd5b5035919050565b6080815260006136f16080830187613303565b60038610613701576137016132d9565b85602084015282810360408401526137198186613303565b9050828103606084015261372d8185613303565b979650505050505050565b6000806020838503121561374b57600080fd5b823567ffffffffffffffff81111561376257600080fd5b61376e85828601613534565b90969095509350505050565b8815158152871515602082015286151560408201526001600160a01b03861660608201526137ab60808201866132ef565b61010060a082015260006137c3610100830186613303565b60c0830194909452506001600160a01b039190911660e0909101529695505050505050565b600181811c908216806137fc57607f821691505b60208210810361381c57634e487b7160e01b600052602260045260246000fd5b50919050565b6020808252601b908201527f536572746966696b61736920746964616b20646974656d756b616e0000000000604082015260600190565b602080825260129082015271105b185b585d081d1a59185ac81d985b1a5960721b604082015260600190565b60208082526019908201527f537472696e6720746964616b20626f6c6568206b6f736f6e6700000000000000604082015260600190565b634e487b7160e01b600052604160045260246000fd5b601f82111561391c57806000526020600020601f840160051c810160208510156138f95750805b601f840160051c820191505b818110156139195760008155600101613905565b50505b505050565b67ffffffffffffffff831115613939576139396138bc565b61394d8361394783546137e8565b836138d2565b6000601f84116001811461398157600085156139695750838201355b600019600387901b1c1916600186901b178355613919565b600083815260209020601f19861690835b828110156139b25786850135825560209485019460019092019101613992565b50868210156139cf5760001960f88860031b161c19848701351681555b505060018560011b0183555050505050565b81835281816020850137506000828201602090810191909152601f909101601f19169091010190565b6001600160a01b0385168152606060208201819052600090613a2f90830185876139e1565b905082604083015295945050505050565b6020808252601390820152722430b73cb0903832b9b2b93a309030b5ba34b360691b604082015260600190565b815167ffffffffffffffff811115613a8757613a876138bc565b613a9b81613a9584546137e8565b846138d2565b6020601f821160018114613acf5760008315613ab75750848201515b600019600385901b1c1916600184901b178455613919565b600084815260208120601f198516915b82811015613aff5787850151825560209485019460019092019101613adf565b5084821015613b1d5786840151600019600387901b60f8161c191681555b50505050600190811b01905550565b6020808252600a9082015269048616e796120424e53560b41b604082015260600190565b602081526000613b646020830184866139e1565b949350505050565b634e487b7160e01b600052601160045260246000fd5b600060018201613b9457613b94613b6c565b5060010190565b80820180821115613bae57613bae613b6c565b92915050565b6001600160a01b038416815260608101613bd160208301856132ef565b826040830152949350505050565b604081526000613bf36040830185876139e1565b905082602083015294935050505056fe4f6b75706173692050656e616e6767756e67204a617761622050656e67656e64616c69616e2050656e63656d6172616e204169724f6b75706173692050656e616e6767756e67204a61776162204f7065726173696f6e616c20496e7374616c6173692050656e67656e64616c69616e2050656e63656d6172616e2055646172614f6b75706173692050656e616e6767756e67204a61776162204f7065726173696f6e616c2050656e676f6c6168616e20416972204c696d6261684f6b75706173692050656e616e6767756e67204a617761622050656e67656e64616c69616e2050656e63656d6172616e205564617261a264697066735822122093f310ad1d34e783d39490a79edd9d8c342e3bf7577e9b75a5df8eb21c140d4f64736f6c634300081c0033",
  "linkReferences": {},
  "deployedLinkReferences": {}
}