{
  "_format": "hh-sol-artifact-1",
  "contractName": "MainContract",
  "sourceName": "contracts/MainContract.sol",
  "abi": [
    {
      "inputs": [],
      "stateMutability": "nonpayable",
      "type": "constructor"
    },
    {
      "anonymous": false,
      "inputs": [
        {
          "indexed": true,
          "internalType": "address",
          "name": "lsp",
          "type": "address"
        },
        {
          "indexed": false,
          "internalType": "address",
          "name": "sertifikasiID",
          "type": "address"
        },
        {
          "indexed": false,
          "internalType": "string",
          "name": "sertifikatCID",
          "type": "string"
        },
        {
          "indexed": false,
          "internalType": "uint256",
          "name": "tanggal",
          "type": "uint256"
        }
      ],
      "name": "KelulusanDiupdate",
      "type": "event"
    },
    {
      "anonymous": false,
      "inputs": [
        {
          "indexed": true,
          "internalType": "address",
          "name": "lsp",
          "type": "address"
        },
        {
          "indexed": false,
          "internalType": "string",
          "name": "metadataCID",
          "type": "string"
        }
      ],
      "name": "LSPDidaftarkan",
      "type": "event"
    },
    {
      "anonymous": false,
      "inputs": [
        {
          "indexed": true,
          "internalType": "address",
          "name": "lsp",
          "type": "address"
        }
      ],
      "name": "LSPDihapus",
      "type": "event"
    },
    {
      "anonymous": false,
      "inputs": [
        {
          "indexed": true,
          "internalType": "address",
          "name": "lsp",
          "type": "address"
        },
        {
          "indexed": false,
          "internalType": "string",
          "name": "metadataCID",
          "type": "string"
        }
      ],
      "name": "LSPDitambahkan",
      "type": "event"
    },
    {
      "anonymous": false,
      "inputs": [
        {
          "indexed": true,
          "internalType": "address",
          "name": "lsp",
          "type": "address"
        },
        {
          "indexed": false,
          "internalType": "string",
          "name": "alasan",
          "type": "string"
        }
      ],
      "name": "LSPDitolak",
      "type": "event"
    },
    {
      "anonymous": false,
      "inputs": [
        {
          "indexed": true,
          "internalType": "address",
          "name": "lsp",
          "type": "address"
        },
        {
          "indexed": false,
          "internalType": "string",
          "name": "suratIzinCID",
          "type": "string"
        }
      ],
      "name": "LSPDiverifikasi",
      "type": "event"
    },
    {
      "anonymous": false,
      "inputs": [
        {
          "indexed": true,
          "internalType": "address",
          "name": "lsp",
          "type": "address"
        },
        {
          "indexed": false,
          "internalType": "string",
          "name": "newMetadataCID",
          "type": "string"
        }
      ],
      "name": "LSPMetadataUpdated",
      "type": "event"
    },
    {
      "anonymous": false,
      "inputs": [
        {
          "indexed": true,
          "internalType": "address",
          "name": "peserta",
          "type": "address"
        },
        {
          "indexed": false,
          "internalType": "string",
          "name": "newCID",
          "type": "string"
        }
      ],
      "name": "MetadataDiupdate",
      "type": "event"
    },
    {
      "anonymous": false,
      "inputs": [
        {
          "indexed": true,
          "internalType": "address",
          "name": "peserta",
          "type": "address"
        }
      ],
      "name": "PesertaDinonaktifkan",
      "type": "event"
    },
    {
      "anonymous": false,
      "inputs": [
        {
          "indexed": true,
          "internalType": "address",
          "name": "peserta",
          "type": "address"
        },
        {
          "indexed": false,
          "internalType": "string",
          "name": "metadataCID",
          "type": "string"
        },
        {
          "indexed": false,
          "internalType": "uint256",
          "name": "tanggal",
          "type": "uint256"
        }
      ],
      "name": "PesertaTerdaftar",
      "type": "event"
    },
    {
      "anonymous": false,
      "inputs": [
        {
          "indexed": true,
          "internalType": "address",
          "name": "lsp",
          "type": "address"
        },
        {
          "indexed": false,
          "internalType": "address",
          "name": "sertifikasiID",
          "type": "address"
        },
        {
          "indexed": false,
          "internalType": "string",
          "name": "alasan",
          "type": "string"
        },
        {
          "indexed": false,
          "internalType": "uint256",
          "name": "tanggal",
          "type": "uint256"
        }
      ],
      "name": "SertifikasiBatal",
      "type": "event"
    },
    {
      "anonymous": false,
      "inputs": [
        {
          "indexed": true,
          "internalType": "address",
          "name": "peserta",
          "type": "address"
        },
        {
          "indexed": false,
          "internalType": "address",
          "name": "sertifikasiID",
          "type": "address"
        },
        {
          "indexed": false,
          "internalType": "enum SertifikasiStorage.SkemaSertifikasi",
          "name": "skema",
          "type": "uint8"
        },
        {
          "indexed": false,
          "internalType": "uint256",
          "name": "tanggal",
          "type": "uint256"
        }
      ],
      "name": "SertifikasiDiajukan",
      "type": "event"
    },
    {
      "inputs": [
        {
          "internalType": "enum SertifikasiStorage.SkemaSertifikasi",
          "name": "skema",
          "type": "uint8"
        }
      ],
      "name": "ajukanSertifikasi",
      "outputs": [],
      "stateMutability": "nonpayable",
      "type": "function"
    },
    {
      "inputs": [],
      "name": "batalkanSertifikasi",
      "outputs": [],
      "stateMutability": "nonpayable",
      "type": "function"
    },
    {
      "inputs": [],
      "name": "bnsp",
      "outputs": [
        {
          "internalType": "address",
          "name": "",
          "type": "address"
        }
      ],
      "stateMutability": "view",
      "type": "function"
    },
    {
      "inputs": [
        {
          "internalType": "address",
          "name": "peserta",
          "type": "address"
        }
      ],
      "name": "cekStatusPeserta",
      "outputs": [
        {
          "internalType": "bool",
          "name": "terdaftar",
          "type": "bool"
        },
        {
          "internalType": "bool",
          "name": "aktif",
          "type": "bool"
        },
        {
          "internalType": "bool",
          "name": "adaSertifikasiAktif",
          "type": "bool"
        },
        {
          "internalType": "uint256",
          "name": "totalSertifikasi",
          "type": "uint256"
        }
      ],
      "stateMutability": "view",
      "type": "function"
    },
    {
      "inputs": [
        {
          "internalType": "string",
          "name": "metadataCID",
          "type": "string"
        }
      ],
      "name": "daftarLSP",
      "outputs": [],
      "stateMutability": "nonpayable",
      "type": "function"
    },
    {
      "inputs": [
        {
          "internalType": "string",
          "name": "metadataCID",
          "type": "string"
        }
      ],
      "name": "daftarPeserta",
      "outputs": [],
      "stateMutability": "nonpayable",
      "type": "function"
    },
    {
      "inputs": [
        {
          "internalType": "address",
          "name": "sertifikasiID",
          "type": "address"
        }
      ],
      "name": "getDetailSertifikasi",
      "outputs": [
        {
          "components": [
            {
              "internalType": "address",
              "name": "peserta",
              "type": "address"
            },
            {
              "internalType": "enum SertifikasiStorage.SkemaSertifikasi",
              "name": "skema",
              "type": "uint8"
            },
            {
              "internalType": "string",
              "name": "sertifikatCID",
              "type": "string"
            },
            {
              "internalType": "bool",
              "name": "lulus",
              "type": "bool"
            },
            {
              "internalType": "bool",
              "name": "aktif",
              "type": "bool"
            },
            {
              "internalType": "uint256",
              "name": "tanggalPengajuan",
              "type": "uint256"
            },
            {
              "internalType": "uint256",
              "name": "tanggalSelesai",
              "type": "uint256"
            },
            {
              "internalType": "uint256",
              "name": "tanggalExpiry",
              "type": "uint256"
            },
            {
              "internalType": "address",
              "name": "lspPenilai",
              "type": "address"
            },
            {
              "internalType": "string",
              "name": "alasanGagal",
              "type": "string"
            }
          ],
          "internalType": "struct SertifikasiStorage.Sertifikasi",
          "name": "",
          "type": "tuple"
        }
      ],
      "stateMutability": "view",
      "type": "function"
    },
    {
      "inputs": [
        {
          "internalType": "address",
          "name": "lspAddress",
          "type": "address"
        }
      ],
      "name": "getLSP",
      "outputs": [
        {
          "internalType": "string",
          "name": "metadataCID",
          "type": "string"
        },
        {
          "internalType": "enum RegistrasiLSP.StatusLSP",
          "name": "status",
          "type": "uint8"
        },
        {
          "internalType": "string",
          "name": "suratIzinCID",
          "type": "string"
        },
        {
          "internalType": "string",
          "name": "alasanTolak",
          "type": "string"
        }
      ],
      "stateMutability": "view",
      "type": "function"
    },
    {
      "inputs": [
        {
          "internalType": "address",
          "name": "peserta",
          "type": "address"
        }
      ],
      "name": "getMetadataCID",
      "outputs": [
        {
          "internalType": "string",
          "name": "",
          "type": "string"
        }
      ],
      "stateMutability": "view",
      "type": "function"
    },
    {
      "inputs": [
        {
          "internalType": "address",
          "name": "peserta",
          "type": "address"
        }
      ],
      "name": "getPesertaInfo",
      "outputs": [
        {
          "internalType": "string",
          "name": "metadataCID",
          "type": "string"
        },
        {
          "internalType": "bool",
          "name": "terdaftar",
          "type": "bool"
        },
        {
          "internalType": "bool",
          "name": "aktif",
          "type": "bool"
        },
        {
          "internalType": "address",
          "name": "sertifikasiAktif",
          "type": "address"
        },
        {
          "internalType": "uint256",
          "name": "tanggalDaftar",
          "type": "uint256"
        },
        {
          "internalType": "uint256",
          "name": "totalSertifikasi",
          "type": "uint256"
        }
      ],
      "stateMutability": "view",
      "type": "function"
    },
    {
      "inputs": [
        {
          "internalType": "address",
          "name": "peserta",
          "type": "address"
        }
      ],
      "name": "getPesertaMetadata",
      "outputs": [
        {
          "internalType": "string",
          "name": "cid",
          "type": "string"
        }
      ],
      "stateMutability": "view",
      "type": "function"
    },
    {
      "inputs": [
        {
          "internalType": "address",
          "name": "sertifikasiID",
          "type": "address"
        }
      ],
      "name": "getSertifikasi",
      "outputs": [
        {
          "components": [
            {
              "internalType": "address",
              "name": "peserta",
              "type": "address"
            },
            {
              "internalType": "enum SertifikasiStorage.SkemaSertifikasi",
              "name": "skema",
              "type": "uint8"
            },
            {
              "internalType": "string",
              "name": "sertifikatCID",
              "type": "string"
            },
            {
              "internalType": "bool",
              "name": "lulus",
              "type": "bool"
            },
            {
              "internalType": "bool",
              "name": "aktif",
              "type": "bool"
            },
            {
              "internalType": "uint256",
              "name": "tanggalPengajuan",
              "type": "uint256"
            },
            {
              "internalType": "uint256",
              "name": "tanggalSelesai",
              "type": "uint256"
            },
            {
              "internalType": "uint256",
              "name": "tanggalExpiry",
              "type": "uint256"
            },
            {
              "internalType": "address",
              "name": "lspPenilai",
              "type": "address"
            },
            {
              "internalType": "string",
              "name": "alasanGagal",
              "type": "string"
            }
          ],
          "internalType": "struct SertifikasiStorage.Sertifikasi",
          "name": "",
          "type": "tuple"
        }
      ],
      "stateMutability": "view",
      "type": "function"
    },
    {
      "inputs": [
        {
          "internalType": "uint256",
          "name": "id",
          "type": "uint256"
        }
      ],
      "name": "getSertifikasiAddressById",
      "outputs": [
        {
          "internalType": "address",
          "name": "",
          "type": "address"
        }
      ],
      "stateMutability": "view",
      "type": "function"
    },
    {
      "inputs": [
        {
          "internalType": "address",
          "name": "sertifikasiID",
          "type": "address"
        }
      ],
      "name": "getSertifikasiDetail",
      "outputs": [
        {
          "internalType": "address",
          "name": "peserta",
          "type": "address"
        },
        {
          "internalType": "enum SertifikasiStorage.SkemaSertifikasi",
          "name": "skema",
          "type": "uint8"
        },
        {
          "internalType": "string",
          "name": "sertifikatCID",
          "type": "string"
        },
        {
          "internalType": "bool",
          "name": "lulus",
          "type": "bool"
        },
        {
          "internalType": "bool",
          "name": "aktif",
          "type": "bool"
        },
        {
          "internalType": "uint256",
          "name": "tanggalPengajuan",
          "type": "uint256"
        },
        {
          "internalType": "uint256",
          "name": "tanggalSelesai",
          "type": "uint256"
        },
        {
          "internalType": "address",
          "name": "lspPenilai",
          "type": "address"
        },
        {
          "internalType": "string",
          "name": "alasanGagal",
          "type": "string"
        }
      ],
      "stateMutability": "view",
      "type": "function"
    },
    {
      "inputs": [
        {
          "internalType": "address",
          "name": "sertifikasiID",
          "type": "address"
        }
      ],
      "name": "getSertifikatCID",
      "outputs": [
        {
          "internalType": "string",
          "name": "cid",
          "type": "string"
        }
      ],
      "stateMutability": "view",
      "type": "function"
    },
    {
      "inputs": [
        {
          "internalType": "enum SertifikasiStorage.SkemaSertifikasi",
          "name": "skema",
          "type": "uint8"
        }
      ],
      "name": "getSkemaNama",
      "outputs": [
        {
          "internalType": "string",
          "name": "",
          "type": "string"
        }
      ],
      "stateMutability": "pure",
      "type": "function"
    },
    {
      "inputs": [
        {
          "internalType": "address",
          "name": "lspAddress",
          "type": "address"
        }
      ],
      "name": "getStatusLSP",
      "outputs": [
        {
          "internalType": "int8",
          "name": "",
          "type": "int8"
        }
      ],
      "stateMutability": "view",
      "type": "function"
    },
    {
      "inputs": [],
      "name": "getTotalSertifikasi",
      "outputs": [
        {
          "internalType": "uint256",
          "name": "",
          "type": "uint256"
        }
      ],
      "stateMutability": "view",
      "type": "function"
    },
    {
      "inputs": [
        {
          "internalType": "address",
          "name": "lspAddress",
          "type": "address"
        }
      ],
      "name": "hapusLSP",
      "outputs": [],
      "stateMutability": "nonpayable",
      "type": "function"
    },
    {
      "inputs": [
        {
          "internalType": "address",
          "name": "",
          "type": "address"
        }
      ],
      "name": "isLSP",
      "outputs": [
        {
          "internalType": "bool",
          "name": "",
          "type": "bool"
        }
      ],
      "stateMutability": "view",
      "type": "function"
    },
    {
      "inputs": [
        {
          "internalType": "address",
          "name": "",
          "type": "address"
        }
      ],
      "name": "isLSPTerdaftar",
      "outputs": [
        {
          "internalType": "bool",
          "name": "",
          "type": "bool"
        }
      ],
      "stateMutability": "view",
      "type": "function"
    },
    {
      "inputs": [
        {
          "internalType": "address",
          "name": "",
          "type": "address"
        }
      ],
      "name": "isPesertaTerdaftar",
      "outputs": [
        {
          "internalType": "bool",
          "name": "",
          "type": "bool"
        }
      ],
      "stateMutability": "view",
      "type": "function"
    },
    {
      "inputs": [
        {
          "internalType": "address",
          "name": "peserta",
          "type": "address"
        }
      ],
      "name": "lihatRiwayatSertifikasi",
      "outputs": [
        {
          "internalType": "address[]",
          "name": "",
          "type": "address[]"
        }
      ],
      "stateMutability": "view",
      "type": "function"
    },
    {
      "inputs": [
        {
          "internalType": "address",
          "name": "",
          "type": "address"
        }
      ],
      "name": "lspList",
      "outputs": [
        {
          "internalType": "string",
          "name": "metadataCID",
          "type": "string"
        },
        {
          "internalType": "enum RegistrasiLSP.StatusLSP",
          "name": "status",
          "type": "uint8"
        },
        {
          "internalType": "string",
          "name": "suratIzinCID",
          "type": "string"
        },
        {
          "internalType": "string",
          "name": "alasanTolak",
          "type": "string"
        }
      ],
      "stateMutability": "view",
      "type": "function"
    },
    {
      "inputs": [
        {
          "internalType": "address",
          "name": "peserta",
          "type": "address"
        }
      ],
      "name": "nonaktifkanPeserta",
      "outputs": [],
      "stateMutability": "nonpayable",
      "type": "function"
    },
    {
      "inputs": [],
      "name": "pesertaCount",
      "outputs": [
        {
          "internalType": "uint256",
          "name": "",
          "type": "uint256"
        }
      ],
      "stateMutability": "view",
      "type": "function"
    },
    {
      "inputs": [
        {
          "internalType": "address",
          "name": "",
          "type": "address"
        }
      ],
      "name": "pesertaList",
      "outputs": [
        {
          "internalType": "string",
          "name": "metadataCID",
          "type": "string"
        },
        {
          "internalType": "bool",
          "name": "terdaftar",
          "type": "bool"
        },
        {
          "internalType": "bool",
          "name": "aktif",
          "type": "bool"
        },
        {
          "internalType": "address",
          "name": "sertifikasiAktif",
          "type": "address"
        },
        {
          "internalType": "uint256",
          "name": "tanggalDaftar",
          "type": "uint256"
        }
      ],
      "stateMutability": "view",
      "type": "function"
    },
    {
      "inputs": [
        {
          "internalType": "uint256",
          "name": "",
          "type": "uint256"
        }
      ],
      "name": "sertifikasiById",
      "outputs": [
        {
          "internalType": "address",
          "name": "",
          "type": "address"
        }
      ],
      "stateMutability": "view",
      "type": "function"
    },
    {
      "inputs": [
        {
          "internalType": "address",
          "name": "",
          "type": "address"
        }
      ],
      "name": "sertifikasiList",
      "outputs": [
        {
          "internalType": "address",
          "name": "peserta",
          "type": "address"
        },
        {
          "internalType": "enum SertifikasiStorage.SkemaSertifikasi",
          "name": "skema",
          "type": "uint8"
        },
        {
          "internalType": "string",
          "name": "sertifikatCID",
          "type": "string"
        },
        {
          "internalType": "bool",
          "name": "lulus",
          "type": "bool"
        },
        {
          "internalType": "bool",
          "name": "aktif",
          "type": "bool"
        },
        {
          "internalType": "uint256",
          "name": "tanggalPengajuan",
          "type": "uint256"
        },
        {
          "internalType": "uint256",
          "name": "tanggalSelesai",
          "type": "uint256"
        },
        {
          "internalType": "uint256",
          "name": "tanggalExpiry",
          "type": "uint256"
        },
        {
          "internalType": "address",
          "name": "lspPenilai",
          "type": "address"
        },
        {
          "internalType": "string",
          "name": "alasanGagal",
          "type": "string"
        }
      ],
      "stateMutability": "view",
      "type": "function"
    },
    {
      "inputs": [
        {
          "internalType": "address",
          "name": "lspAddress",
          "type": "address"
        },
        {
          "internalType": "string",
          "name": "alasan",
          "type": "string"
        }
      ],
      "name": "tolakLSP",
      "outputs": [],
      "stateMutability": "nonpayable",
      "type": "function"
    },
    {
      "inputs": [
        {
          "internalType": "address",
          "name": "sertifikasiID",
          "type": "address"
        },
        {
          "internalType": "string",
          "name": "alasan",
          "type": "string"
        }
      ],
      "name": "updateKegagalan",
      "outputs": [],
      "stateMutability": "nonpayable",
      "type": "function"
    },
    {
      "inputs": [
        {
          "internalType": "address",
          "name": "sertifikasiID",
          "type": "address"
        },
        {
          "internalType": "string",
          "name": "sertifikatCID",
          "type": "string"
        }
      ],
      "name": "updateKelulusan",
      "outputs": [],
      "stateMutability": "nonpayable",
      "type": "function"
    },
    {
      "inputs": [
        {
          "internalType": "string",
          "name": "newCID",
          "type": "string"
        }
      ],
      "name": "updateMetadata",
      "outputs": [],
      "stateMutability": "nonpayable",
      "type": "function"
    },
    {
      "inputs": [
        {
          "internalType": "string",
          "name": "newMetadataCID",
          "type": "string"
        }
      ],
      "name": "updateMetadataLSP",
      "outputs": [],
      "stateMutability": "nonpayable",
      "type": "function"
    },
    {
      "inputs": [
        {
          "internalType": "address",
          "name": "sertifikasiID",
          "type": "address"
        }
      ],
      "name": "verifikasiKelulusan",
      "outputs": [
        {
          "internalType": "bool",
          "name": "valid",
          "type": "bool"
        }
      ],
      "stateMutability": "view",
      "type": "function"
    },
    {
      "inputs": [
        {
          "internalType": "address",
          "name": "lspAddress",
          "type": "address"
        },
        {
          "internalType": "string",
          "name": "suratIzinCID",
          "type": "string"
        }
      ],
      "name": "verifikasiLSP",
      "outputs": [],
      "stateMutability": "nonpayable",
      "type": "function"
    },
    {
      "inputs": [
        {
          "internalType": "address",
          "name": "sertifikasiID",
          "type": "address"
        }
      ],
      "name": "verifikasiSertifikasiLengkap",
      "outputs": [
        {
          "internalType": "bool",
          "name": "exists",
          "type": "bool"
        },
        {
          "internalType": "bool",
          "name": "lulus",
          "type": "bool"
        },
        {
          "internalType": "bool",
          "name": "aktif",
          "type": "bool"
        },
        {
          "internalType": "address",
          "name": "peserta",
          "type": "address"
        },
        {
          "internalType": "enum SertifikasiStorage.SkemaSertifikasi",
          "name": "skema",
          "type": "uint8"
        },
        {
          "internalType": "string",
          "name": "sertifikatCID",
          "type": "string"
        },
        {
          "internalType": "uint256",
          "name": "tanggalSelesai",
          "type": "uint256"
        },
        {
          "internalType": "address",
          "name": "lspPenilai",
          "type": "address"
        }
      ],
      "stateMutability": "view",
      "type": "function"
    }
  ],
  "bytecode": "0x6080604052348015600f57600080fd5b50600080546001600160a01b03191633179055613dba806100316000396000f3fe608060405234801561001057600080fd5b50600436106102265760003560e01c80636e75758e11610130578063afaf49ea116100b8578063e06445321161007c578063e064453214610570578063e216eaeb14610596578063e8acac99146105a9578063f2416e3e146105bc578063f81ce2d2146105c457600080fd5b8063afaf49ea146104fa578063c73c6005146103e9578063cb5fb9a01461050d578063d39cd69e14610534578063d75f27ac1461055d57600080fd5b8063918b5be1116100ff578063918b5be1146104ae5780639653d19e146104c15780639e2ed884146104d4578063a35fcfe5146104e7578063a3d9914f1461025d57600080fd5b80636e75758e14610452578063732a6f32146104655780637433efb4146104785780638d70327f1461048b57600080fd5b8063333eb2d9116101b35780635cf6de2b116101825780635cf6de2b146103be5780635dc49397146103e95780635e58b527146104095780635eb5e4e71461042c5780636df8a5a61461043f57600080fd5b8063333eb2d9146103425780633af61c21146103555780633ced72f9146103885780634021e5cf1461039b57600080fd5b806314851c8a116101fa57806314851c8a146102b957806316467b60146102d957806316c89ca0146102ee57806316efcaac14610316578063282ef0211461033a57600080fd5b8062ee260b1461022b5780630b5a9a7e1461025d5780630e0473e51461027d5780631017604f14610294575b600080fd5b61023e61023936600461334f565b6105ff565b6040516102549a999897969594939291906133da565b60405180910390f35b61027061026b36600461334f565b610783565b6040516102549190613464565b61028660065481565b604051908152602001610254565b6102a76102a236600461334f565b6109f6565b60405161025496959493929190613534565b6102cc6102c736600461334f565b610b9b565b6040516102549190613579565b6102ec6102e736600461360e565b610c14565b005b6103016102fc36600461334f565b610e1a565b60405161025499989796959493929190613661565b61032961032436600461334f565b611093565b6040516102549594939291906136e2565b6102ec61115c565b6102ec61035036600461334f565b61137a565b61037861036336600461334f565b600a6020526000908152604090205460ff1681565b6040519015158152602001610254565b6102ec61039636600461360e565b611558565b6103786103a936600461334f565b60046020526000908152604090205460ff1681565b6000546103d1906001600160a01b031681565b6040516001600160a01b039091168152602001610254565b6103fc6103f736600461334f565b6116f8565b6040516102549190613722565b61037861041736600461334f565b60016020526000908152604090205460ff1681565b6102ec61043a366004613735565b6117fe565b6102ec61044d36600461360e565b611bad565b6103d1610460366004613756565b611db8565b6102ec61047336600461360e565b611e25565b61037861048636600461334f565b611fc6565b61049e61049936600461334f565b6121e9565b604051610254949392919061376f565b6102ec6104bc3660046137c9565b6123d3565b61049e6104cf36600461334f565b6124e2565b6102ec6104e23660046137c9565b6126ab565b6102ec6104f53660046137c9565b6127c2565b6102ec6105083660046137c9565b612a93565b61052061051b36600461334f565b612cd7565b60405161025498979695949392919061380b565b6103d1610542366004613756565b6008602052600090815260409020546001600160a01b031681565b6102ec61056b36600461334f565b612f4b565b61058361057e36600461334f565b612f96565b60405160009190910b8152602001610254565b6103fc6105a436600461334f565b612fef565b6103fc6105b7366004613735565b61304f565b600754610286565b6105d76105d236600461334f565b61311d565b6040805194151585529215156020850152901515918301919091526060820152608001610254565b600360205260009081526040902080546001820180546001600160a01b03831693600160a01b90930460ff1692919061063790613879565b80601f016020809104026020016040519081016040528092919081815260200182805461066390613879565b80156106b05780601f10610685576101008083540402835291602001916106b0565b820191906000526020600020905b81548152906001019060200180831161069357829003601f168201915b5050505060028301546003840154600485015460058601546006870154600788018054979860ff808816996101009098041697509495939492936001600160a01b03909216929161070090613879565b80601f016020809104026020016040519081016040528092919081815260200182805461072c90613879565b80156107795780601f1061074e57610100808354040283529160200191610779565b820191906000526020600020905b81548152906001019060200180831161075c57829003601f168201915b505050505090508a565b604080516101408101825260008082526020820181905260609282018390528282018190526080820181905260a0820181905260c0820181905260e082018190526101008201526101208101919091526001600160a01b03828116600090815260036020526040902054166108135760405162461bcd60e51b815260040161080a906138b3565b60405180910390fd5b6001600160a01b038281166000908152600360208181526040928390208351610140810190945280549485168452929390840191600160a01b90910460ff16908111156108625761086261336a565b60038111156108735761087361336a565b815260200160018201805461088790613879565b80601f01602080910402602001604051908101604052809291908181526020018280546108b390613879565b80156109005780601f106108d557610100808354040283529160200191610900565b820191906000526020600020905b8154815290600101906020018083116108e357829003601f168201915b5050509183525050600282015460ff8082161515602084015261010090910416151560408201526003820154606082015260048201546080820152600582015460a082015260068201546001600160a01b031660c082015260078201805460e09092019161096d90613879565b80601f016020809104026020016040519081016040528092919081815260200182805461099990613879565b80156109e65780601f106109bb576101008083540402835291602001916109e6565b820191906000526020600020905b8154815290600101906020018083116109c957829003601f168201915b5050505050815250509050919050565b606060008060008060008060026000896001600160a01b03166001600160a01b031681526020019081526020016000206040518060c0016040529081600082018054610a4190613879565b80601f0160208091040260200160405190810160405280929190818152602001828054610a6d90613879565b8015610aba5780601f10610a8f57610100808354040283529160200191610aba565b820191906000526020600020905b815481529060010190602001808311610a9d57829003601f168201915b5050509183525050600182015460ff808216151560208085019190915261010083049091161515604080850191909152620100009092046001600160a01b031660608401526002840180548351818402810184019094528084526080909401939091830182828015610b5557602002820191906000526020600020905b81546001600160a01b03168152600190910190602001808311610b37575b5050509183525050600391909101546020918201528151908201516040830151606084015160a085015160809095015151939d929c50909a509850919650945092505050565b6001600160a01b038116600090815260026020818152604092839020909101805483518184028101840190945280845260609392830182828015610c0857602002820191906000526020600020905b81546001600160a01b03168152600190910190602001808311610bea575b50505050509050919050565b3360009081526001602052604090205460ff16610c5f5760405162461bcd60e51b8152602060048201526009602482015268048616e7961204c53560bc1b604482015260640161080a565b826001600160a01b038116610c865760405162461bcd60e51b815260040161080a906138ea565b82828080601f0160208091040260200160405190810160405280939291908181526020018383808284376000920182905250845190039250610cdd9150505760405162461bcd60e51b815260040161080a90613916565b6001600160a01b03851660009081526003602052604090206002810154610100900460ff16610d485760405162461bcd60e51b815260206004820152601760248201527629b2b93a34b334b5b0b9b4903a34b230b59030b5ba34b360491b604482015260640161080a565b80546001600160a01b0316610d6f5760405162461bcd60e51b815260040161080a906138b3565b60028101805461ffff191690554260048201556006810180546001600160a01b0319163317905560078101610da58587836139b2565b5080546001600160a01b031660009081526002602052604090819020600101805462010000600160b01b03191690555133907f7176ae479d15b28ef81160f7cb60a461e03d280ed14952ffe689854e31aede6490610e0a908990899089904290613a9b565b60405180910390a2505050505050565b6001600160a01b038181166000908152600360205260408120549091829160609183918291829182918291879116610e645760405162461bcd60e51b815260040161080a906138b3565b6001600160a01b038a811660009081526003602081815260408084208151610140810190925280549586168252939490939291840191600160a01b90910460ff1690811115610eb557610eb561336a565b6003811115610ec657610ec661336a565b8152602001600182018054610eda90613879565b80601f0160208091040260200160405190810160405280929190818152602001828054610f0690613879565b8015610f535780601f10610f2857610100808354040283529160200191610f53565b820191906000526020600020905b815481529060010190602001808311610f3657829003601f168201915b5050509183525050600282015460ff8082161515602084015261010090910416151560408201526003820154606082015260048201546080820152600582015460a082015260068201546001600160a01b031660c082015260078201805460e090920191610fc090613879565b80601f0160208091040260200160405190810160405280929190818152602001828054610fec90613879565b80156110395780601f1061100e57610100808354040283529160200191611039565b820191906000526020600020905b81548152906001019060200180831161101c57829003601f168201915b5050505050815250509050806000015181602001518260400151836060015184608001518560a001518660c00151876101000151886101200151995099509950995099509950995099509950509193959799909294969850565b6002602052600090815260409020805481906110ae90613879565b80601f01602080910402602001604051908101604052809291908181526020018280546110da90613879565b80156111275780601f106110fc57610100808354040283529160200191611127565b820191906000526020600020905b81548152906001019060200180831161110a57829003601f168201915b505050506001830154600390930154919260ff8082169361010083049091169250620100009091046001600160a01b03169085565b3360009081526002602052604090206001015460ff168015611195575033600090815260026020526040902060010154610100900460ff165b6111b15760405162461bcd60e51b815260040161080a90613ad1565b336000908152600260205260409020600101546201000090046001600160a01b0316806112205760405162461bcd60e51b815260206004820152601b60248201527f546964616b2061646120736572746966696b61736920616b7469660000000000604482015260640161080a565b6001600160a01b03811660009081526003602052604090206002810154610100900460ff166112915760405162461bcd60e51b815260206004820152601d60248201527f536572746966696b61736920737564616820746964616b20616b746966000000604482015260640161080a565b60028101805461ff00191690554260048201556040805180820190915260178152764469626174616c6b616e206f6c6568207065736572746160481b602082015260078201906112e19082613afe565b50336000908152600260209081526040808320600101805462010000600160b01b031916905580516001600160a01b03861681526060928101839052601792810192909252764469626174616c6b616e206f6c6568207065736572746160481b60808301524282820152517f7176ae479d15b28ef81160f7cb60a461e03d280ed14952ffe689854e31aede649181900360a00190a25050565b6000546001600160a01b031633146113a45760405162461bcd60e51b815260040161080a90613bbd565b806001600160a01b0381166113cb5760405162461bcd60e51b815260040161080a906138ea565b6001600160a01b03821660009081526002602052604090206001015460ff166114305760405162461bcd60e51b81526020600482015260176024820152762832b9b2b93a30903a34b230b5903a32b93230b33a30b960491b604482015260640161080a565b6001600160a01b038216600090815260026020526040902060010154610100900460ff166114995760405162461bcd60e51b81526020600482015260166024820152752832b9b2b93a309039bab230b4103737b730b5ba34b360511b604482015260640161080a565b6001600160a01b038083166000908152600260205260409020600101805461ff001916908190556201000090041615611520576001600160a01b038083166000818152600260208181526040808420600101805462010000900490961684526003825283208201805461ff0019169055929091529052805462010000600160b01b03191690555b6040516001600160a01b038316907f8194e6e1f0c13cde85898f77a21e77a9a474e25719e7ddc4b59857d9a5a2a31d90600090a25050565b6000546001600160a01b031633146115825760405162461bcd60e51b815260040161080a90613bbd565b826001600160a01b0381166115a95760405162461bcd60e51b815260040161080a906138ea565b82828080601f01602080910402602001604051908101604052809392919081815260200183838082843760009201829052508451900392506116009150505760405162461bcd60e51b815260040161080a90613916565b6001600160a01b038516600090815260096020526040812090600182015460ff1660028111156116325761163261336a565b1461167f5760405162461bcd60e51b815260206004820152601f60248201527f4c535020746964616b2064616c616d20737461747573206d656e756e67677500604482015260640161080a565b60018101805460ff191660021790556003810161169d8587836139b2565b5060408051602081019091526000815260028201906116bc9082613afe565b50856001600160a01b03167f6214efe84e589b41714ba0c9ee2bb9bde0eb09b641a218032b5f7ad0e7ee777d8686604051610e0a929190613be1565b6001600160a01b03811660009081526002602052604090206001015460609060ff166117605760405162461bcd60e51b81526020600482015260176024820152762832b9b2b93a30903a34b230b5903a32b93230b33a30b960491b604482015260640161080a565b6001600160a01b0382166000908152600260205260409020805461178390613879565b80601f01602080910402602001604051908101604052809291908181526020018280546117af90613879565b8015610c085780601f106117d157610100808354040283529160200191610c08565b820191906000526020600020905b8154815290600101906020018083116117df5750939695505050505050565b3360009081526002602052604090206001015460ff168015611837575033600090815260026020526040902060010154610100900460ff165b6118535760405162461bcd60e51b815260040161080a90613ad1565b33600090815260026020526040902060018101546201000090046001600160a01b0316156118c35760405162461bcd60e51b815260206004820152601b60248201527f4d617369682061646120736572746966696b61736920616b7469660000000000604482015260640161080a565b600780549060006118d383613c13565b90915550506007543360008181526005602052604081208054919284929091429190856118ff83613c13565b909155506040805160a060208201819052600c60c08301526b534552544946494b4153495f60a01b60e0830152918101959095526001600160a01b0390931660608501526080840191909152908201526101000160408051808303601f19018152828252805160209182012060008681526008835283902080546001600160a01b0319166001600160a01b038316179055610140840190925233835290925081018560038111156119b2576119b261336a565b815260200160405180602001604052806000815250815260200160001515815260200160011515815260200142815260200160008152602001426305a39a806119fb9190613c2c565b815260006020808301829052604080518083018252838152938101939093526001600160a01b0385811683526003808352939092208451815493166001600160a01b0319841681178255918501519093909284926001600160a81b03199091161790600160a01b908490811115611a7457611a7461336a565b021790555060408201516001820190611a8d9082613afe565b506060820151600282018054608085015161ffff1990911692151561ff00191692909217610100921515830217905560a0830151600383015560c0830151600483015560e083015160058301558201516006820180546001600160a01b0319166001600160a01b039092169190911790556101208201516007820190611b139082613afe565b5050506001838101805462010000600160b01b031916620100006001600160a01b03851690810291909117909155600285018054928301815560009081526020902090910180546001600160a01b031916909117905560405133907f3ac6af73e630a22fd1e8f791a2b123684b5551df2f5f617948313d0df595a37290611b9f90849088904290613c45565b60405180910390a250505050565b3360009081526001602052604090205460ff16611bf85760405162461bcd60e51b8152602060048201526009602482015268048616e7961204c53560bc1b604482015260640161080a565b826001600160a01b038116611c1f5760405162461bcd60e51b815260040161080a906138ea565b82828080601f0160208091040260200160405190810160405280939291908181526020018383808284376000920182905250845190039250611c769150505760405162461bcd60e51b815260040161080a90613916565b6001600160a01b03851660009081526003602052604090206002810154610100900460ff16611ce15760405162461bcd60e51b815260206004820152601760248201527629b2b93a34b334b5b0b9b4903a34b230b59030b5ba34b360491b604482015260640161080a565b80546001600160a01b0316611d085760405162461bcd60e51b815260040161080a906138b3565b60028101805460ff191660019081179091558101611d278587836139b2565b506002808201805461ff001916905542600483018190556006830180546001600160a01b0319163390811790915583546001600160a01b03166000908152602093909352604092839020600101805462010000600160b01b031916905591517fad88f87555b407755a665f13e36f4952e39e6ee937b6c0adb7896b91d47bb8e391610e0a918a918a918a9190613a9b565b60006007548211158015611dcc5750600082115b611e095760405162461bcd60e51b815260206004820152600e60248201526d1251081d1a59185ac81d985b1a5960921b604482015260640161080a565b506000908152600860205260409020546001600160a01b031690565b6000546001600160a01b03163314611e4f5760405162461bcd60e51b815260040161080a90613bbd565b826001600160a01b038116611e765760405162461bcd60e51b815260040161080a906138ea565b82828080601f0160208091040260200160405190810160405280939291908181526020018383808284376000920182905250845190039250611ecd9150505760405162461bcd60e51b815260040161080a90613916565b6001600160a01b038516600090815260096020526040812090600182015460ff166002811115611eff57611eff61336a565b14611f4c5760405162461bcd60e51b815260206004820152601f60248201527f4c535020746964616b2064616c616d20737461747573206d656e756e67677500604482015260640161080a565b6001818101805460ff1916909117905560028101611f6b8587836139b2565b506040805160208101909152600081526003820190611f8a9082613afe565b50856001600160a01b03167fa2afc48ad450df786fc5287f1e8dea74f2f5e8252d2aac21bb732fb36e83f9468686604051610e0a929190613be1565b6001600160a01b03818116600090815260036020526040812054909116611fef57506000919050565b6001600160a01b0382811660009081526003602081815260408084208151610140810190925280549586168252939490939291840191600160a01b90910460ff16908111156120405761204061336a565b60038111156120515761205161336a565b815260200160018201805461206590613879565b80601f016020809104026020016040519081016040528092919081815260200182805461209190613879565b80156120de5780601f106120b3576101008083540402835291602001916120de565b820191906000526020600020905b8154815290600101906020018083116120c157829003601f168201915b5050509183525050600282015460ff8082161515602084015261010090910416151560408201526003820154606082015260048201546080820152600582015460a082015260068201546001600160a01b031660c082015260078201805460e09092019161214b90613879565b80601f016020809104026020016040519081016040528092919081815260200182805461217790613879565b80156121c45780601f10612199576101008083540402835291602001916121c4565b820191906000526020600020905b8154815290600101906020018083116121a757829003601f168201915b5050505050815250509050806060015180156121e257508060800151155b9392505050565b6001600160a01b0381166000908152600960205260408120600181015481546060939284928392829160ff169060028301906003840190849061222b90613879565b80601f016020809104026020016040519081016040528092919081815260200182805461225790613879565b80156122a45780601f10612279576101008083540402835291602001916122a4565b820191906000526020600020905b81548152906001019060200180831161228757829003601f168201915b505050505093508180546122b790613879565b80601f01602080910402602001604051908101604052809291908181526020018280546122e390613879565b80156123305780601f1061230557610100808354040283529160200191612330565b820191906000526020600020905b81548152906001019060200180831161231357829003601f168201915b5050505050915080805461234390613879565b80601f016020809104026020016040519081016040528092919081815260200182805461236f90613879565b80156123bc5780601f10612391576101008083540402835291602001916123bc565b820191906000526020600020905b81548152906001019060200180831161239f57829003601f168201915b505050505090509450945094509450509193509193565b3360009081526002602052604090206001015460ff16801561240c575033600090815260026020526040902060010154610100900460ff165b6124285760405162461bcd60e51b815260040161080a90613ad1565b81818080601f016020809104026020016040519081016040528093929190818152602001838380828437600092018290525084519003925061247f9150505760405162461bcd60e51b815260040161080a90613916565b3360009081526002602052604090206124998385836139b2565b50336001600160a01b03167fbfc8ffd6fbbc13c20f5b640faea3048bcbf648d1ed4ab5a142eb81a4d5c11eca84846040516124d5929190613be1565b60405180910390a2505050565b6009602052600090815260409020805481906124fd90613879565b80601f016020809104026020016040519081016040528092919081815260200182805461252990613879565b80156125765780601f1061254b57610100808354040283529160200191612576565b820191906000526020600020905b81548152906001019060200180831161255957829003601f168201915b5050506001840154600285018054949560ff90921694919350915061259a90613879565b80601f01602080910402602001604051908101604052809291908181526020018280546125c690613879565b80156126135780601f106125e857610100808354040283529160200191612613565b820191906000526020600020905b8154815290600101906020018083116125f657829003601f168201915b50505050509080600301805461262890613879565b80601f016020809104026020016040519081016040528092919081815260200182805461265490613879565b80156126a15780601f10612676576101008083540402835291602001916126a1565b820191906000526020600020905b81548152906001019060200180831161268457829003601f168201915b5050505050905084565b81818080601f01602080910402602001604051908101604052809392919081815260200183838082843760009201829052508451900392506127029150505760405162461bcd60e51b815260040161080a90613916565b3360009081526009602052604081206001015460ff1660028111156127295761272961336a565b0361276c5760405162461bcd60e51b81526020600482015260136024820152722132b63ab6903832b93730b4103230b33a30b960691b604482015260640161080a565b3360009081526009602052604090206127868385836139b2565b50336001600160a01b03167f888338719acbecc4ba224509d272f9176d7b20628c353787dd9b2a1cdcd33f6384846040516124d5929190613be1565b81818080601f01602080910402602001604051908101604052809392919081815260200183838082843760009201829052508451900392506128199150505760405162461bcd60e51b815260040161080a90613916565b3360009081526009602052604081206001015460ff1660028111156128405761284061336a565b146128a45760405162461bcd60e51b815260206004820152602e60248201527f5375646168207065726e6168206461667461722061746175207374617475732060448201526d62756b616e204d656e756e67677560901b606482015260840161080a565b33600090815260096020526040902080546128be90613879565b1590506129035760405162461bcd60e51b815260206004820152601360248201527229bab230b4103832b93730b4103230b33a30b960691b604482015260640161080a565b6000546001600160a01b031633036129685760405162461bcd60e51b815260206004820152602260248201527f424e535020746964616b2062697361206461667461722073656261676169204c604482015261053560f41b606482015260840161080a565b604051806080016040528084848080601f0160208091040260200160405190810160405280939291908181526020018383808284376000920182905250938552505050602080830182905260408051808301825283815281850152805180830182528381526060909401939093523382526009905220815181906129ec9082613afe565b50602082015160018083018054909160ff1990911690836002811115612a1457612a1461336a565b021790555060408201516002820190612a2d9082613afe565b5060608201516003820190612a429082613afe565b5050336000818152600a602052604090819020805460ff19166001179055519091507f97aeb5fb194ec62c9d9b39612021999b672308ae532baa9acaef2ddc56c95c4f906124d59086908690613be1565b81818080601f0160208091040260200160405190810160405280939291908181526020018383808284376000920182905250845190039250612aea9150505760405162461bcd60e51b815260040161080a90613916565b3360009081526002602052604090206001015460ff1615612b3f5760405162461bcd60e51b815260206004820152600f60248201526e29bab230b4103a32b93230b33a30b960891b604482015260640161080a565b6040518060c0016040528084848080601f0160208091040260200160405190810160405280939291908181526020018383808284376000920182905250938552505060016020840181905260408401525060608201819052608090910190604051908082528060200260200182016040528015612bc6578160200160208202803683370190505b5081524260209182015233600090815260029091526040902081518190612bed9082613afe565b50602082810151600183018054604086015160608701516001600160a01b0316620100000262010000600160b01b03199115156101000261ff00199515159590951661ffff1990931692909217939093179290921691909117905560808301518051612c5f92600285019201906132be565b5060a09190910151600390910155336000908152600460205260408120805460ff191660011790556006805491612c9583613c13565b9190505550336001600160a01b03167f5c2d1095c6c47db736747eb0de0af919db06bb86af4c022f4da6cd652fde0ea88484426040516124d593929190613c70565b6001600160a01b038181166000908152600360208181526040808420815161014081019092528054958616825293948594859485948594606094869485948594919291840191600160a01b900460ff1690811115612d3757612d3761336a565b6003811115612d4857612d4861336a565b8152602001600182018054612d5c90613879565b80601f0160208091040260200160405190810160405280929190818152602001828054612d8890613879565b8015612dd55780601f10612daa57610100808354040283529160200191612dd5565b820191906000526020600020905b815481529060010190602001808311612db857829003601f168201915b5050509183525050600282015460ff8082161515602084015261010090910416151560408201526003820154606082015260048201546080820152600582015460a082015260068201546001600160a01b031660c082015260078201805460e090920191612e4290613879565b80601f0160208091040260200160405190810160405280929190818152602001828054612e6e90613879565b8015612ebb5780601f10612e9057610100808354040283529160200191612ebb565b820191906000526020600020905b815481529060010190602001808311612e9e57829003601f168201915b50505091909252505081516001600160a01b031615159a50909150899050612f08575050604080516020810190915260008082529750879650869550859450849350915082905080612f40565b6001816060015182608001518360000151846020015185604001518660c0015187610100015198509850985098509850985098509850505b919395975091939597565b6000546001600160a01b03163314612f755760405162461bcd60e51b815260040161080a90613bbd565b6001600160a01b03166000908152600a60205260409020805460ff19169055565b6001600160a01b0381166000908152600a602052604081205460ff16612fbf5750600019919050565b6001600160a01b03821660009081526009602052604081206001015460ff1660028111156121e2576121e261336a565b6001600160a01b03818116600090815260036020526040902054606091166130295760405162461bcd60e51b815260040161080a906138b3565b6001600160a01b0382166000908152600360205260409020600101805461178390613879565b606060008260038111156130655761306561336a565b03613089576040518060800160405280604c8152602001613cc9604c913992915050565b600182600381111561309d5761309d61336a565b036130c157604051806060016040528060368152602001613d4f6036913992915050565b60028260038111156130d5576130d561336a565b036130f9576040518060600160405280603a8152602001613d15603a913992915050565b604051806060016040528060348152602001613c956034913992915050565b919050565b600080600080600060026000876001600160a01b03166001600160a01b031681526020019081526020016000206040518060c001604052908160008201805461316590613879565b80601f016020809104026020016040519081016040528092919081815260200182805461319190613879565b80156131de5780601f106131b3576101008083540402835291602001916131de565b820191906000526020600020905b8154815290600101906020018083116131c157829003601f168201915b5050509183525050600182015460ff808216151560208085019190915261010083049091161515604080850191909152620100009092046001600160a01b03166060840152600284018054835181840281018401909452808452608090940193909183018282801561327957602002820191906000526020600020905b81546001600160a01b0316815260019091019060200180831161325b575b505050918352505060039190910154602091820152810151604082015160608301516080909301515191999098506001600160a01b0390921615159650945092505050565b828054828255906000526020600020908101928215613313579160200282015b8281111561331357825182546001600160a01b0319166001600160a01b039091161782556020909201916001909101906132de565b5061331f929150613323565b5090565b5b8082111561331f5760008155600101613324565b80356001600160a01b038116811461311857600080fd5b60006020828403121561336157600080fd5b6121e282613338565b634e487b7160e01b600052602160045260246000fd5b600481106133905761339061336a565b9052565b6000815180845260005b818110156133ba5760208185018101518683018201520161339e565b506000602082860101526020601f19601f83011685010191505092915050565b6001600160a01b038b1681526133f3602082018b613380565b6101406040820152600061340b61014083018b613394565b8915156060840152881515608084015260a0830188905260c0830187905260e083018690526001600160a01b0385166101008401528281036101208401526134538185613394565b9d9c50505050505050505050505050565b6020815261347e6020820183516001600160a01b03169052565b600060208301516134926040840182613380565b50604083015161014060608401526134ae610160840182613394565b905060608401516134c3608085018215159052565b50608084015180151560a08501525060a084015160c084015260c084015160e084015260e084015161010084015261010084015161350d6101208501826001600160a01b03169052565b50610120840151838203601f190161014085015261352b8282613394565b95945050505050565b60c08152600061354760c0830189613394565b96151560208301525093151560408501526001600160a01b03929092166060840152608083015260a090910152919050565b602080825282518282018190526000918401906040840190835b818110156135ba5783516001600160a01b0316835260209384019390920191600101613593565b509095945050505050565b60008083601f8401126135d757600080fd5b50813567ffffffffffffffff8111156135ef57600080fd5b60208301915083602082850101111561360757600080fd5b9250929050565b60008060006040848603121561362357600080fd5b61362c84613338565b9250602084013567ffffffffffffffff81111561364857600080fd5b613654868287016135c5565b9497909650939450505050565b6001600160a01b038a16815261367a602082018a613380565b6101206040820152600061369261012083018a613394565b8815156060840152871515608084015260a0830187905260c083018690526001600160a01b03851660e08401528281036101008401526136d28185613394565b9c9b505050505050505050505050565b60a0815260006136f560a0830188613394565b95151560208301525092151560408401526001600160a01b03919091166060830152608090910152919050565b6020815260006121e26020830184613394565b60006020828403121561374757600080fd5b8135600481106121e257600080fd5b60006020828403121561376857600080fd5b5035919050565b6080815260006137826080830187613394565b600386106137925761379261336a565b85602084015282810360408401526137aa8186613394565b905082810360608401526137be8185613394565b979650505050505050565b600080602083850312156137dc57600080fd5b823567ffffffffffffffff8111156137f357600080fd5b6137ff858286016135c5565b90969095509350505050565b8815158152871515602082015286151560408201526001600160a01b038616606082015261383c6080820186613380565b61010060a08201526000613854610100830186613394565b60c0830194909452506001600160a01b039190911660e0909101529695505050505050565b600181811c9082168061388d57607f821691505b6020821081036138ad57634e487b7160e01b600052602260045260246000fd5b50919050565b6020808252601b908201527f536572746966696b61736920746964616b20646974656d756b616e0000000000604082015260600190565b602080825260129082015271105b185b585d081d1a59185ac81d985b1a5960721b604082015260600190565b60208082526019908201527f537472696e6720746964616b20626f6c6568206b6f736f6e6700000000000000604082015260600190565b634e487b7160e01b600052604160045260246000fd5b601f8211156139ad57806000526020600020601f840160051c8101602085101561398a5750805b601f840160051c820191505b818110156139aa5760008155600101613996565b50505b505050565b67ffffffffffffffff8311156139ca576139ca61394d565b6139de836139d88354613879565b83613963565b6000601f841160018114613a1257600085156139fa5750838201355b600019600387901b1c1916600186901b1783556139aa565b600083815260209020601f19861690835b82811015613a435786850135825560209485019460019092019101613a23565b5086821015613a605760001960f88860031b161c19848701351681555b505060018560011b0183555050505050565b81835281816020850137506000828201602090810191909152601f909101601f19169091010190565b6001600160a01b0385168152606060208201819052600090613ac09083018587613a72565b905082604083015295945050505050565b6020808252601390820152722430b73cb0903832b9b2b93a309030b5ba34b360691b604082015260600190565b815167ffffffffffffffff811115613b1857613b1861394d565b613b2c81613b268454613879565b84613963565b6020601f821160018114613b605760008315613b485750848201515b600019600385901b1c1916600184901b1784556139aa565b600084815260208120601f198516915b82811015613b905787850151825560209485019460019092019101613b70565b5084821015613bae5786840151600019600387901b60f8161c191681555b50505050600190811b01905550565b6020808252600a9082015269048616e796120424e53560b41b604082015260600190565b602081526000613bf5602083018486613a72565b949350505050565b634e487b7160e01b600052601160045260246000fd5b600060018201613c2557613c25613bfd565b5060010190565b80820180821115613c3f57613c3f613bfd565b92915050565b6001600160a01b038416815260608101613c626020830185613380565b826040830152949350505050565b604081526000613c84604083018587613a72565b905082602083015294935050505056fe4f6b75706173692050656e616e6767756e67204a617761622050656e67656e64616c69616e2050656e63656d6172616e204169724f6b75706173692050656e616e6767756e67204a61776162204f7065726173696f6e616c20496e7374616c6173692050656e67656e64616c69616e2050656e63656d6172616e2055646172614f6b75706173692050656e616e6767756e67204a61776162204f7065726173696f6e616c2050656e676f6c6168616e20416972204c696d6261684f6b75706173692050656e616e6767756e67204a617761622050656e67656e64616c69616e2050656e63656d6172616e205564617261a264697066735822122011be3eeae65b7df994bb36b607a44fbc64348dc85001e671efbe4c3cc79b2c7b64736f6c634300081c0033",
  "linkReferences": {},
  "deployedLinkReferences": {}
}