{
  "_format": "hh-sol-artifact-1",
  "contractName": "MainContract",
  "sourceName": "contracts/MainContract.sol",
  "abi": [
    {
      "inputs": [],
      "stateMutability": "nonpayable",
      "type": "constructor"
    },
    {
      "anonymous": false,
      "inputs": [
        {
          "indexed": true,
          "internalType": "address",
          "name": "lsp",
          "type": "address"
        },
        {
          "indexed": false,
          "internalType": "address",
          "name": "sertifikasiID",
          "type": "address"
        },
        {
          "indexed": false,
          "internalType": "string",
          "name": "sertifikatCID",
          "type": "string"
        },
        {
          "indexed": false,
          "internalType": "uint256",
          "name": "tanggal",
          "type": "uint256"
        }
      ],
      "name": "KelulusanDiupdate",
      "type": "event"
    },
    {
      "anonymous": false,
      "inputs": [
        {
          "indexed": true,
          "internalType": "address",
          "name": "lsp",
          "type": "address"
        },
        {
          "indexed": false,
          "internalType": "string",
          "name": "metadataCID",
          "type": "string"
        }
      ],
      "name": "LSPDidaftarkan",
      "type": "event"
    },
    {
      "anonymous": false,
      "inputs": [
        {
          "indexed": true,
          "internalType": "address",
          "name": "lsp",
          "type": "address"
        }
      ],
      "name": "LSPDihapus",
      "type": "event"
    },
    {
      "anonymous": false,
      "inputs": [
        {
          "indexed": true,
          "internalType": "address",
          "name": "lsp",
          "type": "address"
        },
        {
          "indexed": false,
          "internalType": "string",
          "name": "metadataCID",
          "type": "string"
        }
      ],
      "name": "LSPDitambahkan",
      "type": "event"
    },
    {
      "anonymous": false,
      "inputs": [
        {
          "indexed": true,
          "internalType": "address",
          "name": "lsp",
          "type": "address"
        },
        {
          "indexed": false,
          "internalType": "string",
          "name": "alasan",
          "type": "string"
        }
      ],
      "name": "LSPDitolak",
      "type": "event"
    },
    {
      "anonymous": false,
      "inputs": [
        {
          "indexed": true,
          "internalType": "address",
          "name": "lsp",
          "type": "address"
        },
        {
          "indexed": false,
          "internalType": "string",
          "name": "suratIzinCID",
          "type": "string"
        }
      ],
      "name": "LSPDiverifikasi",
      "type": "event"
    },
    {
      "anonymous": false,
      "inputs": [
        {
          "indexed": true,
          "internalType": "address",
          "name": "lsp",
          "type": "address"
        },
        {
          "indexed": false,
          "internalType": "string",
          "name": "newMetadataCID",
          "type": "string"
        }
      ],
      "name": "LSPMetadataUpdated",
      "type": "event"
    },
    {
      "anonymous": false,
      "inputs": [
        {
          "indexed": true,
          "internalType": "address",
          "name": "peserta",
          "type": "address"
        },
        {
          "indexed": false,
          "internalType": "string",
          "name": "newCID",
          "type": "string"
        }
      ],
      "name": "MetadataDiupdate",
      "type": "event"
    },
    {
      "anonymous": false,
      "inputs": [
        {
          "indexed": true,
          "internalType": "address",
          "name": "peserta",
          "type": "address"
        },
        {
          "indexed": false,
          "internalType": "string",
          "name": "metadataCID",
          "type": "string"
        },
        {
          "indexed": false,
          "internalType": "uint256",
          "name": "tanggal",
          "type": "uint256"
        }
      ],
      "name": "PesertaTerdaftar",
      "type": "event"
    },
    {
      "anonymous": false,
      "inputs": [
        {
          "indexed": true,
          "internalType": "address",
          "name": "lsp",
          "type": "address"
        },
        {
          "indexed": false,
          "internalType": "address",
          "name": "sertifikasiID",
          "type": "address"
        },
        {
          "indexed": false,
          "internalType": "string",
          "name": "alasan",
          "type": "string"
        },
        {
          "indexed": false,
          "internalType": "uint256",
          "name": "tanggal",
          "type": "uint256"
        }
      ],
      "name": "SertifikasiBatal",
      "type": "event"
    },
    {
      "anonymous": false,
      "inputs": [
        {
          "indexed": true,
          "internalType": "address",
          "name": "peserta",
          "type": "address"
        },
        {
          "indexed": false,
          "internalType": "address",
          "name": "sertifikasiID",
          "type": "address"
        },
        {
          "indexed": false,
          "internalType": "enum SertifikasiStorage.SkemaSertifikasi",
          "name": "skema",
          "type": "uint8"
        },
        {
          "indexed": false,
          "internalType": "uint256",
          "name": "tanggal",
          "type": "uint256"
        }
      ],
      "name": "SertifikasiDiajukan",
      "type": "event"
    },
    {
      "inputs": [
        {
          "internalType": "enum SertifikasiStorage.SkemaSertifikasi",
          "name": "skema",
          "type": "uint8"
        }
      ],
      "name": "ajukanSertifikasi",
      "outputs": [],
      "stateMutability": "nonpayable",
      "type": "function"
    },
    {
      "inputs": [],
      "name": "batalkanSertifikasi",
      "outputs": [],
      "stateMutability": "nonpayable",
      "type": "function"
    },
    {
      "inputs": [],
      "name": "bnsp",
      "outputs": [
        {
          "internalType": "address",
          "name": "",
          "type": "address"
        }
      ],
      "stateMutability": "view",
      "type": "function"
    },
    {
      "inputs": [
        {
          "internalType": "address",
          "name": "peserta",
          "type": "address"
        }
      ],
      "name": "cekStatusPeserta",
      "outputs": [
        {
          "internalType": "bool",
          "name": "terdaftar",
          "type": "bool"
        },
        {
          "internalType": "bool",
          "name": "aktif",
          "type": "bool"
        },
        {
          "internalType": "bool",
          "name": "adaSertifikasiAktif",
          "type": "bool"
        },
        {
          "internalType": "uint256",
          "name": "totalSertifikasi",
          "type": "uint256"
        }
      ],
      "stateMutability": "view",
      "type": "function"
    },
    {
      "inputs": [
        {
          "internalType": "string",
          "name": "metadataCID",
          "type": "string"
        }
      ],
      "name": "daftarLSP",
      "outputs": [],
      "stateMutability": "nonpayable",
      "type": "function"
    },
    {
      "inputs": [
        {
          "internalType": "string",
          "name": "metadataCID",
          "type": "string"
        }
      ],
      "name": "daftarPeserta",
      "outputs": [],
      "stateMutability": "nonpayable",
      "type": "function"
    },
    {
      "inputs": [
        {
          "internalType": "address",
          "name": "sertifikasiID",
          "type": "address"
        }
      ],
      "name": "getDetailSertifikasi",
      "outputs": [
        {
          "components": [
            {
              "internalType": "address",
              "name": "peserta",
              "type": "address"
            },
            {
              "internalType": "enum SertifikasiStorage.SkemaSertifikasi",
              "name": "skema",
              "type": "uint8"
            },
            {
              "internalType": "string",
              "name": "sertifikatCID",
              "type": "string"
            },
            {
              "internalType": "bool",
              "name": "lulus",
              "type": "bool"
            },
            {
              "internalType": "bool",
              "name": "aktif",
              "type": "bool"
            },
            {
              "internalType": "uint256",
              "name": "tanggalPengajuan",
              "type": "uint256"
            },
            {
              "internalType": "uint256",
              "name": "tanggalSelesai",
              "type": "uint256"
            },
            {
              "internalType": "uint256",
              "name": "tanggalExpiry",
              "type": "uint256"
            },
            {
              "internalType": "address",
              "name": "lspPenilai",
              "type": "address"
            },
            {
              "internalType": "string",
              "name": "alasanGagal",
              "type": "string"
            }
          ],
          "internalType": "struct SertifikasiStorage.Sertifikasi",
          "name": "",
          "type": "tuple"
        }
      ],
      "stateMutability": "view",
      "type": "function"
    },
    {
      "inputs": [
        {
          "internalType": "address",
          "name": "lspAddress",
          "type": "address"
        }
      ],
      "name": "getLSP",
      "outputs": [
        {
          "internalType": "string",
          "name": "metadataCID",
          "type": "string"
        },
        {
          "internalType": "enum RegistrasiLSP.StatusLSP",
          "name": "status",
          "type": "uint8"
        },
        {
          "internalType": "string",
          "name": "suratIzinCID",
          "type": "string"
        },
        {
          "internalType": "string",
          "name": "alasanTolak",
          "type": "string"
        }
      ],
      "stateMutability": "view",
      "type": "function"
    },
    {
      "inputs": [
        {
          "internalType": "address",
          "name": "peserta",
          "type": "address"
        }
      ],
      "name": "getMetadataCID",
      "outputs": [
        {
          "internalType": "string",
          "name": "",
          "type": "string"
        }
      ],
      "stateMutability": "view",
      "type": "function"
    },
    {
      "inputs": [
        {
          "internalType": "address",
          "name": "peserta",
          "type": "address"
        }
      ],
      "name": "getPesertaInfo",
      "outputs": [
        {
          "internalType": "string",
          "name": "metadataCID",
          "type": "string"
        },
        {
          "internalType": "bool",
          "name": "terdaftar",
          "type": "bool"
        },
        {
          "internalType": "bool",
          "name": "aktif",
          "type": "bool"
        },
        {
          "internalType": "address",
          "name": "sertifikasiAktif",
          "type": "address"
        },
        {
          "internalType": "uint256",
          "name": "tanggalDaftar",
          "type": "uint256"
        },
        {
          "internalType": "uint256",
          "name": "totalSertifikasi",
          "type": "uint256"
        }
      ],
      "stateMutability": "view",
      "type": "function"
    },
    {
      "inputs": [
        {
          "internalType": "address",
          "name": "peserta",
          "type": "address"
        }
      ],
      "name": "getPesertaMetadata",
      "outputs": [
        {
          "internalType": "string",
          "name": "cid",
          "type": "string"
        }
      ],
      "stateMutability": "view",
      "type": "function"
    },
    {
      "inputs": [
        {
          "internalType": "address",
          "name": "sertifikasiID",
          "type": "address"
        }
      ],
      "name": "getSertifikasi",
      "outputs": [
        {
          "components": [
            {
              "internalType": "address",
              "name": "peserta",
              "type": "address"
            },
            {
              "internalType": "enum SertifikasiStorage.SkemaSertifikasi",
              "name": "skema",
              "type": "uint8"
            },
            {
              "internalType": "string",
              "name": "sertifikatCID",
              "type": "string"
            },
            {
              "internalType": "bool",
              "name": "lulus",
              "type": "bool"
            },
            {
              "internalType": "bool",
              "name": "aktif",
              "type": "bool"
            },
            {
              "internalType": "uint256",
              "name": "tanggalPengajuan",
              "type": "uint256"
            },
            {
              "internalType": "uint256",
              "name": "tanggalSelesai",
              "type": "uint256"
            },
            {
              "internalType": "uint256",
              "name": "tanggalExpiry",
              "type": "uint256"
            },
            {
              "internalType": "address",
              "name": "lspPenilai",
              "type": "address"
            },
            {
              "internalType": "string",
              "name": "alasanGagal",
              "type": "string"
            }
          ],
          "internalType": "struct SertifikasiStorage.Sertifikasi",
          "name": "",
          "type": "tuple"
        }
      ],
      "stateMutability": "view",
      "type": "function"
    },
    {
      "inputs": [
        {
          "internalType": "uint256",
          "name": "id",
          "type": "uint256"
        }
      ],
      "name": "getSertifikasiAddressById",
      "outputs": [
        {
          "internalType": "address",
          "name": "",
          "type": "address"
        }
      ],
      "stateMutability": "view",
      "type": "function"
    },
    {
      "inputs": [
        {
          "internalType": "address",
          "name": "sertifikasiID",
          "type": "address"
        }
      ],
      "name": "getSertifikasiDetail",
      "outputs": [
        {
          "internalType": "address",
          "name": "peserta",
          "type": "address"
        },
        {
          "internalType": "enum SertifikasiStorage.SkemaSertifikasi",
          "name": "skema",
          "type": "uint8"
        },
        {
          "internalType": "string",
          "name": "sertifikatCID",
          "type": "string"
        },
        {
          "internalType": "bool",
          "name": "lulus",
          "type": "bool"
        },
        {
          "internalType": "bool",
          "name": "aktif",
          "type": "bool"
        },
        {
          "internalType": "uint256",
          "name": "tanggalPengajuan",
          "type": "uint256"
        },
        {
          "internalType": "uint256",
          "name": "tanggalSelesai",
          "type": "uint256"
        },
        {
          "internalType": "address",
          "name": "lspPenilai",
          "type": "address"
        },
        {
          "internalType": "string",
          "name": "alasanGagal",
          "type": "string"
        }
      ],
      "stateMutability": "view",
      "type": "function"
    },
    {
      "inputs": [
        {
          "internalType": "address",
          "name": "sertifikasiID",
          "type": "address"
        }
      ],
      "name": "getSertifikatCID",
      "outputs": [
        {
          "internalType": "string",
          "name": "cid",
          "type": "string"
        }
      ],
      "stateMutability": "view",
      "type": "function"
    },
    {
      "inputs": [
        {
          "internalType": "enum SertifikasiStorage.SkemaSertifikasi",
          "name": "skema",
          "type": "uint8"
        }
      ],
      "name": "getSkemaNama",
      "outputs": [
        {
          "internalType": "string",
          "name": "",
          "type": "string"
        }
      ],
      "stateMutability": "pure",
      "type": "function"
    },
    {
      "inputs": [
        {
          "internalType": "address",
          "name": "lspAddress",
          "type": "address"
        }
      ],
      "name": "getStatusLSP",
      "outputs": [
        {
          "internalType": "int8",
          "name": "",
          "type": "int8"
        }
      ],
      "stateMutability": "view",
      "type": "function"
    },
    {
      "inputs": [],
      "name": "getTotalSertifikasi",
      "outputs": [
        {
          "internalType": "uint256",
          "name": "",
          "type": "uint256"
        }
      ],
      "stateMutability": "view",
      "type": "function"
    },
    {
      "inputs": [
        {
          "internalType": "address",
          "name": "lspAddress",
          "type": "address"
        }
      ],
      "name": "hapusLSP",
      "outputs": [],
      "stateMutability": "nonpayable",
      "type": "function"
    },
    {
      "inputs": [
        {
          "internalType": "address",
          "name": "",
          "type": "address"
        }
      ],
      "name": "isLSP",
      "outputs": [
        {
          "internalType": "bool",
          "name": "",
          "type": "bool"
        }
      ],
      "stateMutability": "view",
      "type": "function"
    },
    {
      "inputs": [
        {
          "internalType": "address",
          "name": "",
          "type": "address"
        }
      ],
      "name": "isLSPTerdaftar",
      "outputs": [
        {
          "internalType": "bool",
          "name": "",
          "type": "bool"
        }
      ],
      "stateMutability": "view",
      "type": "function"
    },
    {
      "inputs": [
        {
          "internalType": "address",
          "name": "",
          "type": "address"
        }
      ],
      "name": "isPesertaTerdaftar",
      "outputs": [
        {
          "internalType": "bool",
          "name": "",
          "type": "bool"
        }
      ],
      "stateMutability": "view",
      "type": "function"
    },
    {
      "inputs": [
        {
          "internalType": "address",
          "name": "peserta",
          "type": "address"
        }
      ],
      "name": "lihatRiwayatSertifikasi",
      "outputs": [
        {
          "internalType": "address[]",
          "name": "",
          "type": "address[]"
        }
      ],
      "stateMutability": "view",
      "type": "function"
    },
    {
      "inputs": [
        {
          "internalType": "address",
          "name": "",
          "type": "address"
        }
      ],
      "name": "lspList",
      "outputs": [
        {
          "internalType": "string",
          "name": "metadataCID",
          "type": "string"
        },
        {
          "internalType": "enum RegistrasiLSP.StatusLSP",
          "name": "status",
          "type": "uint8"
        },
        {
          "internalType": "string",
          "name": "suratIzinCID",
          "type": "string"
        },
        {
          "internalType": "string",
          "name": "alasanTolak",
          "type": "string"
        }
      ],
      "stateMutability": "view",
      "type": "function"
    },
    {
      "inputs": [],
      "name": "pesertaCount",
      "outputs": [
        {
          "internalType": "uint256",
          "name": "",
          "type": "uint256"
        }
      ],
      "stateMutability": "view",
      "type": "function"
    },
    {
      "inputs": [
        {
          "internalType": "address",
          "name": "",
          "type": "address"
        }
      ],
      "name": "pesertaList",
      "outputs": [
        {
          "internalType": "string",
          "name": "metadataCID",
          "type": "string"
        },
        {
          "internalType": "bool",
          "name": "terdaftar",
          "type": "bool"
        },
        {
          "internalType": "bool",
          "name": "aktif",
          "type": "bool"
        },
        {
          "internalType": "address",
          "name": "sertifikasiAktif",
          "type": "address"
        },
        {
          "internalType": "uint256",
          "name": "tanggalDaftar",
          "type": "uint256"
        }
      ],
      "stateMutability": "view",
      "type": "function"
    },
    {
      "inputs": [
        {
          "internalType": "uint256",
          "name": "",
          "type": "uint256"
        }
      ],
      "name": "sertifikasiById",
      "outputs": [
        {
          "internalType": "address",
          "name": "",
          "type": "address"
        }
      ],
      "stateMutability": "view",
      "type": "function"
    },
    {
      "inputs": [
        {
          "internalType": "address",
          "name": "",
          "type": "address"
        }
      ],
      "name": "sertifikasiList",
      "outputs": [
        {
          "internalType": "address",
          "name": "peserta",
          "type": "address"
        },
        {
          "internalType": "enum SertifikasiStorage.SkemaSertifikasi",
          "name": "skema",
          "type": "uint8"
        },
        {
          "internalType": "string",
          "name": "sertifikatCID",
          "type": "string"
        },
        {
          "internalType": "bool",
          "name": "lulus",
          "type": "bool"
        },
        {
          "internalType": "bool",
          "name": "aktif",
          "type": "bool"
        },
        {
          "internalType": "uint256",
          "name": "tanggalPengajuan",
          "type": "uint256"
        },
        {
          "internalType": "uint256",
          "name": "tanggalSelesai",
          "type": "uint256"
        },
        {
          "internalType": "uint256",
          "name": "tanggalExpiry",
          "type": "uint256"
        },
        {
          "internalType": "address",
          "name": "lspPenilai",
          "type": "address"
        },
        {
          "internalType": "string",
          "name": "alasanGagal",
          "type": "string"
        }
      ],
      "stateMutability": "view",
      "type": "function"
    },
    {
      "inputs": [
        {
          "internalType": "address",
          "name": "lspAddress",
          "type": "address"
        },
        {
          "internalType": "string",
          "name": "alasan",
          "type": "string"
        }
      ],
      "name": "tolakLSP",
      "outputs": [],
      "stateMutability": "nonpayable",
      "type": "function"
    },
    {
      "inputs": [
        {
          "internalType": "address",
          "name": "sertifikasiID",
          "type": "address"
        },
        {
          "internalType": "string",
          "name": "alasan",
          "type": "string"
        }
      ],
      "name": "updateKegagalan",
      "outputs": [],
      "stateMutability": "nonpayable",
      "type": "function"
    },
    {
      "inputs": [
        {
          "internalType": "address",
          "name": "sertifikasiID",
          "type": "address"
        },
        {
          "internalType": "string",
          "name": "sertifikatCID",
          "type": "string"
        }
      ],
      "name": "updateKelulusan",
      "outputs": [],
      "stateMutability": "nonpayable",
      "type": "function"
    },
    {
      "inputs": [
        {
          "internalType": "string",
          "name": "newCID",
          "type": "string"
        }
      ],
      "name": "updateMetadata",
      "outputs": [],
      "stateMutability": "nonpayable",
      "type": "function"
    },
    {
      "inputs": [
        {
          "internalType": "string",
          "name": "newMetadataCID",
          "type": "string"
        }
      ],
      "name": "updateMetadataLSP",
      "outputs": [],
      "stateMutability": "nonpayable",
      "type": "function"
    },
    {
      "inputs": [
        {
          "internalType": "address",
          "name": "sertifikasiID",
          "type": "address"
        }
      ],
      "name": "verifikasiKelulusan",
      "outputs": [
        {
          "internalType": "bool",
          "name": "valid",
          "type": "bool"
        }
      ],
      "stateMutability": "view",
      "type": "function"
    },
    {
      "inputs": [
        {
          "internalType": "address",
          "name": "lspAddress",
          "type": "address"
        },
        {
          "internalType": "string",
          "name": "suratIzinCID",
          "type": "string"
        }
      ],
      "name": "verifikasiLSP",
      "outputs": [],
      "stateMutability": "nonpayable",
      "type": "function"
    },
    {
      "inputs": [
        {
          "internalType": "address",
          "name": "sertifikasiID",
          "type": "address"
        }
      ],
      "name": "verifikasiSertifikasiLengkap",
      "outputs": [
        {
          "internalType": "bool",
          "name": "exists",
          "type": "bool"
        },
        {
          "internalType": "bool",
          "name": "lulus",
          "type": "bool"
        },
        {
          "internalType": "bool",
          "name": "aktif",
          "type": "bool"
        },
        {
          "internalType": "address",
          "name": "peserta",
          "type": "address"
        },
        {
          "internalType": "enum SertifikasiStorage.SkemaSertifikasi",
          "name": "skema",
          "type": "uint8"
        },
        {
          "internalType": "string",
          "name": "sertifikatCID",
          "type": "string"
        },
        {
          "internalType": "uint256",
          "name": "tanggalSelesai",
          "type": "uint256"
        },
        {
          "internalType": "address",
          "name": "lspPenilai",
          "type": "address"
        }
      ],
      "stateMutability": "view",
      "type": "function"
    }
  ],
  "bytecode": "0x6080604052348015600f57600080fd5b50600080546001600160a01b03191633179055613bc4806100316000396000f3fe608060405234801561001057600080fd5b506004361061021b5760003560e01c8063732a6f3211610125578063c73c6005116100ad578063e06445321161007c578063e064453214610552578063e216eaeb14610578578063e8acac991461058b578063f2416e3e1461059e578063f81ce2d2146105a657600080fd5b8063c73c6005146103cb578063cb5fb9a0146104ef578063d39cd69e14610516578063d75f27ac1461053f57600080fd5b80639653d19e116100f45780639653d19e146104a35780639e2ed884146104b6578063a35fcfe5146104c9578063a3d9914f14610252578063afaf49ea146104dc57600080fd5b8063732a6f32146104475780637433efb41461045a5780638d70327f1461046d578063918b5be11461049057600080fd5b80633af61c21116101a85780635dc49397116101775780635dc49397146103cb5780635e58b527146103eb5780635eb5e4e71461040e5780636df8a5a6146104215780636e75758e1461043457600080fd5b80633af61c21146103375780633ced72f91461036a5780634021e5cf1461037d5780635cf6de2b146103a057600080fd5b806314851c8a116101ef57806314851c8a146102ae57806316467b60146102ce57806316c89ca0146102e357806316efcaac1461030b578063282ef0211461032f57600080fd5b8062ee260b146102205780630b5a9a7e146102525780630e0473e5146102725780631017604f14610289575b600080fd5b61023361022e366004613159565b6105e1565b6040516102499a999897969594939291906131e4565b60405180910390f35b610265610260366004613159565b610765565b604051610249919061326e565b61027b60065481565b604051908152602001610249565b61029c610297366004613159565b6109d8565b6040516102499695949392919061333e565b6102c16102bc366004613159565b610b7d565b6040516102499190613383565b6102e16102dc366004613418565b610bf6565b005b6102f66102f1366004613159565b610dfc565b6040516102499998979695949392919061346b565b61031e610319366004613159565b611075565b6040516102499594939291906134ec565b6102e161113e565b61035a610345366004613159565b600a6020526000908152604090205460ff1681565b6040519015158152602001610249565b6102e1610378366004613418565b61135c565b61035a61038b366004613159565b60046020526000908152604090205460ff1681565b6000546103b3906001600160a01b031681565b6040516001600160a01b039091168152602001610249565b6103de6103d9366004613159565b6114fc565b604051610249919061352c565b61035a6103f9366004613159565b60016020526000908152604090205460ff1681565b6102e161041c36600461353f565b611608565b6102e161042f366004613418565b6119b7565b6103b3610442366004613560565b611bc2565b6102e1610455366004613418565b611c2f565b61035a610468366004613159565b611dd0565b61048061047b366004613159565b611ff3565b6040516102499493929190613579565b6102e161049e3660046135d3565b6121dd565b6104806104b1366004613159565b6122ec565b6102e16104c43660046135d3565b6124b5565b6102e16104d73660046135d3565b6125cc565b6102e16104ea3660046135d3565b61289d565b6105026104fd366004613159565b612ae1565b604051610249989796959493929190613615565b6103b3610524366004613560565b6008602052600090815260409020546001600160a01b031681565b6102e161054d366004613159565b612d55565b610565610560366004613159565b612da0565b60405160009190910b8152602001610249565b6103de610586366004613159565b612df9565b6103de61059936600461353f565b612e59565b60075461027b565b6105b96105b4366004613159565b612f27565b6040805194151585529215156020850152901515918301919091526060820152608001610249565b600360205260009081526040902080546001820180546001600160a01b03831693600160a01b90930460ff1692919061061990613683565b80601f016020809104026020016040519081016040528092919081815260200182805461064590613683565b80156106925780601f1061066757610100808354040283529160200191610692565b820191906000526020600020905b81548152906001019060200180831161067557829003601f168201915b5050505060028301546003840154600485015460058601546006870154600788018054979860ff808816996101009098041697509495939492936001600160a01b0390921692916106e290613683565b80601f016020809104026020016040519081016040528092919081815260200182805461070e90613683565b801561075b5780601f106107305761010080835404028352916020019161075b565b820191906000526020600020905b81548152906001019060200180831161073e57829003601f168201915b505050505090508a565b604080516101408101825260008082526020820181905260609282018390528282018190526080820181905260a0820181905260c0820181905260e082018190526101008201526101208101919091526001600160a01b03828116600090815260036020526040902054166107f55760405162461bcd60e51b81526004016107ec906136bd565b60405180910390fd5b6001600160a01b038281166000908152600360208181526040928390208351610140810190945280549485168452929390840191600160a01b90910460ff169081111561084457610844613174565b600381111561085557610855613174565b815260200160018201805461086990613683565b80601f016020809104026020016040519081016040528092919081815260200182805461089590613683565b80156108e25780601f106108b7576101008083540402835291602001916108e2565b820191906000526020600020905b8154815290600101906020018083116108c557829003601f168201915b5050509183525050600282015460ff8082161515602084015261010090910416151560408201526003820154606082015260048201546080820152600582015460a082015260068201546001600160a01b031660c082015260078201805460e09092019161094f90613683565b80601f016020809104026020016040519081016040528092919081815260200182805461097b90613683565b80156109c85780601f1061099d576101008083540402835291602001916109c8565b820191906000526020600020905b8154815290600101906020018083116109ab57829003601f168201915b5050505050815250509050919050565b606060008060008060008060026000896001600160a01b03166001600160a01b031681526020019081526020016000206040518060c0016040529081600082018054610a2390613683565b80601f0160208091040260200160405190810160405280929190818152602001828054610a4f90613683565b8015610a9c5780601f10610a7157610100808354040283529160200191610a9c565b820191906000526020600020905b815481529060010190602001808311610a7f57829003601f168201915b5050509183525050600182015460ff808216151560208085019190915261010083049091161515604080850191909152620100009092046001600160a01b031660608401526002840180548351818402810184019094528084526080909401939091830182828015610b3757602002820191906000526020600020905b81546001600160a01b03168152600190910190602001808311610b19575b5050509183525050600391909101546020918201528151908201516040830151606084015160a085015160809095015151939d929c50909a509850919650945092505050565b6001600160a01b038116600090815260026020818152604092839020909101805483518184028101840190945280845260609392830182828015610bea57602002820191906000526020600020905b81546001600160a01b03168152600190910190602001808311610bcc575b50505050509050919050565b3360009081526001602052604090205460ff16610c415760405162461bcd60e51b8152602060048201526009602482015268048616e7961204c53560bc1b60448201526064016107ec565b826001600160a01b038116610c685760405162461bcd60e51b81526004016107ec906136f4565b82828080601f0160208091040260200160405190810160405280939291908181526020018383808284376000920182905250845190039250610cbf9150505760405162461bcd60e51b81526004016107ec90613720565b6001600160a01b03851660009081526003602052604090206002810154610100900460ff16610d2a5760405162461bcd60e51b815260206004820152601760248201527629b2b93a34b334b5b0b9b4903a34b230b59030b5ba34b360491b60448201526064016107ec565b80546001600160a01b0316610d515760405162461bcd60e51b81526004016107ec906136bd565b60028101805461ffff191690554260048201556006810180546001600160a01b0319163317905560078101610d878587836137bc565b5080546001600160a01b031660009081526002602052604090819020600101805462010000600160b01b03191690555133907f7176ae479d15b28ef81160f7cb60a461e03d280ed14952ffe689854e31aede6490610dec9089908990899042906138a5565b60405180910390a2505050505050565b6001600160a01b038181166000908152600360205260408120549091829160609183918291829182918291879116610e465760405162461bcd60e51b81526004016107ec906136bd565b6001600160a01b038a811660009081526003602081815260408084208151610140810190925280549586168252939490939291840191600160a01b90910460ff1690811115610e9757610e97613174565b6003811115610ea857610ea8613174565b8152602001600182018054610ebc90613683565b80601f0160208091040260200160405190810160405280929190818152602001828054610ee890613683565b8015610f355780601f10610f0a57610100808354040283529160200191610f35565b820191906000526020600020905b815481529060010190602001808311610f1857829003601f168201915b5050509183525050600282015460ff8082161515602084015261010090910416151560408201526003820154606082015260048201546080820152600582015460a082015260068201546001600160a01b031660c082015260078201805460e090920191610fa290613683565b80601f0160208091040260200160405190810160405280929190818152602001828054610fce90613683565b801561101b5780601f10610ff05761010080835404028352916020019161101b565b820191906000526020600020905b815481529060010190602001808311610ffe57829003601f168201915b5050505050815250509050806000015181602001518260400151836060015184608001518560a001518660c00151876101000151886101200151995099509950995099509950995099509950509193959799909294969850565b60026020526000908152604090208054819061109090613683565b80601f01602080910402602001604051908101604052809291908181526020018280546110bc90613683565b80156111095780601f106110de57610100808354040283529160200191611109565b820191906000526020600020905b8154815290600101906020018083116110ec57829003601f168201915b505050506001830154600390930154919260ff8082169361010083049091169250620100009091046001600160a01b03169085565b3360009081526002602052604090206001015460ff168015611177575033600090815260026020526040902060010154610100900460ff165b6111935760405162461bcd60e51b81526004016107ec906138db565b336000908152600260205260409020600101546201000090046001600160a01b0316806112025760405162461bcd60e51b815260206004820152601b60248201527f546964616b2061646120736572746966696b61736920616b746966000000000060448201526064016107ec565b6001600160a01b03811660009081526003602052604090206002810154610100900460ff166112735760405162461bcd60e51b815260206004820152601d60248201527f536572746966696b61736920737564616820746964616b20616b74696600000060448201526064016107ec565b60028101805461ff00191690554260048201556040805180820190915260178152764469626174616c6b616e206f6c6568207065736572746160481b602082015260078201906112c39082613908565b50336000908152600260209081526040808320600101805462010000600160b01b031916905580516001600160a01b03861681526060928101839052601792810192909252764469626174616c6b616e206f6c6568207065736572746160481b60808301524282820152517f7176ae479d15b28ef81160f7cb60a461e03d280ed14952ffe689854e31aede649181900360a00190a25050565b6000546001600160a01b031633146113865760405162461bcd60e51b81526004016107ec906139c7565b826001600160a01b0381166113ad5760405162461bcd60e51b81526004016107ec906136f4565b82828080601f01602080910402602001604051908101604052809392919081815260200183838082843760009201829052508451900392506114049150505760405162461bcd60e51b81526004016107ec90613720565b6001600160a01b038516600090815260096020526040812090600182015460ff16600281111561143657611436613174565b146114835760405162461bcd60e51b815260206004820152601f60248201527f4c535020746964616b2064616c616d20737461747573206d656e756e6767750060448201526064016107ec565b60018101805460ff19166002179055600381016114a18587836137bc565b5060408051602081019091526000815260028201906114c09082613908565b50856001600160a01b03167f6214efe84e589b41714ba0c9ee2bb9bde0eb09b641a218032b5f7ad0e7ee777d8686604051610dec9291906139eb565b6001600160a01b03811660009081526002602052604090206001015460609060ff1661156a5760405162461bcd60e51b815260206004820152601760248201527f5065736572746120746964616b2074657264616674617200000000000000000060448201526064016107ec565b6001600160a01b0382166000908152600260205260409020805461158d90613683565b80601f01602080910402602001604051908101604052809291908181526020018280546115b990613683565b8015610bea5780601f106115db57610100808354040283529160200191610bea565b820191906000526020600020905b8154815290600101906020018083116115e95750939695505050505050565b3360009081526002602052604090206001015460ff168015611641575033600090815260026020526040902060010154610100900460ff165b61165d5760405162461bcd60e51b81526004016107ec906138db565b33600090815260026020526040902060018101546201000090046001600160a01b0316156116cd5760405162461bcd60e51b815260206004820152601b60248201527f4d617369682061646120736572746966696b61736920616b746966000000000060448201526064016107ec565b600780549060006116dd83613a1d565b909155505060075433600081815260056020526040812080549192849290914291908561170983613a1d565b909155506040805160a060208201819052600c60c08301526b534552544946494b4153495f60a01b60e0830152918101959095526001600160a01b0390931660608501526080840191909152908201526101000160408051808303601f19018152828252805160209182012060008681526008835283902080546001600160a01b0319166001600160a01b038316179055610140840190925233835290925081018560038111156117bc576117bc613174565b815260200160405180602001604052806000815250815260200160001515815260200160011515815260200142815260200160008152602001426305a39a806118059190613a36565b815260006020808301829052604080518083018252838152938101939093526001600160a01b0385811683526003808352939092208451815493166001600160a01b0319841681178255918501519093909284926001600160a81b03199091161790600160a01b90849081111561187e5761187e613174565b0217905550604082015160018201906118979082613908565b506060820151600282018054608085015161ffff1990911692151561ff00191692909217610100921515830217905560a0830151600383015560c0830151600483015560e083015160058301558201516006820180546001600160a01b0319166001600160a01b03909216919091179055610120820151600782019061191d9082613908565b5050506001838101805462010000600160b01b031916620100006001600160a01b03851690810291909117909155600285018054928301815560009081526020902090910180546001600160a01b031916909117905560405133907f3ac6af73e630a22fd1e8f791a2b123684b5551df2f5f617948313d0df595a372906119a990849088904290613a4f565b60405180910390a250505050565b3360009081526001602052604090205460ff16611a025760405162461bcd60e51b8152602060048201526009602482015268048616e7961204c53560bc1b60448201526064016107ec565b826001600160a01b038116611a295760405162461bcd60e51b81526004016107ec906136f4565b82828080601f0160208091040260200160405190810160405280939291908181526020018383808284376000920182905250845190039250611a809150505760405162461bcd60e51b81526004016107ec90613720565b6001600160a01b03851660009081526003602052604090206002810154610100900460ff16611aeb5760405162461bcd60e51b815260206004820152601760248201527629b2b93a34b334b5b0b9b4903a34b230b59030b5ba34b360491b60448201526064016107ec565b80546001600160a01b0316611b125760405162461bcd60e51b81526004016107ec906136bd565b60028101805460ff191660019081179091558101611b318587836137bc565b506002808201805461ff001916905542600483018190556006830180546001600160a01b0319163390811790915583546001600160a01b03166000908152602093909352604092839020600101805462010000600160b01b031916905591517fad88f87555b407755a665f13e36f4952e39e6ee937b6c0adb7896b91d47bb8e391610dec918a918a918a91906138a5565b60006007548211158015611bd65750600082115b611c135760405162461bcd60e51b815260206004820152600e60248201526d1251081d1a59185ac81d985b1a5960921b60448201526064016107ec565b506000908152600860205260409020546001600160a01b031690565b6000546001600160a01b03163314611c595760405162461bcd60e51b81526004016107ec906139c7565b826001600160a01b038116611c805760405162461bcd60e51b81526004016107ec906136f4565b82828080601f0160208091040260200160405190810160405280939291908181526020018383808284376000920182905250845190039250611cd79150505760405162461bcd60e51b81526004016107ec90613720565b6001600160a01b038516600090815260096020526040812090600182015460ff166002811115611d0957611d09613174565b14611d565760405162461bcd60e51b815260206004820152601f60248201527f4c535020746964616b2064616c616d20737461747573206d656e756e6767750060448201526064016107ec565b6001818101805460ff1916909117905560028101611d758587836137bc565b506040805160208101909152600081526003820190611d949082613908565b50856001600160a01b03167fa2afc48ad450df786fc5287f1e8dea74f2f5e8252d2aac21bb732fb36e83f9468686604051610dec9291906139eb565b6001600160a01b03818116600090815260036020526040812054909116611df957506000919050565b6001600160a01b0382811660009081526003602081815260408084208151610140810190925280549586168252939490939291840191600160a01b90910460ff1690811115611e4a57611e4a613174565b6003811115611e5b57611e5b613174565b8152602001600182018054611e6f90613683565b80601f0160208091040260200160405190810160405280929190818152602001828054611e9b90613683565b8015611ee85780601f10611ebd57610100808354040283529160200191611ee8565b820191906000526020600020905b815481529060010190602001808311611ecb57829003601f168201915b5050509183525050600282015460ff8082161515602084015261010090910416151560408201526003820154606082015260048201546080820152600582015460a082015260068201546001600160a01b031660c082015260078201805460e090920191611f5590613683565b80601f0160208091040260200160405190810160405280929190818152602001828054611f8190613683565b8015611fce5780601f10611fa357610100808354040283529160200191611fce565b820191906000526020600020905b815481529060010190602001808311611fb157829003601f168201915b505050505081525050905080606001518015611fec57508060800151155b9392505050565b6001600160a01b0381166000908152600960205260408120600181015481546060939284928392829160ff169060028301906003840190849061203590613683565b80601f016020809104026020016040519081016040528092919081815260200182805461206190613683565b80156120ae5780601f10612083576101008083540402835291602001916120ae565b820191906000526020600020905b81548152906001019060200180831161209157829003601f168201915b505050505093508180546120c190613683565b80601f01602080910402602001604051908101604052809291908181526020018280546120ed90613683565b801561213a5780601f1061210f5761010080835404028352916020019161213a565b820191906000526020600020905b81548152906001019060200180831161211d57829003601f168201915b5050505050915080805461214d90613683565b80601f016020809104026020016040519081016040528092919081815260200182805461217990613683565b80156121c65780601f1061219b576101008083540402835291602001916121c6565b820191906000526020600020905b8154815290600101906020018083116121a957829003601f168201915b505050505090509450945094509450509193509193565b3360009081526002602052604090206001015460ff168015612216575033600090815260026020526040902060010154610100900460ff165b6122325760405162461bcd60e51b81526004016107ec906138db565b81818080601f01602080910402602001604051908101604052809392919081815260200183838082843760009201829052508451900392506122899150505760405162461bcd60e51b81526004016107ec90613720565b3360009081526002602052604090206122a38385836137bc565b50336001600160a01b03167fbfc8ffd6fbbc13c20f5b640faea3048bcbf648d1ed4ab5a142eb81a4d5c11eca84846040516122df9291906139eb565b60405180910390a2505050565b60096020526000908152604090208054819061230790613683565b80601f016020809104026020016040519081016040528092919081815260200182805461233390613683565b80156123805780601f1061235557610100808354040283529160200191612380565b820191906000526020600020905b81548152906001019060200180831161236357829003601f168201915b5050506001840154600285018054949560ff9092169491935091506123a490613683565b80601f01602080910402602001604051908101604052809291908181526020018280546123d090613683565b801561241d5780601f106123f25761010080835404028352916020019161241d565b820191906000526020600020905b81548152906001019060200180831161240057829003601f168201915b50505050509080600301805461243290613683565b80601f016020809104026020016040519081016040528092919081815260200182805461245e90613683565b80156124ab5780601f10612480576101008083540402835291602001916124ab565b820191906000526020600020905b81548152906001019060200180831161248e57829003601f168201915b5050505050905084565b81818080601f016020809104026020016040519081016040528093929190818152602001838380828437600092018290525084519003925061250c9150505760405162461bcd60e51b81526004016107ec90613720565b3360009081526009602052604081206001015460ff16600281111561253357612533613174565b036125765760405162461bcd60e51b81526020600482015260136024820152722132b63ab6903832b93730b4103230b33a30b960691b60448201526064016107ec565b3360009081526009602052604090206125908385836137bc565b50336001600160a01b03167f888338719acbecc4ba224509d272f9176d7b20628c353787dd9b2a1cdcd33f6384846040516122df9291906139eb565b81818080601f01602080910402602001604051908101604052809392919081815260200183838082843760009201829052508451900392506126239150505760405162461bcd60e51b81526004016107ec90613720565b3360009081526009602052604081206001015460ff16600281111561264a5761264a613174565b146126ae5760405162461bcd60e51b815260206004820152602e60248201527f5375646168207065726e6168206461667461722061746175207374617475732060448201526d62756b616e204d656e756e67677560901b60648201526084016107ec565b33600090815260096020526040902080546126c890613683565b15905061270d5760405162461bcd60e51b815260206004820152601360248201527229bab230b4103832b93730b4103230b33a30b960691b60448201526064016107ec565b6000546001600160a01b031633036127725760405162461bcd60e51b815260206004820152602260248201527f424e535020746964616b2062697361206461667461722073656261676169204c604482015261053560f41b60648201526084016107ec565b604051806080016040528084848080601f0160208091040260200160405190810160405280939291908181526020018383808284376000920182905250938552505050602080830182905260408051808301825283815281850152805180830182528381526060909401939093523382526009905220815181906127f69082613908565b50602082015160018083018054909160ff199091169083600281111561281e5761281e613174565b0217905550604082015160028201906128379082613908565b506060820151600382019061284c9082613908565b5050336000818152600a602052604090819020805460ff19166001179055519091507f97aeb5fb194ec62c9d9b39612021999b672308ae532baa9acaef2ddc56c95c4f906122df90869086906139eb565b81818080601f01602080910402602001604051908101604052809392919081815260200183838082843760009201829052508451900392506128f49150505760405162461bcd60e51b81526004016107ec90613720565b3360009081526002602052604090206001015460ff16156129495760405162461bcd60e51b815260206004820152600f60248201526e29bab230b4103a32b93230b33a30b960891b60448201526064016107ec565b6040518060c0016040528084848080601f01602080910402602001604051908101604052809392919081815260200183838082843760009201829052509385525050600160208401819052604084015250606082018190526080909101906040519080825280602002602001820160405280156129d0578160200160208202803683370190505b50815242602091820152336000908152600290915260409020815181906129f79082613908565b50602082810151600183018054604086015160608701516001600160a01b0316620100000262010000600160b01b03199115156101000261ff00199515159590951661ffff1990931692909217939093179290921691909117905560808301518051612a6992600285019201906130c8565b5060a09190910151600390910155336000908152600460205260408120805460ff191660011790556006805491612a9f83613a1d565b9190505550336001600160a01b03167f5c2d1095c6c47db736747eb0de0af919db06bb86af4c022f4da6cd652fde0ea88484426040516122df93929190613a7a565b6001600160a01b038181166000908152600360208181526040808420815161014081019092528054958616825293948594859485948594606094869485948594919291840191600160a01b900460ff1690811115612b4157612b41613174565b6003811115612b5257612b52613174565b8152602001600182018054612b6690613683565b80601f0160208091040260200160405190810160405280929190818152602001828054612b9290613683565b8015612bdf5780601f10612bb457610100808354040283529160200191612bdf565b820191906000526020600020905b815481529060010190602001808311612bc257829003601f168201915b5050509183525050600282015460ff8082161515602084015261010090910416151560408201526003820154606082015260048201546080820152600582015460a082015260068201546001600160a01b031660c082015260078201805460e090920191612c4c90613683565b80601f0160208091040260200160405190810160405280929190818152602001828054612c7890613683565b8015612cc55780601f10612c9a57610100808354040283529160200191612cc5565b820191906000526020600020905b815481529060010190602001808311612ca857829003601f168201915b50505091909252505081516001600160a01b031615159a50909150899050612d12575050604080516020810190915260008082529750879650869550859450849350915082905080612d4a565b6001816060015182608001518360000151846020015185604001518660c0015187610100015198509850985098509850985098509850505b919395975091939597565b6000546001600160a01b03163314612d7f5760405162461bcd60e51b81526004016107ec906139c7565b6001600160a01b03166000908152600a60205260409020805460ff19169055565b6001600160a01b0381166000908152600a602052604081205460ff16612dc95750600019919050565b6001600160a01b03821660009081526009602052604081206001015460ff166002811115611fec57611fec613174565b6001600160a01b0381811660009081526003602052604090205460609116612e335760405162461bcd60e51b81526004016107ec906136bd565b6001600160a01b0382166000908152600360205260409020600101805461158d90613683565b60606000826003811115612e6f57612e6f613174565b03612e93576040518060800160405280604c8152602001613ad3604c913992915050565b6001826003811115612ea757612ea7613174565b03612ecb57604051806060016040528060368152602001613b596036913992915050565b6002826003811115612edf57612edf613174565b03612f03576040518060600160405280603a8152602001613b1f603a913992915050565b604051806060016040528060348152602001613a9f6034913992915050565b919050565b600080600080600060026000876001600160a01b03166001600160a01b031681526020019081526020016000206040518060c0016040529081600082018054612f6f90613683565b80601f0160208091040260200160405190810160405280929190818152602001828054612f9b90613683565b8015612fe85780601f10612fbd57610100808354040283529160200191612fe8565b820191906000526020600020905b815481529060010190602001808311612fcb57829003601f168201915b5050509183525050600182015460ff808216151560208085019190915261010083049091161515604080850191909152620100009092046001600160a01b03166060840152600284018054835181840281018401909452808452608090940193909183018282801561308357602002820191906000526020600020905b81546001600160a01b03168152600190910190602001808311613065575b505050918352505060039190910154602091820152810151604082015160608301516080909301515191999098506001600160a01b0390921615159650945092505050565b82805482825590600052602060002090810192821561311d579160200282015b8281111561311d57825182546001600160a01b0319166001600160a01b039091161782556020909201916001909101906130e8565b5061312992915061312d565b5090565b5b80821115613129576000815560010161312e565b80356001600160a01b0381168114612f2257600080fd5b60006020828403121561316b57600080fd5b611fec82613142565b634e487b7160e01b600052602160045260246000fd5b6004811061319a5761319a613174565b9052565b6000815180845260005b818110156131c4576020818501810151868301820152016131a8565b506000602082860101526020601f19601f83011685010191505092915050565b6001600160a01b038b1681526131fd602082018b61318a565b6101406040820152600061321561014083018b61319e565b8915156060840152881515608084015260a0830188905260c0830187905260e083018690526001600160a01b03851661010084015282810361012084015261325d818561319e565b9d9c50505050505050505050505050565b602081526132886020820183516001600160a01b03169052565b6000602083015161329c604084018261318a565b50604083015161014060608401526132b861016084018261319e565b905060608401516132cd608085018215159052565b50608084015180151560a08501525060a084015160c084015260c084015160e084015260e08401516101008401526101008401516133176101208501826001600160a01b03169052565b50610120840151838203601f1901610140850152613335828261319e565b95945050505050565b60c08152600061335160c083018961319e565b96151560208301525093151560408501526001600160a01b03929092166060840152608083015260a090910152919050565b602080825282518282018190526000918401906040840190835b818110156133c45783516001600160a01b031683526020938401939092019160010161339d565b509095945050505050565b60008083601f8401126133e157600080fd5b50813567ffffffffffffffff8111156133f957600080fd5b60208301915083602082850101111561341157600080fd5b9250929050565b60008060006040848603121561342d57600080fd5b61343684613142565b9250602084013567ffffffffffffffff81111561345257600080fd5b61345e868287016133cf565b9497909650939450505050565b6001600160a01b038a168152613484602082018a61318a565b6101206040820152600061349c61012083018a61319e565b8815156060840152871515608084015260a0830187905260c083018690526001600160a01b03851660e08401528281036101008401526134dc818561319e565b9c9b505050505050505050505050565b60a0815260006134ff60a083018861319e565b95151560208301525092151560408401526001600160a01b03919091166060830152608090910152919050565b602081526000611fec602083018461319e565b60006020828403121561355157600080fd5b813560048110611fec57600080fd5b60006020828403121561357257600080fd5b5035919050565b60808152600061358c608083018761319e565b6003861061359c5761359c613174565b85602084015282810360408401526135b4818661319e565b905082810360608401526135c8818561319e565b979650505050505050565b600080602083850312156135e657600080fd5b823567ffffffffffffffff8111156135fd57600080fd5b613609858286016133cf565b90969095509350505050565b8815158152871515602082015286151560408201526001600160a01b0386166060820152613646608082018661318a565b61010060a0820152600061365e61010083018661319e565b60c0830194909452506001600160a01b039190911660e0909101529695505050505050565b600181811c9082168061369757607f821691505b6020821081036136b757634e487b7160e01b600052602260045260246000fd5b50919050565b6020808252601b908201527f536572746966696b61736920746964616b20646974656d756b616e0000000000604082015260600190565b602080825260129082015271105b185b585d081d1a59185ac81d985b1a5960721b604082015260600190565b60208082526019908201527f537472696e6720746964616b20626f6c6568206b6f736f6e6700000000000000604082015260600190565b634e487b7160e01b600052604160045260246000fd5b601f8211156137b757806000526020600020601f840160051c810160208510156137945750805b601f840160051c820191505b818110156137b457600081556001016137a0565b50505b505050565b67ffffffffffffffff8311156137d4576137d4613757565b6137e8836137e28354613683565b8361376d565b6000601f84116001811461381c57600085156138045750838201355b600019600387901b1c1916600186901b1783556137b4565b600083815260209020601f19861690835b8281101561384d578685013582556020948501946001909201910161382d565b508682101561386a5760001960f88860031b161c19848701351681555b505060018560011b0183555050505050565b81835281816020850137506000828201602090810191909152601f909101601f19169091010190565b6001600160a01b03851681526060602082018190526000906138ca908301858761387c565b905082604083015295945050505050565b6020808252601390820152722430b73cb0903832b9b2b93a309030b5ba34b360691b604082015260600190565b815167ffffffffffffffff81111561392257613922613757565b613936816139308454613683565b8461376d565b6020601f82116001811461396a57600083156139525750848201515b600019600385901b1c1916600184901b1784556137b4565b600084815260208120601f198516915b8281101561399a578785015182556020948501946001909201910161397a565b50848210156139b85786840151600019600387901b60f8161c191681555b50505050600190811b01905550565b6020808252600a9082015269048616e796120424e53560b41b604082015260600190565b6020815260006139ff60208301848661387c565b949350505050565b634e487b7160e01b600052601160045260246000fd5b600060018201613a2f57613a2f613a07565b5060010190565b80820180821115613a4957613a49613a07565b92915050565b6001600160a01b038416815260608101613a6c602083018561318a565b826040830152949350505050565b604081526000613a8e60408301858761387c565b905082602083015294935050505056fe4f6b75706173692050656e616e6767756e67204a617761622050656e67656e64616c69616e2050656e63656d6172616e204169724f6b75706173692050656e616e6767756e67204a61776162204f7065726173696f6e616c20496e7374616c6173692050656e67656e64616c69616e2050656e63656d6172616e2055646172614f6b75706173692050656e616e6767756e67204a61776162204f7065726173696f6e616c2050656e676f6c6168616e20416972204c696d6261684f6b75706173692050656e616e6767756e67204a617761622050656e67656e64616c69616e2050656e63656d6172616e205564617261a26469706673582212200b65c6e8a789347e5c5847d9bca7b28ce38cb513fe51091c6ee569a8c67519bf64736f6c634300081c0033",
  "linkReferences": {},
  "deployedLinkReferences": {}
}