{
  "_format": "hh-sol-artifact-1",
  "contractName": "MainContract",
  "sourceName": "contracts/MainContract.sol",
  "abi": [
    {
      "inputs": [],
      "stateMutability": "nonpayable",
      "type": "constructor"
    },
    {
      "anonymous": false,
      "inputs": [
        {
          "indexed": true,
          "internalType": "address",
          "name": "lsp",
          "type": "address"
        },
        {
          "indexed": false,
          "internalType": "address",
          "name": "sertifikasiID",
          "type": "address"
        },
        {
          "indexed": false,
          "internalType": "string",
          "name": "sertifikatCID",
          "type": "string"
        },
        {
          "indexed": false,
          "internalType": "uint256",
          "name": "tanggal",
          "type": "uint256"
        }
      ],
      "name": "KelulusanDiupdate",
      "type": "event"
    },
    {
      "anonymous": false,
      "inputs": [
        {
          "indexed": true,
          "internalType": "address",
          "name": "lsp",
          "type": "address"
        },
        {
          "indexed": false,
          "internalType": "string",
          "name": "metadataCID",
          "type": "string"
        }
      ],
      "name": "LSPDidaftarkan",
      "type": "event"
    },
    {
      "anonymous": false,
      "inputs": [
        {
          "indexed": true,
          "internalType": "address",
          "name": "lsp",
          "type": "address"
        }
      ],
      "name": "LSPDihapus",
      "type": "event"
    },
    {
      "anonymous": false,
      "inputs": [
        {
          "indexed": true,
          "internalType": "address",
          "name": "lsp",
          "type": "address"
        },
        {
          "indexed": false,
          "internalType": "string",
          "name": "metadataCID",
          "type": "string"
        }
      ],
      "name": "LSPDitambahkan",
      "type": "event"
    },
    {
      "anonymous": false,
      "inputs": [
        {
          "indexed": true,
          "internalType": "address",
          "name": "lsp",
          "type": "address"
        },
        {
          "indexed": false,
          "internalType": "string",
          "name": "alasan",
          "type": "string"
        }
      ],
      "name": "LSPDitolak",
      "type": "event"
    },
    {
      "anonymous": false,
      "inputs": [
        {
          "indexed": true,
          "internalType": "address",
          "name": "lsp",
          "type": "address"
        },
        {
          "indexed": false,
          "internalType": "string",
          "name": "suratIzinCID",
          "type": "string"
        }
      ],
      "name": "LSPDiverifikasi",
      "type": "event"
    },
    {
      "anonymous": false,
      "inputs": [
        {
          "indexed": true,
          "internalType": "address",
          "name": "lsp",
          "type": "address"
        },
        {
          "indexed": false,
          "internalType": "string",
          "name": "newMetadataCID",
          "type": "string"
        }
      ],
      "name": "LSPMetadataUpdated",
      "type": "event"
    },
    {
      "anonymous": false,
      "inputs": [
        {
          "indexed": true,
          "internalType": "address",
          "name": "peserta",
          "type": "address"
        },
        {
          "indexed": false,
          "internalType": "string",
          "name": "newCID",
          "type": "string"
        }
      ],
      "name": "MetadataDiupdate",
      "type": "event"
    },
    {
      "anonymous": false,
      "inputs": [
        {
          "indexed": true,
          "internalType": "address",
          "name": "peserta",
          "type": "address"
        },
        {
          "indexed": false,
          "internalType": "string",
          "name": "metadataCID",
          "type": "string"
        },
        {
          "indexed": false,
          "internalType": "uint256",
          "name": "tanggal",
          "type": "uint256"
        }
      ],
      "name": "PesertaTerdaftar",
      "type": "event"
    },
    {
      "anonymous": false,
      "inputs": [
        {
          "indexed": true,
          "internalType": "address",
          "name": "lsp",
          "type": "address"
        },
        {
          "indexed": false,
          "internalType": "address",
          "name": "sertifikasiID",
          "type": "address"
        },
        {
          "indexed": false,
          "internalType": "string",
          "name": "alasan",
          "type": "string"
        },
        {
          "indexed": false,
          "internalType": "uint256",
          "name": "tanggal",
          "type": "uint256"
        }
      ],
      "name": "SertifikasiBatal",
      "type": "event"
    },
    {
      "anonymous": false,
      "inputs": [
        {
          "indexed": true,
          "internalType": "address",
          "name": "peserta",
          "type": "address"
        },
        {
          "indexed": false,
          "internalType": "address",
          "name": "sertifikasiID",
          "type": "address"
        },
        {
          "indexed": false,
          "internalType": "enum SertifikasiStorage.SkemaSertifikasi",
          "name": "skema",
          "type": "uint8"
        },
        {
          "indexed": false,
          "internalType": "uint256",
          "name": "tanggal",
          "type": "uint256"
        }
      ],
      "name": "SertifikasiDiajukan",
      "type": "event"
    },
    {
      "inputs": [
        {
          "internalType": "address",
          "name": "lspAddress",
          "type": "address"
        }
      ],
      "name": "addLSPToWhitelist",
      "outputs": [],
      "stateMutability": "nonpayable",
      "type": "function"
    },
    {
      "inputs": [
        {
          "internalType": "enum SertifikasiStorage.SkemaSertifikasi",
          "name": "skema",
          "type": "uint8"
        }
      ],
      "name": "ajukanSertifikasi",
      "outputs": [],
      "stateMutability": "nonpayable",
      "type": "function"
    },
    {
      "inputs": [],
      "name": "batalkanSertifikasi",
      "outputs": [],
      "stateMutability": "nonpayable",
      "type": "function"
    },
    {
      "inputs": [],
      "name": "bnsp",
      "outputs": [
        {
          "internalType": "address",
          "name": "",
          "type": "address"
        }
      ],
      "stateMutability": "view",
      "type": "function"
    },
    {
      "inputs": [
        {
          "internalType": "address",
          "name": "peserta",
          "type": "address"
        }
      ],
      "name": "cekStatusPeserta",
      "outputs": [
        {
          "internalType": "bool",
          "name": "terdaftar",
          "type": "bool"
        },
        {
          "internalType": "bool",
          "name": "aktif",
          "type": "bool"
        },
        {
          "internalType": "bool",
          "name": "adaSertifikasiAktif",
          "type": "bool"
        },
        {
          "internalType": "uint256",
          "name": "totalSertifikasi",
          "type": "uint256"
        }
      ],
      "stateMutability": "view",
      "type": "function"
    },
    {
      "inputs": [
        {
          "internalType": "string",
          "name": "metadataCID",
          "type": "string"
        }
      ],
      "name": "daftarLSP",
      "outputs": [],
      "stateMutability": "nonpayable",
      "type": "function"
    },
    {
      "inputs": [
        {
          "internalType": "string",
          "name": "metadataCID",
          "type": "string"
        }
      ],
      "name": "daftarPeserta",
      "outputs": [],
      "stateMutability": "nonpayable",
      "type": "function"
    },
    {
      "inputs": [
        {
          "internalType": "address",
          "name": "sertifikasiID",
          "type": "address"
        }
      ],
      "name": "getDetailSertifikasi",
      "outputs": [
        {
          "components": [
            {
              "internalType": "address",
              "name": "peserta",
              "type": "address"
            },
            {
              "internalType": "enum SertifikasiStorage.SkemaSertifikasi",
              "name": "skema",
              "type": "uint8"
            },
            {
              "internalType": "string",
              "name": "sertifikatCID",
              "type": "string"
            },
            {
              "internalType": "bool",
              "name": "lulus",
              "type": "bool"
            },
            {
              "internalType": "bool",
              "name": "aktif",
              "type": "bool"
            },
            {
              "internalType": "uint256",
              "name": "tanggalPengajuan",
              "type": "uint256"
            },
            {
              "internalType": "uint256",
              "name": "tanggalSelesai",
              "type": "uint256"
            },
            {
              "internalType": "uint256",
              "name": "tanggalExpiry",
              "type": "uint256"
            },
            {
              "internalType": "address",
              "name": "lspPenilai",
              "type": "address"
            },
            {
              "internalType": "string",
              "name": "alasanGagal",
              "type": "string"
            }
          ],
          "internalType": "struct SertifikasiStorage.Sertifikasi",
          "name": "",
          "type": "tuple"
        }
      ],
      "stateMutability": "view",
      "type": "function"
    },
    {
      "inputs": [
        {
          "internalType": "address",
          "name": "lspAddress",
          "type": "address"
        }
      ],
      "name": "getLSP",
      "outputs": [
        {
          "internalType": "string",
          "name": "metadataCID",
          "type": "string"
        },
        {
          "internalType": "enum RegistrasiLSP.StatusLSP",
          "name": "status",
          "type": "uint8"
        },
        {
          "internalType": "string",
          "name": "suratIzinCID",
          "type": "string"
        },
        {
          "internalType": "string",
          "name": "alasanTolak",
          "type": "string"
        }
      ],
      "stateMutability": "view",
      "type": "function"
    },
    {
      "inputs": [
        {
          "internalType": "address",
          "name": "peserta",
          "type": "address"
        }
      ],
      "name": "getMetadataCID",
      "outputs": [
        {
          "internalType": "string",
          "name": "",
          "type": "string"
        }
      ],
      "stateMutability": "view",
      "type": "function"
    },
    {
      "inputs": [
        {
          "internalType": "address",
          "name": "sertifikasiID",
          "type": "address"
        }
      ],
      "name": "getNilaiPeserta",
      "outputs": [
        {
          "internalType": "uint8",
          "name": "",
          "type": "uint8"
        },
        {
          "internalType": "uint8",
          "name": "",
          "type": "uint8"
        },
        {
          "internalType": "uint8",
          "name": "",
          "type": "uint8"
        },
        {
          "internalType": "bool",
          "name": "",
          "type": "bool"
        }
      ],
      "stateMutability": "view",
      "type": "function"
    },
    {
      "inputs": [
        {
          "internalType": "address",
          "name": "peserta",
          "type": "address"
        }
      ],
      "name": "getPesertaInfo",
      "outputs": [
        {
          "internalType": "string",
          "name": "metadataCID",
          "type": "string"
        },
        {
          "internalType": "bool",
          "name": "terdaftar",
          "type": "bool"
        },
        {
          "internalType": "bool",
          "name": "aktif",
          "type": "bool"
        },
        {
          "internalType": "address",
          "name": "sertifikasiAktif",
          "type": "address"
        },
        {
          "internalType": "uint256",
          "name": "tanggalDaftar",
          "type": "uint256"
        },
        {
          "internalType": "uint256",
          "name": "totalSertifikasi",
          "type": "uint256"
        }
      ],
      "stateMutability": "view",
      "type": "function"
    },
    {
      "inputs": [
        {
          "internalType": "address",
          "name": "peserta",
          "type": "address"
        }
      ],
      "name": "getPesertaMetadata",
      "outputs": [
        {
          "internalType": "string",
          "name": "cid",
          "type": "string"
        }
      ],
      "stateMutability": "view",
      "type": "function"
    },
    {
      "inputs": [
        {
          "internalType": "address",
          "name": "sertifikasiID",
          "type": "address"
        }
      ],
      "name": "getSertifikasi",
      "outputs": [
        {
          "components": [
            {
              "internalType": "address",
              "name": "peserta",
              "type": "address"
            },
            {
              "internalType": "enum SertifikasiStorage.SkemaSertifikasi",
              "name": "skema",
              "type": "uint8"
            },
            {
              "internalType": "string",
              "name": "sertifikatCID",
              "type": "string"
            },
            {
              "internalType": "bool",
              "name": "lulus",
              "type": "bool"
            },
            {
              "internalType": "bool",
              "name": "aktif",
              "type": "bool"
            },
            {
              "internalType": "uint256",
              "name": "tanggalPengajuan",
              "type": "uint256"
            },
            {
              "internalType": "uint256",
              "name": "tanggalSelesai",
              "type": "uint256"
            },
            {
              "internalType": "uint256",
              "name": "tanggalExpiry",
              "type": "uint256"
            },
            {
              "internalType": "address",
              "name": "lspPenilai",
              "type": "address"
            },
            {
              "internalType": "string",
              "name": "alasanGagal",
              "type": "string"
            }
          ],
          "internalType": "struct SertifikasiStorage.Sertifikasi",
          "name": "",
          "type": "tuple"
        }
      ],
      "stateMutability": "view",
      "type": "function"
    },
    {
      "inputs": [
        {
          "internalType": "uint256",
          "name": "id",
          "type": "uint256"
        }
      ],
      "name": "getSertifikasiAddressById",
      "outputs": [
        {
          "internalType": "address",
          "name": "",
          "type": "address"
        }
      ],
      "stateMutability": "view",
      "type": "function"
    },
    {
      "inputs": [
        {
          "internalType": "address",
          "name": "sertifikasiID",
          "type": "address"
        }
      ],
      "name": "getSertifikasiDetail",
      "outputs": [
        {
          "internalType": "address",
          "name": "peserta",
          "type": "address"
        },
        {
          "internalType": "enum SertifikasiStorage.SkemaSertifikasi",
          "name": "skema",
          "type": "uint8"
        },
        {
          "internalType": "string",
          "name": "sertifikatCID",
          "type": "string"
        },
        {
          "internalType": "bool",
          "name": "lulus",
          "type": "bool"
        },
        {
          "internalType": "bool",
          "name": "aktif",
          "type": "bool"
        },
        {
          "internalType": "uint256",
          "name": "tanggalPengajuan",
          "type": "uint256"
        },
        {
          "internalType": "uint256",
          "name": "tanggalSelesai",
          "type": "uint256"
        },
        {
          "internalType": "address",
          "name": "lspPenilai",
          "type": "address"
        },
        {
          "internalType": "string",
          "name": "alasanGagal",
          "type": "string"
        }
      ],
      "stateMutability": "view",
      "type": "function"
    },
    {
      "inputs": [
        {
          "internalType": "address",
          "name": "sertifikasiID",
          "type": "address"
        }
      ],
      "name": "getSertifikatCID",
      "outputs": [
        {
          "internalType": "string",
          "name": "cid",
          "type": "string"
        }
      ],
      "stateMutability": "view",
      "type": "function"
    },
    {
      "inputs": [
        {
          "internalType": "enum SertifikasiStorage.SkemaSertifikasi",
          "name": "skema",
          "type": "uint8"
        }
      ],
      "name": "getSkemaNama",
      "outputs": [
        {
          "internalType": "string",
          "name": "",
          "type": "string"
        }
      ],
      "stateMutability": "pure",
      "type": "function"
    },
    {
      "inputs": [
        {
          "internalType": "address",
          "name": "lspAddress",
          "type": "address"
        }
      ],
      "name": "getStatusLSP",
      "outputs": [
        {
          "internalType": "int8",
          "name": "",
          "type": "int8"
        }
      ],
      "stateMutability": "view",
      "type": "function"
    },
    {
      "inputs": [],
      "name": "getTotalSertifikasi",
      "outputs": [
        {
          "internalType": "uint256",
          "name": "",
          "type": "uint256"
        }
      ],
      "stateMutability": "view",
      "type": "function"
    },
    {
      "inputs": [
        {
          "internalType": "address",
          "name": "lspAddress",
          "type": "address"
        }
      ],
      "name": "hapusLSP",
      "outputs": [],
      "stateMutability": "nonpayable",
      "type": "function"
    },
    {
      "inputs": [
        {
          "internalType": "address",
          "name": "sertifikasiID",
          "type": "address"
        },
        {
          "internalType": "uint8",
          "name": "tulis",
          "type": "uint8"
        },
        {
          "internalType": "uint8",
          "name": "praktek",
          "type": "uint8"
        },
        {
          "internalType": "uint8",
          "name": "wawancara",
          "type": "uint8"
        }
      ],
      "name": "inputNilaiPeserta",
      "outputs": [],
      "stateMutability": "nonpayable",
      "type": "function"
    },
    {
      "inputs": [
        {
          "internalType": "address",
          "name": "",
          "type": "address"
        }
      ],
      "name": "isLSP",
      "outputs": [
        {
          "internalType": "bool",
          "name": "",
          "type": "bool"
        }
      ],
      "stateMutability": "view",
      "type": "function"
    },
    {
      "inputs": [
        {
          "internalType": "address",
          "name": "",
          "type": "address"
        }
      ],
      "name": "isLSPTerdaftar",
      "outputs": [
        {
          "internalType": "bool",
          "name": "",
          "type": "bool"
        }
      ],
      "stateMutability": "view",
      "type": "function"
    },
    {
      "inputs": [
        {
          "internalType": "address",
          "name": "",
          "type": "address"
        }
      ],
      "name": "isPesertaTerdaftar",
      "outputs": [
        {
          "internalType": "bool",
          "name": "",
          "type": "bool"
        }
      ],
      "stateMutability": "view",
      "type": "function"
    },
    {
      "inputs": [
        {
          "internalType": "address",
          "name": "peserta",
          "type": "address"
        }
      ],
      "name": "lihatRiwayatSertifikasi",
      "outputs": [
        {
          "internalType": "address[]",
          "name": "",
          "type": "address[]"
        }
      ],
      "stateMutability": "view",
      "type": "function"
    },
    {
      "inputs": [
        {
          "internalType": "address",
          "name": "",
          "type": "address"
        }
      ],
      "name": "lspList",
      "outputs": [
        {
          "internalType": "string",
          "name": "metadataCID",
          "type": "string"
        },
        {
          "internalType": "enum RegistrasiLSP.StatusLSP",
          "name": "status",
          "type": "uint8"
        },
        {
          "internalType": "string",
          "name": "suratIzinCID",
          "type": "string"
        },
        {
          "internalType": "string",
          "name": "alasanTolak",
          "type": "string"
        }
      ],
      "stateMutability": "view",
      "type": "function"
    },
    {
      "inputs": [
        {
          "internalType": "address",
          "name": "",
          "type": "address"
        }
      ],
      "name": "lspWhitelist",
      "outputs": [
        {
          "internalType": "bool",
          "name": "",
          "type": "bool"
        }
      ],
      "stateMutability": "view",
      "type": "function"
    },
    {
      "inputs": [
        {
          "internalType": "address",
          "name": "",
          "type": "address"
        }
      ],
      "name": "nilaiPeserta",
      "outputs": [
        {
          "internalType": "uint8",
          "name": "tulis",
          "type": "uint8"
        },
        {
          "internalType": "uint8",
          "name": "praktek",
          "type": "uint8"
        },
        {
          "internalType": "uint8",
          "name": "wawancara",
          "type": "uint8"
        },
        {
          "internalType": "bool",
          "name": "sudahInput",
          "type": "bool"
        }
      ],
      "stateMutability": "view",
      "type": "function"
    },
    {
      "inputs": [],
      "name": "pesertaCount",
      "outputs": [
        {
          "internalType": "uint256",
          "name": "",
          "type": "uint256"
        }
      ],
      "stateMutability": "view",
      "type": "function"
    },
    {
      "inputs": [
        {
          "internalType": "address",
          "name": "",
          "type": "address"
        }
      ],
      "name": "pesertaList",
      "outputs": [
        {
          "internalType": "string",
          "name": "metadataCID",
          "type": "string"
        },
        {
          "internalType": "bool",
          "name": "terdaftar",
          "type": "bool"
        },
        {
          "internalType": "bool",
          "name": "aktif",
          "type": "bool"
        },
        {
          "internalType": "address",
          "name": "sertifikasiAktif",
          "type": "address"
        },
        {
          "internalType": "uint256",
          "name": "tanggalDaftar",
          "type": "uint256"
        }
      ],
      "stateMutability": "view",
      "type": "function"
    },
    {
      "inputs": [
        {
          "internalType": "uint256",
          "name": "",
          "type": "uint256"
        }
      ],
      "name": "sertifikasiById",
      "outputs": [
        {
          "internalType": "address",
          "name": "",
          "type": "address"
        }
      ],
      "stateMutability": "view",
      "type": "function"
    },
    {
      "inputs": [
        {
          "internalType": "address",
          "name": "",
          "type": "address"
        }
      ],
      "name": "sertifikasiList",
      "outputs": [
        {
          "internalType": "address",
          "name": "peserta",
          "type": "address"
        },
        {
          "internalType": "enum SertifikasiStorage.SkemaSertifikasi",
          "name": "skema",
          "type": "uint8"
        },
        {
          "internalType": "string",
          "name": "sertifikatCID",
          "type": "string"
        },
        {
          "internalType": "bool",
          "name": "lulus",
          "type": "bool"
        },
        {
          "internalType": "bool",
          "name": "aktif",
          "type": "bool"
        },
        {
          "internalType": "uint256",
          "name": "tanggalPengajuan",
          "type": "uint256"
        },
        {
          "internalType": "uint256",
          "name": "tanggalSelesai",
          "type": "uint256"
        },
        {
          "internalType": "uint256",
          "name": "tanggalExpiry",
          "type": "uint256"
        },
        {
          "internalType": "address",
          "name": "lspPenilai",
          "type": "address"
        },
        {
          "internalType": "string",
          "name": "alasanGagal",
          "type": "string"
        }
      ],
      "stateMutability": "view",
      "type": "function"
    },
    {
      "inputs": [
        {
          "internalType": "address",
          "name": "lspAddress",
          "type": "address"
        },
        {
          "internalType": "string",
          "name": "alasan",
          "type": "string"
        }
      ],
      "name": "tolakLSP",
      "outputs": [],
      "stateMutability": "nonpayable",
      "type": "function"
    },
    {
      "inputs": [
        {
          "internalType": "address",
          "name": "sertifikasiID",
          "type": "address"
        },
        {
          "internalType": "string",
          "name": "alasan",
          "type": "string"
        }
      ],
      "name": "updateKegagalan",
      "outputs": [],
      "stateMutability": "nonpayable",
      "type": "function"
    },
    {
      "inputs": [
        {
          "internalType": "address",
          "name": "sertifikasiID",
          "type": "address"
        },
        {
          "internalType": "string",
          "name": "sertifikatCID",
          "type": "string"
        }
      ],
      "name": "updateKelulusan",
      "outputs": [],
      "stateMutability": "nonpayable",
      "type": "function"
    },
    {
      "inputs": [
        {
          "internalType": "string",
          "name": "newCID",
          "type": "string"
        }
      ],
      "name": "updateMetadata",
      "outputs": [],
      "stateMutability": "nonpayable",
      "type": "function"
    },
    {
      "inputs": [
        {
          "internalType": "string",
          "name": "newMetadataCID",
          "type": "string"
        }
      ],
      "name": "updateMetadataLSP",
      "outputs": [],
      "stateMutability": "nonpayable",
      "type": "function"
    },
    {
      "inputs": [
        {
          "internalType": "address",
          "name": "sertifikasiID",
          "type": "address"
        }
      ],
      "name": "verifikasiKelulusan",
      "outputs": [
        {
          "internalType": "bool",
          "name": "valid",
          "type": "bool"
        }
      ],
      "stateMutability": "view",
      "type": "function"
    },
    {
      "inputs": [
        {
          "internalType": "address",
          "name": "lspAddress",
          "type": "address"
        },
        {
          "internalType": "string",
          "name": "suratIzinCID",
          "type": "string"
        }
      ],
      "name": "verifikasiLSP",
      "outputs": [],
      "stateMutability": "nonpayable",
      "type": "function"
    },
    {
      "inputs": [
        {
          "internalType": "address",
          "name": "sertifikasiID",
          "type": "address"
        }
      ],
      "name": "verifikasiSertifikasiLengkap",
      "outputs": [
        {
          "internalType": "bool",
          "name": "exists",
          "type": "bool"
        },
        {
          "internalType": "bool",
          "name": "lulus",
          "type": "bool"
        },
        {
          "internalType": "bool",
          "name": "aktif",
          "type": "bool"
        },
        {
          "internalType": "address",
          "name": "peserta",
          "type": "address"
        },
        {
          "internalType": "enum SertifikasiStorage.SkemaSertifikasi",
          "name": "skema",
          "type": "uint8"
        },
        {
          "internalType": "string",
          "name": "sertifikatCID",
          "type": "string"
        },
        {
          "internalType": "uint256",
          "name": "tanggalSelesai",
          "type": "uint256"
        },
        {
          "internalType": "address",
          "name": "lspPenilai",
          "type": "address"
        }
      ],
      "stateMutability": "view",
      "type": "function"
    }
  ],
  "bytecode": "0x6080604052348015600f57600080fd5b50600080546001600160a01b03191633179055614061806100316000396000f3fe608060405234801561001057600080fd5b50600436106102525760003560e01c8063732a6f3211610146578063c73c6005116100c3578063e064453211610087578063e06445321461068c578063e216eaeb146106b2578063e8acac99146106c5578063f2416e3e146106d8578063f26d0d29146106e0578063f81ce2d21461070357600080fd5b8063c73c6005146104b3578063cb5fb9a014610616578063d39cd69e1461063d578063d75f27ac14610666578063db9a4df41461067957600080fd5b80639e2ed8841161010a5780639e2ed8841461059e578063a35fcfe5146105b1578063a3d9914f14610289578063afaf49ea146105c4578063b7352cfc146105d757600080fd5b8063732a6f321461052f5780637433efb4146105425780638d70327f14610555578063918b5be1146105785780639653d19e1461058b57600080fd5b80633ced72f9116101d45780635dc49397116101985780635dc49397146104b35780635e58b527146104d35780635eb5e4e7146104f65780636df8a5a6146105095780636e75758e1461051c57600080fd5b80633ced72f9146103a15780634021e5cf146103b45780634586d672146103d7578063542a7dc2146104755780635cf6de2b1461048857600080fd5b806316467b601161021b57806316467b601461030557806316c89ca01461031a57806316efcaac14610342578063282ef021146103665780633af61c211461036e57600080fd5b8062ee260b146102575780630b5a9a7e146102895780630e0473e5146102a95780631017604f146102c057806314851c8a146102e5575b600080fd5b61026a61026536600461356e565b61073e565b6040516102809a999897969594939291906135f9565b60405180910390f35b61029c61029736600461356e565b6108c2565b6040516102809190613683565b6102b260065481565b604051908152602001610280565b6102d36102ce36600461356e565b610b35565b60405161028096959493929190613753565b6102f86102f336600461356e565b610cda565b6040516102809190613798565b61031861031336600461382d565b610d53565b005b61032d61032836600461356e565b610f3d565b60405161028099989796959493929190613880565b61035561035036600461356e565b6111b6565b604051610280959493929190613901565b61031861127f565b61039161037c36600461356e565b600b6020526000908152604090205460ff1681565b6040519015158152602001610280565b6103186103af36600461382d565b6114a0565b6103916103c236600461356e565b60046020526000908152604090205460ff1681565b6104466103e536600461356e565b6001600160a01b03166000908152600760209081526040918290208251608081018452905460ff8082168084526101008304821694840185905262010000830482169584018690526301000000909204161515606090920182905293919291565b604051610280949392919060ff9485168152928416602084015292166040820152901515606082015260800190565b61031861048336600461356e565b611640565b60005461049b906001600160a01b031681565b6040516001600160a01b039091168152602001610280565b6104c66104c136600461356e565b611756565b6040516102809190613941565b6103916104e136600461356e565b60016020526000908152604090205460ff1681565b610318610504366004613954565b611862565b61031861051736600461382d565b611c11565b61049b61052a366004613975565b611e00565b61031861053d36600461382d565b611e6d565b61039161055036600461356e565b61202a565b61056861056336600461356e565b61224d565b604051610280949392919061398e565b6103186105863660046139e8565b612437565b61056861059936600461356e565b612546565b6103186105ac3660046139e8565b61270f565b6103186105bf3660046139e8565b612826565b6103186105d23660046139e8565b612af7565b6104466105e536600461356e565b60076020526000908152604090205460ff808216916101008104821691620100008204811691630100000090041684565b61062961062436600461356e565b612d3b565b604051610280989796959493929190613a2a565b61049b61064b366004613975565b6009602052600090815260409020546001600160a01b031681565b61031861067436600461356e565b612faf565b610318610687366004613aa9565b612ffa565b61069f61069a36600461356e565b6131b5565b60405160009190910b8152602001610280565b6104c66106c036600461356e565b61320e565b6104c66106d3366004613954565b61326e565b6008546102b2565b6103916106ee36600461356e565b600c6020526000908152604090205460ff1681565b61071661071136600461356e565b61333c565b6040805194151585529215156020850152901515918301919091526060820152608001610280565b600360205260009081526040902080546001820180546001600160a01b03831693600160a01b90930460ff1692919061077690613afd565b80601f01602080910402602001604051908101604052809291908181526020018280546107a290613afd565b80156107ef5780601f106107c4576101008083540402835291602001916107ef565b820191906000526020600020905b8154815290600101906020018083116107d257829003601f168201915b5050505060028301546003840154600485015460058601546006870154600788018054979860ff808816996101009098041697509495939492936001600160a01b03909216929161083f90613afd565b80601f016020809104026020016040519081016040528092919081815260200182805461086b90613afd565b80156108b85780601f1061088d576101008083540402835291602001916108b8565b820191906000526020600020905b81548152906001019060200180831161089b57829003601f168201915b505050505090508a565b604080516101408101825260008082526020820181905260609282018390528282018190526080820181905260a0820181905260c0820181905260e082018190526101008201526101208101919091526001600160a01b03828116600090815260036020526040902054166109525760405162461bcd60e51b815260040161094990613b37565b60405180910390fd5b6001600160a01b038281166000908152600360208181526040928390208351610140810190945280549485168452929390840191600160a01b90910460ff16908111156109a1576109a1613589565b60038111156109b2576109b2613589565b81526020016001820180546109c690613afd565b80601f01602080910402602001604051908101604052809291908181526020018280546109f290613afd565b8015610a3f5780601f10610a1457610100808354040283529160200191610a3f565b820191906000526020600020905b815481529060010190602001808311610a2257829003601f168201915b5050509183525050600282015460ff8082161515602084015261010090910416151560408201526003820154606082015260048201546080820152600582015460a082015260068201546001600160a01b031660c082015260078201805460e090920191610aac90613afd565b80601f0160208091040260200160405190810160405280929190818152602001828054610ad890613afd565b8015610b255780601f10610afa57610100808354040283529160200191610b25565b820191906000526020600020905b815481529060010190602001808311610b0857829003601f168201915b5050505050815250509050919050565b606060008060008060008060026000896001600160a01b03166001600160a01b031681526020019081526020016000206040518060c0016040529081600082018054610b8090613afd565b80601f0160208091040260200160405190810160405280929190818152602001828054610bac90613afd565b8015610bf95780601f10610bce57610100808354040283529160200191610bf9565b820191906000526020600020905b815481529060010190602001808311610bdc57829003601f168201915b5050509183525050600182015460ff808216151560208085019190915261010083049091161515604080850191909152620100009092046001600160a01b031660608401526002840180548351818402810184019094528084526080909401939091830182828015610c9457602002820191906000526020600020905b81546001600160a01b03168152600190910190602001808311610c76575b5050509183525050600391909101546020918201528151908201516040830151606084015160a085015160809095015151939d929c50909a509850919650945092505050565b6001600160a01b038116600090815260026020818152604092839020909101805483518184028101840190945280845260609392830182828015610d4757602002820191906000526020600020905b81546001600160a01b03168152600190910190602001808311610d29575b50505050509050919050565b3360009081526001602052604090205460ff16610d825760405162461bcd60e51b815260040161094990613b6e565b826001600160a01b038116610da95760405162461bcd60e51b815260040161094990613b91565b82828080601f0160208091040260200160405190810160405280939291908181526020018383808284376000920182905250845190039250610e009150505760405162461bcd60e51b815260040161094990613bbd565b6001600160a01b03851660009081526003602052604090206002810154610100900460ff16610e6b5760405162461bcd60e51b815260206004820152601760248201527629b2b93a34b334b5b0b9b4903a34b230b59030b5ba34b360491b6044820152606401610949565b80546001600160a01b0316610e925760405162461bcd60e51b815260040161094990613b37565b60028101805461ffff191690554260048201556006810180546001600160a01b0319163317905560078101610ec8858783613c59565b5080546001600160a01b031660009081526002602052604090819020600101805462010000600160b01b03191690555133907f7176ae479d15b28ef81160f7cb60a461e03d280ed14952ffe689854e31aede6490610f2d908990899089904290613d42565b60405180910390a2505050505050565b6001600160a01b038181166000908152600360205260408120549091829160609183918291829182918291879116610f875760405162461bcd60e51b815260040161094990613b37565b6001600160a01b038a811660009081526003602081815260408084208151610140810190925280549586168252939490939291840191600160a01b90910460ff1690811115610fd857610fd8613589565b6003811115610fe957610fe9613589565b8152602001600182018054610ffd90613afd565b80601f016020809104026020016040519081016040528092919081815260200182805461102990613afd565b80156110765780601f1061104b57610100808354040283529160200191611076565b820191906000526020600020905b81548152906001019060200180831161105957829003601f168201915b5050509183525050600282015460ff8082161515602084015261010090910416151560408201526003820154606082015260048201546080820152600582015460a082015260068201546001600160a01b031660c082015260078201805460e0909201916110e390613afd565b80601f016020809104026020016040519081016040528092919081815260200182805461110f90613afd565b801561115c5780601f106111315761010080835404028352916020019161115c565b820191906000526020600020905b81548152906001019060200180831161113f57829003601f168201915b5050505050815250509050806000015181602001518260400151836060015184608001518560a001518660c00151876101000151886101200151995099509950995099509950995099509950509193959799909294969850565b6002602052600090815260409020805481906111d190613afd565b80601f01602080910402602001604051908101604052809291908181526020018280546111fd90613afd565b801561124a5780601f1061121f5761010080835404028352916020019161124a565b820191906000526020600020905b81548152906001019060200180831161122d57829003601f168201915b505050506001830154600390930154919260ff8082169361010083049091169250620100009091046001600160a01b03169085565b3360009081526002602052604090206001015460ff1680156112b8575033600090815260026020526040902060010154610100900460ff165b6112d45760405162461bcd60e51b815260040161094990613d78565b336000908152600260205260409020600101546201000090046001600160a01b0316806113435760405162461bcd60e51b815260206004820152601b60248201527f546964616b2061646120736572746966696b61736920616b74696600000000006044820152606401610949565b6001600160a01b03811660009081526003602052604090206002810154610100900460ff166113b45760405162461bcd60e51b815260206004820152601d60248201527f536572746966696b61736920737564616820746964616b20616b7469660000006044820152606401610949565b60028101805461ff00191690554260048201556040805180820190915260178152764469626174616c6b616e206f6c6568207065736572746160481b602082015260078201906114049082613da5565b50336000908152600260209081526040808320600101805462010000600160b01b031916905580516001600160a01b03861681526060928101839052601792810192909252764469626174616c6b616e206f6c6568207065736572746160481b608083015242908201527f7176ae479d15b28ef81160f7cb60a461e03d280ed14952ffe689854e31aede649060a0015b60405180910390a25050565b6000546001600160a01b031633146114ca5760405162461bcd60e51b815260040161094990613e64565b826001600160a01b0381166114f15760405162461bcd60e51b815260040161094990613b91565b82828080601f01602080910402602001604051908101604052809392919081815260200183838082843760009201829052508451900392506115489150505760405162461bcd60e51b815260040161094990613bbd565b6001600160a01b0385166000908152600a6020526040812090600182015460ff16600281111561157a5761157a613589565b146115c75760405162461bcd60e51b815260206004820152601f60248201527f4c535020746964616b2064616c616d20737461747573206d656e756e676775006044820152606401610949565b60018101805460ff19166002179055600381016115e5858783613c59565b5060408051602081019091526000815260028201906116049082613da5565b50856001600160a01b03167f6214efe84e589b41714ba0c9ee2bb9bde0eb09b641a218032b5f7ad0e7ee777d8686604051610f2d929190613e88565b6000546001600160a01b0316331461166a5760405162461bcd60e51b815260040161094990613e64565b806001600160a01b0381166116915760405162461bcd60e51b815260040161094990613b91565b6001600160a01b0382166000908152600c602052604090205460ff16156116ef5760405162461bcd60e51b815260206004820152601260248201527114dd59185a08191a4b5dda1a5d195b1a5cdd60721b6044820152606401610949565b6001600160a01b0382166000818152600c602052604090819020805460ff19166001179055517fb805885fe4dd8482cc8db6d8ad71cbb6eb1f7a7d765760278d55a92d6fad29f190611494906020808252600190820152602d60f81b604082015260600190565b6001600160a01b03811660009081526002602052604090206001015460609060ff166117c45760405162461bcd60e51b815260206004820152601760248201527f5065736572746120746964616b207465726461667461720000000000000000006044820152606401610949565b6001600160a01b038216600090815260026020526040902080546117e790613afd565b80601f016020809104026020016040519081016040528092919081815260200182805461181390613afd565b8015610d475780601f1061183557610100808354040283529160200191610d47565b820191906000526020600020905b8154815290600101906020018083116118435750939695505050505050565b3360009081526002602052604090206001015460ff16801561189b575033600090815260026020526040902060010154610100900460ff165b6118b75760405162461bcd60e51b815260040161094990613d78565b33600090815260026020526040902060018101546201000090046001600160a01b0316156119275760405162461bcd60e51b815260206004820152601b60248201527f4d617369682061646120736572746966696b61736920616b74696600000000006044820152606401610949565b6008805490600061193783613eba565b909155505060085433600081815260056020526040812080549192849290914291908561196383613eba565b909155506040805160a060208201819052600c60c08301526b534552544946494b4153495f60a01b60e0830152918101959095526001600160a01b0390931660608501526080840191909152908201526101000160408051808303601f19018152828252805160209182012060008681526009835283902080546001600160a01b0319166001600160a01b03831617905561014084019092523383529092508101856003811115611a1657611a16613589565b815260200160405180602001604052806000815250815260200160001515815260200160011515815260200142815260200160008152602001426305a39a80611a5f9190613ed3565b815260006020808301829052604080518083018252838152938101939093526001600160a01b0385811683526003808352939092208451815493166001600160a01b0319841681178255918501519093909284926001600160a81b03199091161790600160a01b908490811115611ad857611ad8613589565b021790555060408201516001820190611af19082613da5565b506060820151600282018054608085015161ffff1990911692151561ff00191692909217610100921515830217905560a0830151600383015560c0830151600483015560e083015160058301558201516006820180546001600160a01b0319166001600160a01b039092169190911790556101208201516007820190611b779082613da5565b5050506001838101805462010000600160b01b031916620100006001600160a01b03851690810291909117909155600285018054928301815560009081526020902090910180546001600160a01b031916909117905560405133907f3ac6af73e630a22fd1e8f791a2b123684b5551df2f5f617948313d0df595a37290611c0390849088904290613eec565b60405180910390a250505050565b3360009081526001602052604090205460ff16611c405760405162461bcd60e51b815260040161094990613b6e565b826001600160a01b038116611c675760405162461bcd60e51b815260040161094990613b91565b82828080601f0160208091040260200160405190810160405280939291908181526020018383808284376000920182905250845190039250611cbe9150505760405162461bcd60e51b815260040161094990613bbd565b6001600160a01b03851660009081526003602052604090206002810154610100900460ff16611d295760405162461bcd60e51b815260206004820152601760248201527629b2b93a34b334b5b0b9b4903a34b230b59030b5ba34b360491b6044820152606401610949565b80546001600160a01b0316611d505760405162461bcd60e51b815260040161094990613b37565b60028101805460ff191660019081179091558101611d6f858783613c59565b506002808201805461ff001916905542600483018190556006830180546001600160a01b0319163390811790915583546001600160a01b03166000908152602093909352604092839020600101805462010000600160b01b031916905591517fad88f87555b407755a665f13e36f4952e39e6ee937b6c0adb7896b91d47bb8e391610f2d918a918a918a9190613d42565b60006008548211158015611e145750600082115b611e515760405162461bcd60e51b815260206004820152600e60248201526d1251081d1a59185ac81d985b1a5960921b6044820152606401610949565b506000908152600960205260409020546001600160a01b031690565b6000546001600160a01b03163314611e975760405162461bcd60e51b815260040161094990613e64565b826001600160a01b038116611ebe5760405162461bcd60e51b815260040161094990613b91565b82828080601f0160208091040260200160405190810160405280939291908181526020018383808284376000920182905250845190039250611f159150505760405162461bcd60e51b815260040161094990613bbd565b6001600160a01b0385166000908152600a6020526040812090600182015460ff166002811115611f4757611f47613589565b14611f945760405162461bcd60e51b815260206004820152601f60248201527f4c535020746964616b2064616c616d20737461747573206d656e756e676775006044820152606401610949565b6001818101805460ff1916909117905560028101611fb3858783613c59565b506040805160208101909152600081526003820190611fd29082613da5565b506001600160a01b038616600081815260016020819052604091829020805460ff19169091179055517fa2afc48ad450df786fc5287f1e8dea74f2f5e8252d2aac21bb732fb36e83f94690610f2d9088908890613e88565b6001600160a01b0381811660009081526003602052604081205490911661205357506000919050565b6001600160a01b0382811660009081526003602081815260408084208151610140810190925280549586168252939490939291840191600160a01b90910460ff16908111156120a4576120a4613589565b60038111156120b5576120b5613589565b81526020016001820180546120c990613afd565b80601f01602080910402602001604051908101604052809291908181526020018280546120f590613afd565b80156121425780601f1061211757610100808354040283529160200191612142565b820191906000526020600020905b81548152906001019060200180831161212557829003601f168201915b5050509183525050600282015460ff8082161515602084015261010090910416151560408201526003820154606082015260048201546080820152600582015460a082015260068201546001600160a01b031660c082015260078201805460e0909201916121af90613afd565b80601f01602080910402602001604051908101604052809291908181526020018280546121db90613afd565b80156122285780601f106121fd57610100808354040283529160200191612228565b820191906000526020600020905b81548152906001019060200180831161220b57829003601f168201915b50505050508152505090508060600151801561224657508060800151155b9392505050565b6001600160a01b0381166000908152600a60205260408120600181015481546060939284928392829160ff169060028301906003840190849061228f90613afd565b80601f01602080910402602001604051908101604052809291908181526020018280546122bb90613afd565b80156123085780601f106122dd57610100808354040283529160200191612308565b820191906000526020600020905b8154815290600101906020018083116122eb57829003601f168201915b5050505050935081805461231b90613afd565b80601f016020809104026020016040519081016040528092919081815260200182805461234790613afd565b80156123945780601f1061236957610100808354040283529160200191612394565b820191906000526020600020905b81548152906001019060200180831161237757829003601f168201915b505050505091508080546123a790613afd565b80601f01602080910402602001604051908101604052809291908181526020018280546123d390613afd565b80156124205780601f106123f557610100808354040283529160200191612420565b820191906000526020600020905b81548152906001019060200180831161240357829003601f168201915b505050505090509450945094509450509193509193565b3360009081526002602052604090206001015460ff168015612470575033600090815260026020526040902060010154610100900460ff165b61248c5760405162461bcd60e51b815260040161094990613d78565b81818080601f01602080910402602001604051908101604052809392919081815260200183838082843760009201829052508451900392506124e39150505760405162461bcd60e51b815260040161094990613bbd565b3360009081526002602052604090206124fd838583613c59565b50336001600160a01b03167fbfc8ffd6fbbc13c20f5b640faea3048bcbf648d1ed4ab5a142eb81a4d5c11eca8484604051612539929190613e88565b60405180910390a2505050565b600a6020526000908152604090208054819061256190613afd565b80601f016020809104026020016040519081016040528092919081815260200182805461258d90613afd565b80156125da5780601f106125af576101008083540402835291602001916125da565b820191906000526020600020905b8154815290600101906020018083116125bd57829003601f168201915b5050506001840154600285018054949560ff9092169491935091506125fe90613afd565b80601f016020809104026020016040519081016040528092919081815260200182805461262a90613afd565b80156126775780601f1061264c57610100808354040283529160200191612677565b820191906000526020600020905b81548152906001019060200180831161265a57829003601f168201915b50505050509080600301805461268c90613afd565b80601f01602080910402602001604051908101604052809291908181526020018280546126b890613afd565b80156127055780601f106126da57610100808354040283529160200191612705565b820191906000526020600020905b8154815290600101906020018083116126e857829003601f168201915b5050505050905084565b81818080601f01602080910402602001604051908101604052809392919081815260200183838082843760009201829052508451900392506127669150505760405162461bcd60e51b815260040161094990613bbd565b336000908152600a602052604081206001015460ff16600281111561278d5761278d613589565b036127d05760405162461bcd60e51b81526020600482015260136024820152722132b63ab6903832b93730b4103230b33a30b960691b6044820152606401610949565b336000908152600a602052604090206127ea838583613c59565b50336001600160a01b03167f888338719acbecc4ba224509d272f9176d7b20628c353787dd9b2a1cdcd33f638484604051612539929190613e88565b81818080601f016020809104026020016040519081016040528093929190818152602001838380828437600092018290525084519003925061287d9150505760405162461bcd60e51b815260040161094990613bbd565b336000908152600a602052604081206001015460ff1660028111156128a4576128a4613589565b146129085760405162461bcd60e51b815260206004820152602e60248201527f5375646168207065726e6168206461667461722061746175207374617475732060448201526d62756b616e204d656e756e67677560901b6064820152608401610949565b336000908152600a60205260409020805461292290613afd565b1590506129675760405162461bcd60e51b815260206004820152601360248201527229bab230b4103832b93730b4103230b33a30b960691b6044820152606401610949565b6000546001600160a01b031633036129cc5760405162461bcd60e51b815260206004820152602260248201527f424e535020746964616b2062697361206461667461722073656261676169204c604482015261053560f41b6064820152608401610949565b604051806080016040528084848080601f016020809104026020016040519081016040528093929190818152602001838380828437600092018290525093855250505060208083018290526040805180830182528381528185015280518083018252838152606090940193909352338252600a90522081518190612a509082613da5565b50602082015160018083018054909160ff1990911690836002811115612a7857612a78613589565b021790555060408201516002820190612a919082613da5565b5060608201516003820190612aa69082613da5565b5050336000818152600b602052604090819020805460ff19166001179055519091507f97aeb5fb194ec62c9d9b39612021999b672308ae532baa9acaef2ddc56c95c4f906125399086908690613e88565b81818080601f0160208091040260200160405190810160405280939291908181526020018383808284376000920182905250845190039250612b4e9150505760405162461bcd60e51b815260040161094990613bbd565b3360009081526002602052604090206001015460ff1615612ba35760405162461bcd60e51b815260206004820152600f60248201526e29bab230b4103a32b93230b33a30b960891b6044820152606401610949565b6040518060c0016040528084848080601f0160208091040260200160405190810160405280939291908181526020018383808284376000920182905250938552505060016020840181905260408401525060608201819052608090910190604051908082528060200260200182016040528015612c2a578160200160208202803683370190505b5081524260209182015233600090815260029091526040902081518190612c519082613da5565b50602082810151600183018054604086015160608701516001600160a01b0316620100000262010000600160b01b03199115156101000261ff00199515159590951661ffff1990931692909217939093179290921691909117905560808301518051612cc392600285019201906134dd565b5060a09190910151600390910155336000908152600460205260408120805460ff191660011790556006805491612cf983613eba565b9190505550336001600160a01b03167f5c2d1095c6c47db736747eb0de0af919db06bb86af4c022f4da6cd652fde0ea884844260405161253993929190613f17565b6001600160a01b038181166000908152600360208181526040808420815161014081019092528054958616825293948594859485948594606094869485948594919291840191600160a01b900460ff1690811115612d9b57612d9b613589565b6003811115612dac57612dac613589565b8152602001600182018054612dc090613afd565b80601f0160208091040260200160405190810160405280929190818152602001828054612dec90613afd565b8015612e395780601f10612e0e57610100808354040283529160200191612e39565b820191906000526020600020905b815481529060010190602001808311612e1c57829003601f168201915b5050509183525050600282015460ff8082161515602084015261010090910416151560408201526003820154606082015260048201546080820152600582015460a082015260068201546001600160a01b031660c082015260078201805460e090920191612ea690613afd565b80601f0160208091040260200160405190810160405280929190818152602001828054612ed290613afd565b8015612f1f5780601f10612ef457610100808354040283529160200191612f1f565b820191906000526020600020905b815481529060010190602001808311612f0257829003601f168201915b50505091909252505081516001600160a01b031615159a50909150899050612f6c575050604080516020810190915260008082529750879650869550859450849350915082905080612fa4565b6001816060015182608001518360000151846020015185604001518660c0015187610100015198509850985098509850985098509850505b919395975091939597565b6000546001600160a01b03163314612fd95760405162461bcd60e51b815260040161094990613e64565b6001600160a01b03166000908152600b60205260409020805460ff19169055565b3360009081526001602052604090205460ff166130295760405162461bcd60e51b815260040161094990613b6e565b836001600160a01b0381166130505760405162461bcd60e51b815260040161094990613b91565b6001600160a01b0385166000908152600760205260409020546301000000900460ff16156130b65760405162461bcd60e51b8152602060048201526013602482015272139a5b185a481cdd59185a08191a5a5b9c1d5d606a1b6044820152606401610949565b60648460ff16111580156130ce575060648360ff1611155b80156130de575060648260ff1611155b61311f5760405162461bcd60e51b815260206004820152601260248201527104e696c6169206d616b73696d616c203130360741b6044820152606401610949565b506040805160808101825260ff948516815292841660208085019182529285168483019081526001606086019081526001600160a01b03909716600090815260079094529190922092518354925191519551151563010000000263ff0000001996861662010000029690961663ffff0000199286166101000261ffff199094169190951617919091171691909117919091179055565b6001600160a01b0381166000908152600b602052604081205460ff166131de5750600019919050565b6001600160a01b0382166000908152600a602052604081206001015460ff16600281111561224657612246613589565b6001600160a01b03818116600090815260036020526040902054606091166132485760405162461bcd60e51b815260040161094990613b37565b6001600160a01b038216600090815260036020526040902060010180546117e790613afd565b6060600082600381111561328457613284613589565b036132a8576040518060800160405280604c8152602001613f70604c913992915050565b60018260038111156132bc576132bc613589565b036132e057604051806060016040528060368152602001613ff66036913992915050565b60028260038111156132f4576132f4613589565b03613318576040518060600160405280603a8152602001613fbc603a913992915050565b604051806060016040528060348152602001613f3c6034913992915050565b919050565b600080600080600060026000876001600160a01b03166001600160a01b031681526020019081526020016000206040518060c001604052908160008201805461338490613afd565b80601f01602080910402602001604051908101604052809291908181526020018280546133b090613afd565b80156133fd5780601f106133d2576101008083540402835291602001916133fd565b820191906000526020600020905b8154815290600101906020018083116133e057829003601f168201915b5050509183525050600182015460ff808216151560208085019190915261010083049091161515604080850191909152620100009092046001600160a01b03166060840152600284018054835181840281018401909452808452608090940193909183018282801561349857602002820191906000526020600020905b81546001600160a01b0316815260019091019060200180831161347a575b505050918352505060039190910154602091820152810151604082015160608301516080909301515191999098506001600160a01b0390921615159650945092505050565b828054828255906000526020600020908101928215613532579160200282015b8281111561353257825182546001600160a01b0319166001600160a01b039091161782556020909201916001909101906134fd565b5061353e929150613542565b5090565b5b8082111561353e5760008155600101613543565b80356001600160a01b038116811461333757600080fd5b60006020828403121561358057600080fd5b61224682613557565b634e487b7160e01b600052602160045260246000fd5b600481106135af576135af613589565b9052565b6000815180845260005b818110156135d9576020818501810151868301820152016135bd565b506000602082860101526020601f19601f83011685010191505092915050565b6001600160a01b038b168152613612602082018b61359f565b6101406040820152600061362a61014083018b6135b3565b8915156060840152881515608084015260a0830188905260c0830187905260e083018690526001600160a01b03851661010084015282810361012084015261367281856135b3565b9d9c50505050505050505050505050565b6020815261369d6020820183516001600160a01b03169052565b600060208301516136b1604084018261359f565b50604083015161014060608401526136cd6101608401826135b3565b905060608401516136e2608085018215159052565b50608084015180151560a08501525060a084015160c084015260c084015160e084015260e084015161010084015261010084015161372c6101208501826001600160a01b03169052565b50610120840151838203601f190161014085015261374a82826135b3565b95945050505050565b60c08152600061376660c08301896135b3565b96151560208301525093151560408501526001600160a01b03929092166060840152608083015260a090910152919050565b602080825282518282018190526000918401906040840190835b818110156137d95783516001600160a01b03168352602093840193909201916001016137b2565b509095945050505050565b60008083601f8401126137f657600080fd5b50813567ffffffffffffffff81111561380e57600080fd5b60208301915083602082850101111561382657600080fd5b9250929050565b60008060006040848603121561384257600080fd5b61384b84613557565b9250602084013567ffffffffffffffff81111561386757600080fd5b613873868287016137e4565b9497909650939450505050565b6001600160a01b038a168152613899602082018a61359f565b610120604082015260006138b161012083018a6135b3565b8815156060840152871515608084015260a0830187905260c083018690526001600160a01b03851660e08401528281036101008401526138f181856135b3565b9c9b505050505050505050505050565b60a08152600061391460a08301886135b3565b95151560208301525092151560408401526001600160a01b03919091166060830152608090910152919050565b60208152600061224660208301846135b3565b60006020828403121561396657600080fd5b81356004811061224657600080fd5b60006020828403121561398757600080fd5b5035919050565b6080815260006139a160808301876135b3565b600386106139b1576139b1613589565b85602084015282810360408401526139c981866135b3565b905082810360608401526139dd81856135b3565b979650505050505050565b600080602083850312156139fb57600080fd5b823567ffffffffffffffff811115613a1257600080fd5b613a1e858286016137e4565b90969095509350505050565b8815158152871515602082015286151560408201526001600160a01b0386166060820152613a5b608082018661359f565b61010060a08201526000613a736101008301866135b3565b60c0830194909452506001600160a01b039190911660e0909101529695505050505050565b803560ff8116811461333757600080fd5b60008060008060808587031215613abf57600080fd5b613ac885613557565b9350613ad660208601613a98565b9250613ae460408601613a98565b9150613af260608601613a98565b905092959194509250565b600181811c90821680613b1157607f821691505b602082108103613b3157634e487b7160e01b600052602260045260246000fd5b50919050565b6020808252601b908201527f536572746966696b61736920746964616b20646974656d756b616e0000000000604082015260600190565b602080825260099082015268048616e7961204c53560bc1b604082015260600190565b602080825260129082015271105b185b585d081d1a59185ac81d985b1a5960721b604082015260600190565b60208082526019908201527f537472696e6720746964616b20626f6c6568206b6f736f6e6700000000000000604082015260600190565b634e487b7160e01b600052604160045260246000fd5b601f821115613c5457806000526020600020601f840160051c81016020851015613c315750805b601f840160051c820191505b81811015613c515760008155600101613c3d565b50505b505050565b67ffffffffffffffff831115613c7157613c71613bf4565b613c8583613c7f8354613afd565b83613c0a565b6000601f841160018114613cb95760008515613ca15750838201355b600019600387901b1c1916600186901b178355613c51565b600083815260209020601f19861690835b82811015613cea5786850135825560209485019460019092019101613cca565b5086821015613d075760001960f88860031b161c19848701351681555b505060018560011b0183555050505050565b81835281816020850137506000828201602090810191909152601f909101601f19169091010190565b6001600160a01b0385168152606060208201819052600090613d679083018587613d19565b905082604083015295945050505050565b6020808252601390820152722430b73cb0903832b9b2b93a309030b5ba34b360691b604082015260600190565b815167ffffffffffffffff811115613dbf57613dbf613bf4565b613dd381613dcd8454613afd565b84613c0a565b6020601f821160018114613e075760008315613def5750848201515b600019600385901b1c1916600184901b178455613c51565b600084815260208120601f198516915b82811015613e375787850151825560209485019460019092019101613e17565b5084821015613e555786840151600019600387901b60f8161c191681555b50505050600190811b01905550565b6020808252600a9082015269048616e796120424e53560b41b604082015260600190565b602081526000613e9c602083018486613d19565b949350505050565b634e487b7160e01b600052601160045260246000fd5b600060018201613ecc57613ecc613ea4565b5060010190565b80820180821115613ee657613ee6613ea4565b92915050565b6001600160a01b038416815260608101613f09602083018561359f565b826040830152949350505050565b604081526000613f2b604083018587613d19565b905082602083015294935050505056fe4f6b75706173692050656e616e6767756e67204a617761622050656e67656e64616c69616e2050656e63656d6172616e204169724f6b75706173692050656e616e6767756e67204a61776162204f7065726173696f6e616c20496e7374616c6173692050656e67656e64616c69616e2050656e63656d6172616e2055646172614f6b75706173692050656e616e6767756e67204a61776162204f7065726173696f6e616c2050656e676f6c6168616e20416972204c696d6261684f6b75706173692050656e616e6767756e67204a617761622050656e67656e64616c69616e2050656e63656d6172616e205564617261a26469706673582212205e217e763ae46b671167017d79c8c6fd06ee2cfb6ae1e555f4b9f0532cd40fb464736f6c634300081c0033",
  "linkReferences": {},
  "deployedLinkReferences": {}
}