{
  "_format": "hh-sol-artifact-1",
  "contractName": "MainContract",
  "sourceName": "contracts/MainContract.sol",
  "abi": [
    {
      "inputs": [],
      "stateMutability": "nonpayable",
      "type": "constructor"
    },
    {
      "anonymous": false,
      "inputs": [
        {
          "indexed": true,
          "internalType": "address",
          "name": "lsp",
          "type": "address"
        },
        {
          "indexed": false,
          "internalType": "address",
          "name": "sertifikasiID",
          "type": "address"
        },
        {
          "indexed": false,
          "internalType": "string",
          "name": "sertifikatCID",
          "type": "string"
        },
        {
          "indexed": false,
          "internalType": "uint256",
          "name": "tanggal",
          "type": "uint256"
        }
      ],
      "name": "KelulusanDiupdate",
      "type": "event"
    },
    {
      "anonymous": false,
      "inputs": [
        {
          "indexed": true,
          "internalType": "address",
          "name": "lsp",
          "type": "address"
        },
        {
          "indexed": false,
          "internalType": "string",
          "name": "metadataCID",
          "type": "string"
        }
      ],
      "name": "LSPDidaftarkan",
      "type": "event"
    },
    {
      "anonymous": false,
      "inputs": [
        {
          "indexed": true,
          "internalType": "address",
          "name": "lsp",
          "type": "address"
        }
      ],
      "name": "LSPDihapus",
      "type": "event"
    },
    {
      "anonymous": false,
      "inputs": [
        {
          "indexed": true,
          "internalType": "address",
          "name": "lsp",
          "type": "address"
        },
        {
          "indexed": false,
          "internalType": "string",
          "name": "metadataCID",
          "type": "string"
        }
      ],
      "name": "LSPDitambahkan",
      "type": "event"
    },
    {
      "anonymous": false,
      "inputs": [
        {
          "indexed": true,
          "internalType": "address",
          "name": "lsp",
          "type": "address"
        },
        {
          "indexed": false,
          "internalType": "string",
          "name": "alasan",
          "type": "string"
        }
      ],
      "name": "LSPDitolak",
      "type": "event"
    },
    {
      "anonymous": false,
      "inputs": [
        {
          "indexed": true,
          "internalType": "address",
          "name": "lsp",
          "type": "address"
        },
        {
          "indexed": false,
          "internalType": "string",
          "name": "suratIzinCID",
          "type": "string"
        }
      ],
      "name": "LSPDiverifikasi",
      "type": "event"
    },
    {
      "anonymous": false,
      "inputs": [
        {
          "indexed": true,
          "internalType": "address",
          "name": "lsp",
          "type": "address"
        },
        {
          "indexed": false,
          "internalType": "string",
          "name": "newMetadataCID",
          "type": "string"
        }
      ],
      "name": "LSPMetadataUpdated",
      "type": "event"
    },
    {
      "anonymous": false,
      "inputs": [
        {
          "indexed": true,
          "internalType": "address",
          "name": "peserta",
          "type": "address"
        },
        {
          "indexed": false,
          "internalType": "string",
          "name": "newCID",
          "type": "string"
        }
      ],
      "name": "MetadataDiupdate",
      "type": "event"
    },
    {
      "anonymous": false,
      "inputs": [
        {
          "indexed": true,
          "internalType": "address",
          "name": "peserta",
          "type": "address"
        },
        {
          "indexed": false,
          "internalType": "string",
          "name": "metadataCID",
          "type": "string"
        },
        {
          "indexed": false,
          "internalType": "uint256",
          "name": "tanggal",
          "type": "uint256"
        }
      ],
      "name": "PesertaTerdaftar",
      "type": "event"
    },
    {
      "anonymous": false,
      "inputs": [
        {
          "indexed": true,
          "internalType": "address",
          "name": "lsp",
          "type": "address"
        },
        {
          "indexed": false,
          "internalType": "address",
          "name": "sertifikasiID",
          "type": "address"
        },
        {
          "indexed": false,
          "internalType": "string",
          "name": "alasan",
          "type": "string"
        },
        {
          "indexed": false,
          "internalType": "uint256",
          "name": "tanggal",
          "type": "uint256"
        }
      ],
      "name": "SertifikasiBatal",
      "type": "event"
    },
    {
      "anonymous": false,
      "inputs": [
        {
          "indexed": true,
          "internalType": "address",
          "name": "peserta",
          "type": "address"
        },
        {
          "indexed": false,
          "internalType": "address",
          "name": "sertifikasiID",
          "type": "address"
        },
        {
          "indexed": false,
          "internalType": "enum SertifikasiStorage.SkemaSertifikasi",
          "name": "skema",
          "type": "uint8"
        },
        {
          "indexed": false,
          "internalType": "uint256",
          "name": "tanggal",
          "type": "uint256"
        }
      ],
      "name": "SertifikasiDiajukan",
      "type": "event"
    },
    {
      "inputs": [
        {
          "internalType": "address",
          "name": "lspAddress",
          "type": "address"
        }
      ],
      "name": "addLSPToWaitinglist",
      "outputs": [],
      "stateMutability": "nonpayable",
      "type": "function"
    },
    {
      "inputs": [
        {
          "internalType": "enum SertifikasiStorage.SkemaSertifikasi",
          "name": "skema",
          "type": "uint8"
        }
      ],
      "name": "ajukanSertifikasi",
      "outputs": [],
      "stateMutability": "nonpayable",
      "type": "function"
    },
    {
      "inputs": [],
      "name": "batalkanSertifikasi",
      "outputs": [],
      "stateMutability": "nonpayable",
      "type": "function"
    },
    {
      "inputs": [],
      "name": "bnsp",
      "outputs": [
        {
          "internalType": "address",
          "name": "",
          "type": "address"
        }
      ],
      "stateMutability": "view",
      "type": "function"
    },
    {
      "inputs": [
        {
          "internalType": "string",
          "name": "sertifikatCID",
          "type": "string"
        }
      ],
      "name": "cariSertifikasiByCID",
      "outputs": [
        {
          "internalType": "address",
          "name": "sertifikasiID",
          "type": "address"
        }
      ],
      "stateMutability": "view",
      "type": "function"
    },
    {
      "inputs": [
        {
          "internalType": "address",
          "name": "peserta",
          "type": "address"
        }
      ],
      "name": "cekStatusPeserta",
      "outputs": [
        {
          "internalType": "bool",
          "name": "terdaftar",
          "type": "bool"
        },
        {
          "internalType": "bool",
          "name": "aktif",
          "type": "bool"
        },
        {
          "internalType": "bool",
          "name": "adaSertifikasiAktif",
          "type": "bool"
        },
        {
          "internalType": "uint256",
          "name": "totalSertifikasi",
          "type": "uint256"
        }
      ],
      "stateMutability": "view",
      "type": "function"
    },
    {
      "inputs": [
        {
          "internalType": "string",
          "name": "metadataCID",
          "type": "string"
        }
      ],
      "name": "daftarLSP",
      "outputs": [],
      "stateMutability": "nonpayable",
      "type": "function"
    },
    {
      "inputs": [
        {
          "internalType": "string",
          "name": "metadataCID",
          "type": "string"
        }
      ],
      "name": "daftarPeserta",
      "outputs": [],
      "stateMutability": "nonpayable",
      "type": "function"
    },
    {
      "inputs": [
        {
          "internalType": "address",
          "name": "sertifikasiID",
          "type": "address"
        }
      ],
      "name": "getDetailSertifikasi",
      "outputs": [
        {
          "components": [
            {
              "internalType": "address",
              "name": "peserta",
              "type": "address"
            },
            {
              "internalType": "enum SertifikasiStorage.SkemaSertifikasi",
              "name": "skema",
              "type": "uint8"
            },
            {
              "internalType": "string",
              "name": "sertifikatCID",
              "type": "string"
            },
            {
              "internalType": "bool",
              "name": "lulus",
              "type": "bool"
            },
            {
              "internalType": "bool",
              "name": "aktif",
              "type": "bool"
            },
            {
              "internalType": "uint256",
              "name": "tanggalPengajuan",
              "type": "uint256"
            },
            {
              "internalType": "uint256",
              "name": "tanggalSelesai",
              "type": "uint256"
            },
            {
              "internalType": "uint256",
              "name": "tanggalExpiry",
              "type": "uint256"
            },
            {
              "internalType": "address",
              "name": "lspPenilai",
              "type": "address"
            },
            {
              "internalType": "string",
              "name": "alasanGagal",
              "type": "string"
            }
          ],
          "internalType": "struct SertifikasiStorage.Sertifikasi",
          "name": "",
          "type": "tuple"
        }
      ],
      "stateMutability": "view",
      "type": "function"
    },
    {
      "inputs": [
        {
          "internalType": "address",
          "name": "lspAddress",
          "type": "address"
        }
      ],
      "name": "getLSP",
      "outputs": [
        {
          "internalType": "string",
          "name": "metadataCID",
          "type": "string"
        },
        {
          "internalType": "enum RegistrasiLSP.StatusLSP",
          "name": "status",
          "type": "uint8"
        },
        {
          "internalType": "string",
          "name": "suratIzinCID",
          "type": "string"
        },
        {
          "internalType": "string",
          "name": "alasanTolak",
          "type": "string"
        }
      ],
      "stateMutability": "view",
      "type": "function"
    },
    {
      "inputs": [
        {
          "internalType": "address",
          "name": "peserta",
          "type": "address"
        }
      ],
      "name": "getMetadataCID",
      "outputs": [
        {
          "internalType": "string",
          "name": "",
          "type": "string"
        }
      ],
      "stateMutability": "view",
      "type": "function"
    },
    {
      "inputs": [
        {
          "internalType": "address",
          "name": "sertifikasiID",
          "type": "address"
        }
      ],
      "name": "getNilaiPeserta",
      "outputs": [
        {
          "internalType": "uint8",
          "name": "",
          "type": "uint8"
        },
        {
          "internalType": "uint8",
          "name": "",
          "type": "uint8"
        },
        {
          "internalType": "uint8",
          "name": "",
          "type": "uint8"
        },
        {
          "internalType": "bool",
          "name": "",
          "type": "bool"
        }
      ],
      "stateMutability": "view",
      "type": "function"
    },
    {
      "inputs": [
        {
          "internalType": "address",
          "name": "peserta",
          "type": "address"
        }
      ],
      "name": "getPesertaInfo",
      "outputs": [
        {
          "internalType": "string",
          "name": "metadataCID",
          "type": "string"
        },
        {
          "internalType": "bool",
          "name": "terdaftar",
          "type": "bool"
        },
        {
          "internalType": "bool",
          "name": "aktif",
          "type": "bool"
        },
        {
          "internalType": "address",
          "name": "sertifikasiAktif",
          "type": "address"
        },
        {
          "internalType": "uint256",
          "name": "tanggalDaftar",
          "type": "uint256"
        },
        {
          "internalType": "uint256",
          "name": "totalSertifikasi",
          "type": "uint256"
        }
      ],
      "stateMutability": "view",
      "type": "function"
    },
    {
      "inputs": [
        {
          "internalType": "address",
          "name": "peserta",
          "type": "address"
        }
      ],
      "name": "getPesertaMetadata",
      "outputs": [
        {
          "internalType": "string",
          "name": "cid",
          "type": "string"
        }
      ],
      "stateMutability": "view",
      "type": "function"
    },
    {
      "inputs": [
        {
          "internalType": "address",
          "name": "sertifikasiID",
          "type": "address"
        }
      ],
      "name": "getSertifikasi",
      "outputs": [
        {
          "components": [
            {
              "internalType": "address",
              "name": "peserta",
              "type": "address"
            },
            {
              "internalType": "enum SertifikasiStorage.SkemaSertifikasi",
              "name": "skema",
              "type": "uint8"
            },
            {
              "internalType": "string",
              "name": "sertifikatCID",
              "type": "string"
            },
            {
              "internalType": "bool",
              "name": "lulus",
              "type": "bool"
            },
            {
              "internalType": "bool",
              "name": "aktif",
              "type": "bool"
            },
            {
              "internalType": "uint256",
              "name": "tanggalPengajuan",
              "type": "uint256"
            },
            {
              "internalType": "uint256",
              "name": "tanggalSelesai",
              "type": "uint256"
            },
            {
              "internalType": "uint256",
              "name": "tanggalExpiry",
              "type": "uint256"
            },
            {
              "internalType": "address",
              "name": "lspPenilai",
              "type": "address"
            },
            {
              "internalType": "string",
              "name": "alasanGagal",
              "type": "string"
            }
          ],
          "internalType": "struct SertifikasiStorage.Sertifikasi",
          "name": "",
          "type": "tuple"
        }
      ],
      "stateMutability": "view",
      "type": "function"
    },
    {
      "inputs": [
        {
          "internalType": "uint256",
          "name": "id",
          "type": "uint256"
        }
      ],
      "name": "getSertifikasiAddressById",
      "outputs": [
        {
          "internalType": "address",
          "name": "",
          "type": "address"
        }
      ],
      "stateMutability": "view",
      "type": "function"
    },
    {
      "inputs": [
        {
          "internalType": "address",
          "name": "sertifikasiID",
          "type": "address"
        }
      ],
      "name": "getSertifikasiDetail",
      "outputs": [
        {
          "internalType": "address",
          "name": "peserta",
          "type": "address"
        },
        {
          "internalType": "enum SertifikasiStorage.SkemaSertifikasi",
          "name": "skema",
          "type": "uint8"
        },
        {
          "internalType": "string",
          "name": "sertifikatCID",
          "type": "string"
        },
        {
          "internalType": "bool",
          "name": "lulus",
          "type": "bool"
        },
        {
          "internalType": "bool",
          "name": "aktif",
          "type": "bool"
        },
        {
          "internalType": "uint256",
          "name": "tanggalPengajuan",
          "type": "uint256"
        },
        {
          "internalType": "uint256",
          "name": "tanggalSelesai",
          "type": "uint256"
        },
        {
          "internalType": "address",
          "name": "lspPenilai",
          "type": "address"
        },
        {
          "internalType": "string",
          "name": "alasanGagal",
          "type": "string"
        }
      ],
      "stateMutability": "view",
      "type": "function"
    },
    {
      "inputs": [
        {
          "internalType": "address",
          "name": "sertifikasiID",
          "type": "address"
        }
      ],
      "name": "getSertifikatCID",
      "outputs": [
        {
          "internalType": "string",
          "name": "cid",
          "type": "string"
        }
      ],
      "stateMutability": "view",
      "type": "function"
    },
    {
      "inputs": [
        {
          "internalType": "enum SertifikasiStorage.SkemaSertifikasi",
          "name": "skema",
          "type": "uint8"
        }
      ],
      "name": "getSkemaNama",
      "outputs": [
        {
          "internalType": "string",
          "name": "",
          "type": "string"
        }
      ],
      "stateMutability": "pure",
      "type": "function"
    },
    {
      "inputs": [
        {
          "internalType": "address",
          "name": "lspAddress",
          "type": "address"
        }
      ],
      "name": "getStatusLSP",
      "outputs": [
        {
          "internalType": "int8",
          "name": "",
          "type": "int8"
        }
      ],
      "stateMutability": "view",
      "type": "function"
    },
    {
      "inputs": [],
      "name": "getTotalSertifikasi",
      "outputs": [
        {
          "internalType": "uint256",
          "name": "",
          "type": "uint256"
        }
      ],
      "stateMutability": "view",
      "type": "function"
    },
    {
      "inputs": [
        {
          "internalType": "address",
          "name": "lspAddress",
          "type": "address"
        }
      ],
      "name": "hapusLSP",
      "outputs": [],
      "stateMutability": "nonpayable",
      "type": "function"
    },
    {
      "inputs": [
        {
          "internalType": "address",
          "name": "sertifikasiID",
          "type": "address"
        },
        {
          "internalType": "uint8",
          "name": "tulis",
          "type": "uint8"
        },
        {
          "internalType": "uint8",
          "name": "praktek",
          "type": "uint8"
        },
        {
          "internalType": "uint8",
          "name": "wawancara",
          "type": "uint8"
        }
      ],
      "name": "inputNilaiPeserta",
      "outputs": [],
      "stateMutability": "nonpayable",
      "type": "function"
    },
    {
      "inputs": [
        {
          "internalType": "address",
          "name": "",
          "type": "address"
        }
      ],
      "name": "isLSP",
      "outputs": [
        {
          "internalType": "bool",
          "name": "",
          "type": "bool"
        }
      ],
      "stateMutability": "view",
      "type": "function"
    },
    {
      "inputs": [
        {
          "internalType": "address",
          "name": "",
          "type": "address"
        }
      ],
      "name": "isLSPTerdaftar",
      "outputs": [
        {
          "internalType": "bool",
          "name": "",
          "type": "bool"
        }
      ],
      "stateMutability": "view",
      "type": "function"
    },
    {
      "inputs": [
        {
          "internalType": "address",
          "name": "",
          "type": "address"
        }
      ],
      "name": "isPesertaTerdaftar",
      "outputs": [
        {
          "internalType": "bool",
          "name": "",
          "type": "bool"
        }
      ],
      "stateMutability": "view",
      "type": "function"
    },
    {
      "inputs": [
        {
          "internalType": "address",
          "name": "peserta",
          "type": "address"
        }
      ],
      "name": "lihatRiwayatSertifikasi",
      "outputs": [
        {
          "internalType": "address[]",
          "name": "",
          "type": "address[]"
        }
      ],
      "stateMutability": "view",
      "type": "function"
    },
    {
      "inputs": [
        {
          "internalType": "address",
          "name": "",
          "type": "address"
        }
      ],
      "name": "lspList",
      "outputs": [
        {
          "internalType": "string",
          "name": "metadataCID",
          "type": "string"
        },
        {
          "internalType": "enum RegistrasiLSP.StatusLSP",
          "name": "status",
          "type": "uint8"
        },
        {
          "internalType": "string",
          "name": "suratIzinCID",
          "type": "string"
        },
        {
          "internalType": "string",
          "name": "alasanTolak",
          "type": "string"
        }
      ],
      "stateMutability": "view",
      "type": "function"
    },
    {
      "inputs": [
        {
          "internalType": "address",
          "name": "",
          "type": "address"
        }
      ],
      "name": "lspWaitinglist",
      "outputs": [
        {
          "internalType": "bool",
          "name": "",
          "type": "bool"
        }
      ],
      "stateMutability": "view",
      "type": "function"
    },
    {
      "inputs": [
        {
          "internalType": "address",
          "name": "",
          "type": "address"
        }
      ],
      "name": "nilaiPeserta",
      "outputs": [
        {
          "internalType": "uint8",
          "name": "tulis",
          "type": "uint8"
        },
        {
          "internalType": "uint8",
          "name": "praktek",
          "type": "uint8"
        },
        {
          "internalType": "uint8",
          "name": "wawancara",
          "type": "uint8"
        },
        {
          "internalType": "bool",
          "name": "sudahInput",
          "type": "bool"
        }
      ],
      "stateMutability": "view",
      "type": "function"
    },
    {
      "inputs": [],
      "name": "pesertaCount",
      "outputs": [
        {
          "internalType": "uint256",
          "name": "",
          "type": "uint256"
        }
      ],
      "stateMutability": "view",
      "type": "function"
    },
    {
      "inputs": [
        {
          "internalType": "address",
          "name": "",
          "type": "address"
        }
      ],
      "name": "pesertaList",
      "outputs": [
        {
          "internalType": "string",
          "name": "metadataCID",
          "type": "string"
        },
        {
          "internalType": "bool",
          "name": "terdaftar",
          "type": "bool"
        },
        {
          "internalType": "bool",
          "name": "aktif",
          "type": "bool"
        },
        {
          "internalType": "address",
          "name": "sertifikasiAktif",
          "type": "address"
        },
        {
          "internalType": "uint256",
          "name": "tanggalDaftar",
          "type": "uint256"
        }
      ],
      "stateMutability": "view",
      "type": "function"
    },
    {
      "inputs": [
        {
          "internalType": "string",
          "name": "",
          "type": "string"
        }
      ],
      "name": "sertifikasiByCID",
      "outputs": [
        {
          "internalType": "address",
          "name": "",
          "type": "address"
        }
      ],
      "stateMutability": "view",
      "type": "function"
    },
    {
      "inputs": [
        {
          "internalType": "uint256",
          "name": "",
          "type": "uint256"
        }
      ],
      "name": "sertifikasiById",
      "outputs": [
        {
          "internalType": "address",
          "name": "",
          "type": "address"
        }
      ],
      "stateMutability": "view",
      "type": "function"
    },
    {
      "inputs": [
        {
          "internalType": "address",
          "name": "",
          "type": "address"
        }
      ],
      "name": "sertifikasiList",
      "outputs": [
        {
          "internalType": "address",
          "name": "peserta",
          "type": "address"
        },
        {
          "internalType": "enum SertifikasiStorage.SkemaSertifikasi",
          "name": "skema",
          "type": "uint8"
        },
        {
          "internalType": "string",
          "name": "sertifikatCID",
          "type": "string"
        },
        {
          "internalType": "bool",
          "name": "lulus",
          "type": "bool"
        },
        {
          "internalType": "bool",
          "name": "aktif",
          "type": "bool"
        },
        {
          "internalType": "uint256",
          "name": "tanggalPengajuan",
          "type": "uint256"
        },
        {
          "internalType": "uint256",
          "name": "tanggalSelesai",
          "type": "uint256"
        },
        {
          "internalType": "uint256",
          "name": "tanggalExpiry",
          "type": "uint256"
        },
        {
          "internalType": "address",
          "name": "lspPenilai",
          "type": "address"
        },
        {
          "internalType": "string",
          "name": "alasanGagal",
          "type": "string"
        }
      ],
      "stateMutability": "view",
      "type": "function"
    },
    {
      "inputs": [
        {
          "internalType": "address",
          "name": "lspAddress",
          "type": "address"
        },
        {
          "internalType": "string",
          "name": "alasan",
          "type": "string"
        }
      ],
      "name": "tolakLSP",
      "outputs": [],
      "stateMutability": "nonpayable",
      "type": "function"
    },
    {
      "inputs": [
        {
          "internalType": "address",
          "name": "sertifikasiID",
          "type": "address"
        },
        {
          "internalType": "string",
          "name": "alasan",
          "type": "string"
        }
      ],
      "name": "updateKegagalan",
      "outputs": [],
      "stateMutability": "nonpayable",
      "type": "function"
    },
    {
      "inputs": [
        {
          "internalType": "address",
          "name": "sertifikasiID",
          "type": "address"
        },
        {
          "internalType": "string",
          "name": "sertifikatCID",
          "type": "string"
        }
      ],
      "name": "updateKelulusan",
      "outputs": [],
      "stateMutability": "nonpayable",
      "type": "function"
    },
    {
      "inputs": [
        {
          "internalType": "string",
          "name": "newCID",
          "type": "string"
        }
      ],
      "name": "updateMetadata",
      "outputs": [],
      "stateMutability": "nonpayable",
      "type": "function"
    },
    {
      "inputs": [
        {
          "internalType": "string",
          "name": "newMetadataCID",
          "type": "string"
        }
      ],
      "name": "updateMetadataLSP",
      "outputs": [],
      "stateMutability": "nonpayable",
      "type": "function"
    },
    {
      "inputs": [
        {
          "internalType": "address",
          "name": "sertifikasiID",
          "type": "address"
        }
      ],
      "name": "verifikasiKelulusan",
      "outputs": [
        {
          "internalType": "bool",
          "name": "valid",
          "type": "bool"
        }
      ],
      "stateMutability": "view",
      "type": "function"
    },
    {
      "inputs": [
        {
          "internalType": "string",
          "name": "sertifikatCID",
          "type": "string"
        }
      ],
      "name": "verifikasiKelulusanByCID",
      "outputs": [
        {
          "internalType": "bool",
          "name": "valid",
          "type": "bool"
        },
        {
          "internalType": "address",
          "name": "sertifikasiID",
          "type": "address"
        }
      ],
      "stateMutability": "view",
      "type": "function"
    },
    {
      "inputs": [
        {
          "internalType": "address",
          "name": "lspAddress",
          "type": "address"
        },
        {
          "internalType": "string",
          "name": "suratIzinCID",
          "type": "string"
        }
      ],
      "name": "verifikasiLSP",
      "outputs": [],
      "stateMutability": "nonpayable",
      "type": "function"
    },
    {
      "inputs": [
        {
          "internalType": "address",
          "name": "sertifikasiID",
          "type": "address"
        }
      ],
      "name": "verifikasiSertifikasiLengkap",
      "outputs": [
        {
          "internalType": "bool",
          "name": "exists",
          "type": "bool"
        },
        {
          "internalType": "bool",
          "name": "lulus",
          "type": "bool"
        },
        {
          "internalType": "bool",
          "name": "aktif",
          "type": "bool"
        },
        {
          "internalType": "address",
          "name": "peserta",
          "type": "address"
        },
        {
          "internalType": "enum SertifikasiStorage.SkemaSertifikasi",
          "name": "skema",
          "type": "uint8"
        },
        {
          "internalType": "string",
          "name": "sertifikatCID",
          "type": "string"
        },
        {
          "internalType": "uint256",
          "name": "tanggalSelesai",
          "type": "uint256"
        },
        {
          "internalType": "address",
          "name": "lspPenilai",
          "type": "address"
        }
      ],
      "stateMutability": "view",
      "type": "function"
    }
  ],
  "bytecode": "0x6080604052348015600f57600080fd5b50600080546001600160a01b031916331790556144ed806100316000396000f3fe608060405234801561001057600080fd5b50600436106102735760003560e01c8063732a6f3211610151578063c73c6005116100c3578063e064453211610087578063e064453214610715578063e216eaeb1461073b578063e8acac991461074e578063f0279a7014610761578063f2416e3e14610795578063f81ce2d21461079d57600080fd5b8063c73c600514610529578063cb5fb9a01461069f578063d39cd69e146106c6578063d75f27ac146106ef578063db9a4df41461070257600080fd5b80639e2ed884116101155780639e2ed88414610614578063a35fcfe514610627578063a3d9914f146102dd578063afaf49ea1461063a578063b7352cfc1461064d578063b945ff451461068c57600080fd5b8063732a6f32146105a55780637433efb4146105b85780638d70327f146105cb578063918b5be1146105ee5780639653d19e1461060157600080fd5b806337158e99116101ea5780635cf6de2b116101ae5780635cf6de2b146104fe5780635dc49397146105295780635e58b527146105495780635eb5e4e71461056c5780636df8a5a61461057f5780636e75758e1461059257600080fd5b806337158e99146103d55780633af61c21146104075780633ced72f91461042a5780634021e5cf1461043d5780634586d6721461046057600080fd5b806314851c8a1161023c57806314851c8a1461033957806316467b601461035957806316c89ca01461036e57806316efcaac1461039657806321567a97146103ba578063282ef021146103cd57600080fd5b8062ee260b1461027857806302acad99146102aa5780630b5a9a7e146102dd5780630e0473e5146102fd5780631017604f14610314575b600080fd5b61028b61028636600461393e565b6107d8565b6040516102a19a999897969594939291906139c9565b60405180910390f35b6102cd6102b836600461393e565b600d6020526000908152604090205460ff1681565b60405190151581526020016102a1565b6102f06102eb36600461393e565b61095c565b6040516102a19190613a53565b61030660065481565b6040519081526020016102a1565b61032761032236600461393e565b610bcf565b6040516102a196959493929190613b23565b61034c61034736600461393e565b610d74565b6040516102a19190613b68565b61036c610367366004613bf6565b610ded565b005b61038161037c36600461393e565b610fd7565b6040516102a199989796959493929190613c49565b6103a96103a436600461393e565b611250565b6040516102a1959493929190613cca565b61036c6103c836600461393e565b611319565b61036c61143d565b6103e86103e3366004613d0a565b611656565b6040805192151583526001600160a01b039091166020830152016102a1565b6102cd61041536600461393e565b600c6020526000908152604090205460ff1681565b61036c610438366004613bf6565b6118da565b6102cd61044b36600461393e565b60046020526000908152604090205460ff1681565b6104cf61046e36600461393e565b6001600160a01b03166000908152600760209081526040918290208251608081018452905460ff8082168084526101008304821694840185905262010000830482169584018690526301000000909204161515606090920182905293919291565b6040516102a1949392919060ff9485168152928416602084015292166040820152901515606082015260800190565b600054610511906001600160a01b031681565b6040516001600160a01b0390911681526020016102a1565b61053c61053736600461393e565b611a7a565b6040516102a19190613d4c565b6102cd61055736600461393e565b60016020526000908152604090205460ff1681565b61036c61057a366004613d5f565b611b86565b61036c61058d366004613bf6565b611f35565b6105116105a0366004613d80565b612154565b61036c6105b3366004613bf6565b6121c1565b6102cd6105c636600461393e565b61237e565b6105de6105d936600461393e565b6125a1565b6040516102a19493929190613d99565b61036c6105fc366004613d0a565b61278b565b6105de61060f36600461393e565b61289a565b61036c610622366004613d0a565b612a63565b61036c610635366004613d0a565b612b7a565b61036c610648366004613d0a565b612e4b565b6104cf61065b36600461393e565b60076020526000908152604090205460ff808216916101008104821691620100008204811691630100000090041684565b61051161069a366004613d0a565b61308f565b6106b26106ad36600461393e565b61310b565b6040516102a1989796959493929190613df3565b6105116106d4366004613d80565b600a602052600090815260409020546001600160a01b031681565b61036c6106fd36600461393e565b61337f565b61036c610710366004613e72565b6133ca565b61072861072336600461393e565b613585565b60405160009190910b81526020016102a1565b61053c61074936600461393e565b6135de565b61053c61075c366004613d5f565b61363e565b61051161076f366004613edc565b80516020818301810180516008825292820191909301209152546001600160a01b031681565b600954610306565b6107b06107ab36600461393e565b61370c565b60408051941515855292151560208501529015159183019190915260608201526080016102a1565b600360205260009081526040902080546001820180546001600160a01b03831693600160a01b90930460ff1692919061081090613f95565b80601f016020809104026020016040519081016040528092919081815260200182805461083c90613f95565b80156108895780601f1061085e57610100808354040283529160200191610889565b820191906000526020600020905b81548152906001019060200180831161086c57829003601f168201915b5050505060028301546003840154600485015460058601546006870154600788018054979860ff808816996101009098041697509495939492936001600160a01b0390921692916108d990613f95565b80601f016020809104026020016040519081016040528092919081815260200182805461090590613f95565b80156109525780601f1061092757610100808354040283529160200191610952565b820191906000526020600020905b81548152906001019060200180831161093557829003601f168201915b505050505090508a565b604080516101408101825260008082526020820181905260609282018390528282018190526080820181905260a0820181905260c0820181905260e082018190526101008201526101208101919091526001600160a01b03828116600090815260036020526040902054166109ec5760405162461bcd60e51b81526004016109e390613fcf565b60405180910390fd5b6001600160a01b038281166000908152600360208181526040928390208351610140810190945280549485168452929390840191600160a01b90910460ff1690811115610a3b57610a3b613959565b6003811115610a4c57610a4c613959565b8152602001600182018054610a6090613f95565b80601f0160208091040260200160405190810160405280929190818152602001828054610a8c90613f95565b8015610ad95780601f10610aae57610100808354040283529160200191610ad9565b820191906000526020600020905b815481529060010190602001808311610abc57829003601f168201915b5050509183525050600282015460ff8082161515602084015261010090910416151560408201526003820154606082015260048201546080820152600582015460a082015260068201546001600160a01b031660c082015260078201805460e090920191610b4690613f95565b80601f0160208091040260200160405190810160405280929190818152602001828054610b7290613f95565b8015610bbf5780601f10610b9457610100808354040283529160200191610bbf565b820191906000526020600020905b815481529060010190602001808311610ba257829003601f168201915b5050505050815250509050919050565b606060008060008060008060026000896001600160a01b03166001600160a01b031681526020019081526020016000206040518060c0016040529081600082018054610c1a90613f95565b80601f0160208091040260200160405190810160405280929190818152602001828054610c4690613f95565b8015610c935780601f10610c6857610100808354040283529160200191610c93565b820191906000526020600020905b815481529060010190602001808311610c7657829003601f168201915b5050509183525050600182015460ff808216151560208085019190915261010083049091161515604080850191909152620100009092046001600160a01b031660608401526002840180548351818402810184019094528084526080909401939091830182828015610d2e57602002820191906000526020600020905b81546001600160a01b03168152600190910190602001808311610d10575b5050509183525050600391909101546020918201528151908201516040830151606084015160a085015160809095015151939d929c50909a509850919650945092505050565b6001600160a01b038116600090815260026020818152604092839020909101805483518184028101840190945280845260609392830182828015610de157602002820191906000526020600020905b81546001600160a01b03168152600190910190602001808311610dc3575b50505050509050919050565b3360009081526001602052604090205460ff16610e1c5760405162461bcd60e51b81526004016109e390614006565b826001600160a01b038116610e435760405162461bcd60e51b81526004016109e390614029565b82828080601f0160208091040260200160405190810160405280939291908181526020018383808284376000920182905250845190039250610e9a9150505760405162461bcd60e51b81526004016109e390614055565b6001600160a01b03851660009081526003602052604090206002810154610100900460ff16610f055760405162461bcd60e51b815260206004820152601760248201527629b2b93a34b334b5b0b9b4903a34b230b59030b5ba34b360491b60448201526064016109e3565b80546001600160a01b0316610f2c5760405162461bcd60e51b81526004016109e390613fcf565b60028101805461ffff191690554260048201556006810180546001600160a01b0319163317905560078101610f628587836140db565b5080546001600160a01b031660009081526002602052604090819020600101805462010000600160b01b03191690555133907f7176ae479d15b28ef81160f7cb60a461e03d280ed14952ffe689854e31aede6490610fc79089908990899042906141c4565b60405180910390a2505050505050565b6001600160a01b0381811660009081526003602052604081205490918291606091839182918291829182918791166110215760405162461bcd60e51b81526004016109e390613fcf565b6001600160a01b038a811660009081526003602081815260408084208151610140810190925280549586168252939490939291840191600160a01b90910460ff169081111561107257611072613959565b600381111561108357611083613959565b815260200160018201805461109790613f95565b80601f01602080910402602001604051908101604052809291908181526020018280546110c390613f95565b80156111105780601f106110e557610100808354040283529160200191611110565b820191906000526020600020905b8154815290600101906020018083116110f357829003601f168201915b5050509183525050600282015460ff8082161515602084015261010090910416151560408201526003820154606082015260048201546080820152600582015460a082015260068201546001600160a01b031660c082015260078201805460e09092019161117d90613f95565b80601f01602080910402602001604051908101604052809291908181526020018280546111a990613f95565b80156111f65780601f106111cb576101008083540402835291602001916111f6565b820191906000526020600020905b8154815290600101906020018083116111d957829003601f168201915b5050505050815250509050806000015181602001518260400151836060015184608001518560a001518660c00151876101000151886101200151995099509950995099509950995099509950509193959799909294969850565b60026020526000908152604090208054819061126b90613f95565b80601f016020809104026020016040519081016040528092919081815260200182805461129790613f95565b80156112e45780601f106112b9576101008083540402835291602001916112e4565b820191906000526020600020905b8154815290600101906020018083116112c757829003601f168201915b505050506001830154600390930154919260ff8082169361010083049091169250620100009091046001600160a01b03169085565b6000546001600160a01b031633146113435760405162461bcd60e51b81526004016109e3906141fa565b806001600160a01b03811661136a5760405162461bcd60e51b81526004016109e390614029565b6001600160a01b0382166000908152600d602052604090205460ff16156113ca5760405162461bcd60e51b815260206004820152601460248201527314dd59185a08191a4b5dd85a5d1a5b99db1a5cdd60621b60448201526064016109e3565b6001600160a01b0382166000818152600d602052604090819020805460ff19166001179055517fb805885fe4dd8482cc8db6d8ad71cbb6eb1f7a7d765760278d55a92d6fad29f190611431906020808252600190820152602d60f81b604082015260600190565b60405180910390a25050565b3360009081526002602052604090206001015460ff168015611476575033600090815260026020526040902060010154610100900460ff165b6114925760405162461bcd60e51b81526004016109e39061421e565b336000908152600260205260409020600101546201000090046001600160a01b0316806115015760405162461bcd60e51b815260206004820152601b60248201527f546964616b2061646120736572746966696b61736920616b746966000000000060448201526064016109e3565b6001600160a01b03811660009081526003602052604090206002810154610100900460ff166115725760405162461bcd60e51b815260206004820152601d60248201527f536572746966696b61736920737564616820746964616b20616b74696600000060448201526064016109e3565b60028101805461ff00191690554260048201556040805180820190915260178152764469626174616c6b616e206f6c6568207065736572746160481b602082015260078201906115c2908261424b565b50336000908152600260209081526040808320600101805462010000600160b01b031916905580516001600160a01b03861681526060928101839052601792810192909252764469626174616c6b616e206f6c6568207065736572746160481b608083015242908201527f7176ae479d15b28ef81160f7cb60a461e03d280ed14952ffe689854e31aede649060a001611431565b6000808261169f5760405162461bcd60e51b815260206004820152601660248201527543494420746964616b20626f6c6568206b6f736f6e6760501b60448201526064016109e3565b600884846040516116b192919061430a565b908152604051908190036020019020546001600160a01b03169050806116dc575060009050806118d3565b6001600160a01b0381811660009081526003602081815260408084208151610140810190925280549586168252939490939291840191600160a01b90910460ff169081111561172d5761172d613959565b600381111561173e5761173e613959565b815260200160018201805461175290613f95565b80601f016020809104026020016040519081016040528092919081815260200182805461177e90613f95565b80156117cb5780601f106117a0576101008083540402835291602001916117cb565b820191906000526020600020905b8154815290600101906020018083116117ae57829003601f168201915b5050509183525050600282015460ff8082161515602084015261010090910416151560408201526003820154606082015260048201546080820152600582015460a082015260068201546001600160a01b031660c082015260078201805460e09092019161183890613f95565b80601f016020809104026020016040519081016040528092919081815260200182805461186490613f95565b80156118b15780601f10611886576101008083540402835291602001916118b1565b820191906000526020600020905b81548152906001019060200180831161189457829003601f168201915b5050505050815250509050806060015180156118cf57508060800151155b9250505b9250929050565b6000546001600160a01b031633146119045760405162461bcd60e51b81526004016109e3906141fa565b826001600160a01b03811661192b5760405162461bcd60e51b81526004016109e390614029565b82828080601f01602080910402602001604051908101604052809392919081815260200183838082843760009201829052508451900392506119829150505760405162461bcd60e51b81526004016109e390614055565b6001600160a01b0385166000908152600b6020526040812090600182015460ff1660028111156119b4576119b4613959565b14611a015760405162461bcd60e51b815260206004820152601f60248201527f4c535020746964616b2064616c616d20737461747573206d656e756e6767750060448201526064016109e3565b60018101805460ff1916600217905560038101611a1f8587836140db565b506040805160208101909152600081526002820190611a3e908261424b565b50856001600160a01b03167f6214efe84e589b41714ba0c9ee2bb9bde0eb09b641a218032b5f7ad0e7ee777d8686604051610fc792919061431a565b6001600160a01b03811660009081526002602052604090206001015460609060ff16611ae85760405162461bcd60e51b815260206004820152601760248201527f5065736572746120746964616b2074657264616674617200000000000000000060448201526064016109e3565b6001600160a01b03821660009081526002602052604090208054611b0b90613f95565b80601f0160208091040260200160405190810160405280929190818152602001828054611b3790613f95565b8015610de15780601f10611b5957610100808354040283529160200191610de1565b820191906000526020600020905b815481529060010190602001808311611b675750939695505050505050565b3360009081526002602052604090206001015460ff168015611bbf575033600090815260026020526040902060010154610100900460ff165b611bdb5760405162461bcd60e51b81526004016109e39061421e565b33600090815260026020526040902060018101546201000090046001600160a01b031615611c4b5760405162461bcd60e51b815260206004820152601b60248201527f4d617369682061646120736572746966696b61736920616b746966000000000060448201526064016109e3565b60098054906000611c5b8361434c565b9091555050600954336000818152600560205260408120805491928492909142919085611c878361434c565b909155506040805160a060208201819052600c60c08301526b534552544946494b4153495f60a01b60e0830152918101959095526001600160a01b0390931660608501526080840191909152908201526101000160408051808303601f1901815282825280516020918201206000868152600a835283902080546001600160a01b0319166001600160a01b03831617905561014084019092523383529092508101856003811115611d3a57611d3a613959565b815260200160405180602001604052806000815250815260200160001515815260200160011515815260200142815260200160008152602001426305a39a80611d839190614365565b815260006020808301829052604080518083018252838152938101939093526001600160a01b0385811683526003808352939092208451815493166001600160a01b0319841681178255918501519093909284926001600160a81b03199091161790600160a01b908490811115611dfc57611dfc613959565b021790555060408201516001820190611e15908261424b565b506060820151600282018054608085015161ffff1990911692151561ff00191692909217610100921515830217905560a0830151600383015560c0830151600483015560e083015160058301558201516006820180546001600160a01b0319166001600160a01b039092169190911790556101208201516007820190611e9b908261424b565b5050506001838101805462010000600160b01b031916620100006001600160a01b03851690810291909117909155600285018054928301815560009081526020902090910180546001600160a01b031916909117905560405133907f3ac6af73e630a22fd1e8f791a2b123684b5551df2f5f617948313d0df595a37290611f2790849088904290614378565b60405180910390a250505050565b3360009081526001602052604090205460ff16611f645760405162461bcd60e51b81526004016109e390614006565b826001600160a01b038116611f8b5760405162461bcd60e51b81526004016109e390614029565b82828080601f0160208091040260200160405190810160405280939291908181526020018383808284376000920182905250845190039250611fe29150505760405162461bcd60e51b81526004016109e390614055565b6001600160a01b03851660009081526003602052604090206002810154610100900460ff1661204d5760405162461bcd60e51b815260206004820152601760248201527629b2b93a34b334b5b0b9b4903a34b230b59030b5ba34b360491b60448201526064016109e3565b80546001600160a01b03166120745760405162461bcd60e51b81526004016109e390613fcf565b60028101805460ff1916600190811790915581016120938587836140db565b5060028101805461ff00191690554260048201556006810180546001600160a01b0319163317905560405186906008906120d0908890889061430a565b908152604080516020928190038301812080546001600160a01b0319166001600160a01b039586161790558454909316600090815260029092529020600101805462010000600160b01b031916905533907fad88f87555b407755a665f13e36f4952e39e6ee937b6c0adb7896b91d47bb8e390610fc79089908990899042906141c4565b600060095482111580156121685750600082115b6121a55760405162461bcd60e51b815260206004820152600e60248201526d1251081d1a59185ac81d985b1a5960921b60448201526064016109e3565b506000908152600a60205260409020546001600160a01b031690565b6000546001600160a01b031633146121eb5760405162461bcd60e51b81526004016109e3906141fa565b826001600160a01b0381166122125760405162461bcd60e51b81526004016109e390614029565b82828080601f01602080910402602001604051908101604052809392919081815260200183838082843760009201829052508451900392506122699150505760405162461bcd60e51b81526004016109e390614055565b6001600160a01b0385166000908152600b6020526040812090600182015460ff16600281111561229b5761229b613959565b146122e85760405162461bcd60e51b815260206004820152601f60248201527f4c535020746964616b2064616c616d20737461747573206d656e756e6767750060448201526064016109e3565b6001818101805460ff19169091179055600281016123078587836140db565b506040805160208101909152600081526003820190612326908261424b565b506001600160a01b038616600081815260016020819052604091829020805460ff19169091179055517fa2afc48ad450df786fc5287f1e8dea74f2f5e8252d2aac21bb732fb36e83f94690610fc7908890889061431a565b6001600160a01b038181166000908152600360205260408120549091166123a757506000919050565b6001600160a01b0382811660009081526003602081815260408084208151610140810190925280549586168252939490939291840191600160a01b90910460ff16908111156123f8576123f8613959565b600381111561240957612409613959565b815260200160018201805461241d90613f95565b80601f016020809104026020016040519081016040528092919081815260200182805461244990613f95565b80156124965780601f1061246b57610100808354040283529160200191612496565b820191906000526020600020905b81548152906001019060200180831161247957829003601f168201915b5050509183525050600282015460ff8082161515602084015261010090910416151560408201526003820154606082015260048201546080820152600582015460a082015260068201546001600160a01b031660c082015260078201805460e09092019161250390613f95565b80601f016020809104026020016040519081016040528092919081815260200182805461252f90613f95565b801561257c5780601f106125515761010080835404028352916020019161257c565b820191906000526020600020905b81548152906001019060200180831161255f57829003601f168201915b50505050508152505090508060600151801561259a57508060800151155b9392505050565b6001600160a01b0381166000908152600b60205260408120600181015481546060939284928392829160ff16906002830190600384019084906125e390613f95565b80601f016020809104026020016040519081016040528092919081815260200182805461260f90613f95565b801561265c5780601f106126315761010080835404028352916020019161265c565b820191906000526020600020905b81548152906001019060200180831161263f57829003601f168201915b5050505050935081805461266f90613f95565b80601f016020809104026020016040519081016040528092919081815260200182805461269b90613f95565b80156126e85780601f106126bd576101008083540402835291602001916126e8565b820191906000526020600020905b8154815290600101906020018083116126cb57829003601f168201915b505050505091508080546126fb90613f95565b80601f016020809104026020016040519081016040528092919081815260200182805461272790613f95565b80156127745780601f1061274957610100808354040283529160200191612774565b820191906000526020600020905b81548152906001019060200180831161275757829003601f168201915b505050505090509450945094509450509193509193565b3360009081526002602052604090206001015460ff1680156127c4575033600090815260026020526040902060010154610100900460ff165b6127e05760405162461bcd60e51b81526004016109e39061421e565b81818080601f01602080910402602001604051908101604052809392919081815260200183838082843760009201829052508451900392506128379150505760405162461bcd60e51b81526004016109e390614055565b3360009081526002602052604090206128518385836140db565b50336001600160a01b03167fbfc8ffd6fbbc13c20f5b640faea3048bcbf648d1ed4ab5a142eb81a4d5c11eca848460405161288d92919061431a565b60405180910390a2505050565b600b602052600090815260409020805481906128b590613f95565b80601f01602080910402602001604051908101604052809291908181526020018280546128e190613f95565b801561292e5780601f106129035761010080835404028352916020019161292e565b820191906000526020600020905b81548152906001019060200180831161291157829003601f168201915b5050506001840154600285018054949560ff90921694919350915061295290613f95565b80601f016020809104026020016040519081016040528092919081815260200182805461297e90613f95565b80156129cb5780601f106129a0576101008083540402835291602001916129cb565b820191906000526020600020905b8154815290600101906020018083116129ae57829003601f168201915b5050505050908060030180546129e090613f95565b80601f0160208091040260200160405190810160405280929190818152602001828054612a0c90613f95565b8015612a595780601f10612a2e57610100808354040283529160200191612a59565b820191906000526020600020905b815481529060010190602001808311612a3c57829003601f168201915b5050505050905084565b81818080601f0160208091040260200160405190810160405280939291908181526020018383808284376000920182905250845190039250612aba9150505760405162461bcd60e51b81526004016109e390614055565b336000908152600b602052604081206001015460ff166002811115612ae157612ae1613959565b03612b245760405162461bcd60e51b81526020600482015260136024820152722132b63ab6903832b93730b4103230b33a30b960691b60448201526064016109e3565b336000908152600b60205260409020612b3e8385836140db565b50336001600160a01b03167f888338719acbecc4ba224509d272f9176d7b20628c353787dd9b2a1cdcd33f63848460405161288d92919061431a565b81818080601f0160208091040260200160405190810160405280939291908181526020018383808284376000920182905250845190039250612bd19150505760405162461bcd60e51b81526004016109e390614055565b336000908152600b602052604081206001015460ff166002811115612bf857612bf8613959565b14612c5c5760405162461bcd60e51b815260206004820152602e60248201527f5375646168207065726e6168206461667461722061746175207374617475732060448201526d62756b616e204d656e756e67677560901b60648201526084016109e3565b336000908152600b602052604090208054612c7690613f95565b159050612cbb5760405162461bcd60e51b815260206004820152601360248201527229bab230b4103832b93730b4103230b33a30b960691b60448201526064016109e3565b6000546001600160a01b03163303612d205760405162461bcd60e51b815260206004820152602260248201527f424e535020746964616b2062697361206461667461722073656261676169204c604482015261053560f41b60648201526084016109e3565b604051806080016040528084848080601f016020809104026020016040519081016040528093929190818152602001838380828437600092018290525093855250505060208083018290526040805180830182528381528185015280518083018252838152606090940193909352338252600b90522081518190612da4908261424b565b50602082015160018083018054909160ff1990911690836002811115612dcc57612dcc613959565b021790555060408201516002820190612de5908261424b565b5060608201516003820190612dfa908261424b565b5050336000818152600c602052604090819020805460ff19166001179055519091507f97aeb5fb194ec62c9d9b39612021999b672308ae532baa9acaef2ddc56c95c4f9061288d908690869061431a565b81818080601f0160208091040260200160405190810160405280939291908181526020018383808284376000920182905250845190039250612ea29150505760405162461bcd60e51b81526004016109e390614055565b3360009081526002602052604090206001015460ff1615612ef75760405162461bcd60e51b815260206004820152600f60248201526e29bab230b4103a32b93230b33a30b960891b60448201526064016109e3565b6040518060c0016040528084848080601f0160208091040260200160405190810160405280939291908181526020018383808284376000920182905250938552505060016020840181905260408401525060608201819052608090910190604051908082528060200260200182016040528015612f7e578160200160208202803683370190505b5081524260209182015233600090815260029091526040902081518190612fa5908261424b565b50602082810151600183018054604086015160608701516001600160a01b0316620100000262010000600160b01b03199115156101000261ff00199515159590951661ffff199093169290921793909317929092169190911790556080830151805161301792600285019201906138ad565b5060a09190910151600390910155336000908152600460205260408120805460ff19166001179055600680549161304d8361434c565b9190505550336001600160a01b03167f5c2d1095c6c47db736747eb0de0af919db06bb86af4c022f4da6cd652fde0ea884844260405161288d939291906143a3565b6000816130d75760405162461bcd60e51b815260206004820152601660248201527543494420746964616b20626f6c6568206b6f736f6e6760501b60448201526064016109e3565b600883836040516130e992919061430a565b908152604051908190036020019020546001600160a01b031690505b92915050565b6001600160a01b038181166000908152600360208181526040808420815161014081019092528054958616825293948594859485948594606094869485948594919291840191600160a01b900460ff169081111561316b5761316b613959565b600381111561317c5761317c613959565b815260200160018201805461319090613f95565b80601f01602080910402602001604051908101604052809291908181526020018280546131bc90613f95565b80156132095780601f106131de57610100808354040283529160200191613209565b820191906000526020600020905b8154815290600101906020018083116131ec57829003601f168201915b5050509183525050600282015460ff8082161515602084015261010090910416151560408201526003820154606082015260048201546080820152600582015460a082015260068201546001600160a01b031660c082015260078201805460e09092019161327690613f95565b80601f01602080910402602001604051908101604052809291908181526020018280546132a290613f95565b80156132ef5780601f106132c4576101008083540402835291602001916132ef565b820191906000526020600020905b8154815290600101906020018083116132d257829003601f168201915b50505091909252505081516001600160a01b031615159a5090915089905061333c575050604080516020810190915260008082529750879650869550859450849350915082905080613374565b6001816060015182608001518360000151846020015185604001518660c0015187610100015198509850985098509850985098509850505b919395975091939597565b6000546001600160a01b031633146133a95760405162461bcd60e51b81526004016109e3906141fa565b6001600160a01b03166000908152600c60205260409020805460ff19169055565b3360009081526001602052604090205460ff166133f95760405162461bcd60e51b81526004016109e390614006565b836001600160a01b0381166134205760405162461bcd60e51b81526004016109e390614029565b6001600160a01b0385166000908152600760205260409020546301000000900460ff16156134865760405162461bcd60e51b8152602060048201526013602482015272139a5b185a481cdd59185a08191a5a5b9c1d5d606a1b60448201526064016109e3565b60648460ff161115801561349e575060648360ff1611155b80156134ae575060648260ff1611155b6134ef5760405162461bcd60e51b815260206004820152601260248201527104e696c6169206d616b73696d616c203130360741b60448201526064016109e3565b506040805160808101825260ff948516815292841660208085019182529285168483019081526001606086019081526001600160a01b03909716600090815260079094529190922092518354925191519551151563010000000263ff0000001996861662010000029690961663ffff0000199286166101000261ffff199094169190951617919091171691909117919091179055565b6001600160a01b0381166000908152600c602052604081205460ff166135ae5750600019919050565b6001600160a01b0382166000908152600b602052604081206001015460ff16600281111561259a5761259a613959565b6001600160a01b03818116600090815260036020526040902054606091166136185760405162461bcd60e51b81526004016109e390613fcf565b6001600160a01b03821660009081526003602052604090206001018054611b0b90613f95565b6060600082600381111561365457613654613959565b03613678576040518060800160405280604c81526020016143fc604c913992915050565b600182600381111561368c5761368c613959565b036136b0576040518060600160405280603681526020016144826036913992915050565b60028260038111156136c4576136c4613959565b036136e8576040518060600160405280603a8152602001614448603a913992915050565b6040518060600160405280603481526020016143c86034913992915050565b919050565b600080600080600060026000876001600160a01b03166001600160a01b031681526020019081526020016000206040518060c001604052908160008201805461375490613f95565b80601f016020809104026020016040519081016040528092919081815260200182805461378090613f95565b80156137cd5780601f106137a2576101008083540402835291602001916137cd565b820191906000526020600020905b8154815290600101906020018083116137b057829003601f168201915b5050509183525050600182015460ff808216151560208085019190915261010083049091161515604080850191909152620100009092046001600160a01b03166060840152600284018054835181840281018401909452808452608090940193909183018282801561386857602002820191906000526020600020905b81546001600160a01b0316815260019091019060200180831161384a575b505050918352505060039190910154602091820152810151604082015160608301516080909301515191999098506001600160a01b0390921615159650945092505050565b828054828255906000526020600020908101928215613902579160200282015b8281111561390257825182546001600160a01b0319166001600160a01b039091161782556020909201916001909101906138cd565b5061390e929150613912565b5090565b5b8082111561390e5760008155600101613913565b80356001600160a01b038116811461370757600080fd5b60006020828403121561395057600080fd5b61259a82613927565b634e487b7160e01b600052602160045260246000fd5b6004811061397f5761397f613959565b9052565b6000815180845260005b818110156139a95760208185018101518683018201520161398d565b506000602082860101526020601f19601f83011685010191505092915050565b6001600160a01b038b1681526139e2602082018b61396f565b610140604082015260006139fa61014083018b613983565b8915156060840152881515608084015260a0830188905260c0830187905260e083018690526001600160a01b038516610100840152828103610120840152613a428185613983565b9d9c50505050505050505050505050565b60208152613a6d6020820183516001600160a01b03169052565b60006020830151613a81604084018261396f565b5060408301516101406060840152613a9d610160840182613983565b90506060840151613ab2608085018215159052565b50608084015180151560a08501525060a084015160c084015260c084015160e084015260e0840151610100840152610100840151613afc6101208501826001600160a01b03169052565b50610120840151838203601f1901610140850152613b1a8282613983565b95945050505050565b60c081526000613b3660c0830189613983565b96151560208301525093151560408501526001600160a01b03929092166060840152608083015260a090910152919050565b602080825282518282018190526000918401906040840190835b81811015613ba95783516001600160a01b0316835260209384019390920191600101613b82565b509095945050505050565b60008083601f840112613bc657600080fd5b50813567ffffffffffffffff811115613bde57600080fd5b6020830191508360208285010111156118d357600080fd5b600080600060408486031215613c0b57600080fd5b613c1484613927565b9250602084013567ffffffffffffffff811115613c3057600080fd5b613c3c86828701613bb4565b9497909650939450505050565b6001600160a01b038a168152613c62602082018a61396f565b61012060408201526000613c7a61012083018a613983565b8815156060840152871515608084015260a0830187905260c083018690526001600160a01b03851660e0840152828103610100840152613cba8185613983565b9c9b505050505050505050505050565b60a081526000613cdd60a0830188613983565b95151560208301525092151560408401526001600160a01b03919091166060830152608090910152919050565b60008060208385031215613d1d57600080fd5b823567ffffffffffffffff811115613d3457600080fd5b613d4085828601613bb4565b90969095509350505050565b60208152600061259a6020830184613983565b600060208284031215613d7157600080fd5b81356004811061259a57600080fd5b600060208284031215613d9257600080fd5b5035919050565b608081526000613dac6080830187613983565b60038610613dbc57613dbc613959565b8560208401528281036040840152613dd48186613983565b90508281036060840152613de88185613983565b979650505050505050565b8815158152871515602082015286151560408201526001600160a01b0386166060820152613e24608082018661396f565b61010060a08201526000613e3c610100830186613983565b60c0830194909452506001600160a01b039190911660e0909101529695505050505050565b803560ff8116811461370757600080fd5b60008060008060808587031215613e8857600080fd5b613e9185613927565b9350613e9f60208601613e61565b9250613ead60408601613e61565b9150613ebb60608601613e61565b905092959194509250565b634e487b7160e01b600052604160045260246000fd5b600060208284031215613eee57600080fd5b813567ffffffffffffffff811115613f0557600080fd5b8201601f81018413613f1657600080fd5b803567ffffffffffffffff811115613f3057613f30613ec6565b604051601f8201601f19908116603f0116810167ffffffffffffffff81118282101715613f5f57613f5f613ec6565b604052818152828201602001861015613f7757600080fd5b81602084016020830137600091810160200191909152949350505050565b600181811c90821680613fa957607f821691505b602082108103613fc957634e487b7160e01b600052602260045260246000fd5b50919050565b6020808252601b908201527f536572746966696b61736920746964616b20646974656d756b616e0000000000604082015260600190565b602080825260099082015268048616e7961204c53560bc1b604082015260600190565b602080825260129082015271105b185b585d081d1a59185ac81d985b1a5960721b604082015260600190565b60208082526019908201527f537472696e6720746964616b20626f6c6568206b6f736f6e6700000000000000604082015260600190565b601f8211156140d657806000526020600020601f840160051c810160208510156140b35750805b601f840160051c820191505b818110156140d357600081556001016140bf565b50505b505050565b67ffffffffffffffff8311156140f3576140f3613ec6565b614107836141018354613f95565b8361408c565b6000601f84116001811461413b57600085156141235750838201355b600019600387901b1c1916600186901b1783556140d3565b600083815260209020601f19861690835b8281101561416c578685013582556020948501946001909201910161414c565b50868210156141895760001960f88860031b161c19848701351681555b505060018560011b0183555050505050565b81835281816020850137506000828201602090810191909152601f909101601f19169091010190565b6001600160a01b03851681526060602082018190526000906141e9908301858761419b565b905082604083015295945050505050565b6020808252600a9082015269048616e796120424e53560b41b604082015260600190565b6020808252601390820152722430b73cb0903832b9b2b93a309030b5ba34b360691b604082015260600190565b815167ffffffffffffffff81111561426557614265613ec6565b614279816142738454613f95565b8461408c565b6020601f8211600181146142ad57600083156142955750848201515b600019600385901b1c1916600184901b1784556140d3565b600084815260208120601f198516915b828110156142dd57878501518255602094850194600190920191016142bd565b50848210156142fb5786840151600019600387901b60f8161c191681555b50505050600190811b01905550565b8183823760009101908152919050565b60208152600061432e60208301848661419b565b949350505050565b634e487b7160e01b600052601160045260246000fd5b60006001820161435e5761435e614336565b5060010190565b8082018082111561310557613105614336565b6001600160a01b038416815260608101614395602083018561396f565b826040830152949350505050565b6040815260006143b760408301858761419b565b905082602083015294935050505056fe4f6b75706173692050656e616e6767756e67204a617761622050656e67656e64616c69616e2050656e63656d6172616e204169724f6b75706173692050656e616e6767756e67204a61776162204f7065726173696f6e616c20496e7374616c6173692050656e67656e64616c69616e2050656e63656d6172616e2055646172614f6b75706173692050656e616e6767756e67204a61776162204f7065726173696f6e616c2050656e676f6c6168616e20416972204c696d6261684f6b75706173692050656e616e6767756e67204a617761622050656e67656e64616c69616e2050656e63656d6172616e205564617261a26469706673582212209b21cbe8d7c8abe765ad6232f0061a45f7b1e85640fad621cbb85665ef6d975864736f6c634300081c0033",
  "linkReferences": {},
  "deployedLinkReferences": {}
}