{
  "_format": "hh-sol-artifact-1",
  "contractName": "MainContract",
  "sourceName": "contracts/MainContract.sol",
  "abi": [
    {
      "inputs": [],
      "stateMutability": "nonpayable",
      "type": "constructor"
    },
    {
      "anonymous": false,
      "inputs": [
        {
          "indexed": true,
          "internalType": "address",
          "name": "lsp",
          "type": "address"
        },
        {
          "indexed": false,
          "internalType": "address",
          "name": "sertifikasiID",
          "type": "address"
        },
        {
          "indexed": false,
          "internalType": "string",
          "name": "sertifikatCID",
          "type": "string"
        },
        {
          "indexed": false,
          "internalType": "uint256",
          "name": "tanggal",
          "type": "uint256"
        }
      ],
      "name": "KelulusanDiupdate",
      "type": "event"
    },
    {
      "anonymous": false,
      "inputs": [
        {
          "indexed": true,
          "internalType": "address",
          "name": "lsp",
          "type": "address"
        },
        {
          "indexed": false,
          "internalType": "string",
          "name": "metadataCID",
          "type": "string"
        }
      ],
      "name": "LSPDidaftarkan",
      "type": "event"
    },
    {
      "anonymous": false,
      "inputs": [
        {
          "indexed": true,
          "internalType": "address",
          "name": "lsp",
          "type": "address"
        }
      ],
      "name": "LSPDihapus",
      "type": "event"
    },
    {
      "anonymous": false,
      "inputs": [
        {
          "indexed": true,
          "internalType": "address",
          "name": "lsp",
          "type": "address"
        },
        {
          "indexed": false,
          "internalType": "string",
          "name": "metadataCID",
          "type": "string"
        }
      ],
      "name": "LSPDitambahkan",
      "type": "event"
    },
    {
      "anonymous": false,
      "inputs": [
        {
          "indexed": true,
          "internalType": "address",
          "name": "lsp",
          "type": "address"
        },
        {
          "indexed": false,
          "internalType": "string",
          "name": "alasan",
          "type": "string"
        }
      ],
      "name": "LSPDitolak",
      "type": "event"
    },
    {
      "anonymous": false,
      "inputs": [
        {
          "indexed": true,
          "internalType": "address",
          "name": "lsp",
          "type": "address"
        },
        {
          "indexed": false,
          "internalType": "string",
          "name": "suratIzinCID",
          "type": "string"
        }
      ],
      "name": "LSPDiverifikasi",
      "type": "event"
    },
    {
      "anonymous": false,
      "inputs": [
        {
          "indexed": true,
          "internalType": "address",
          "name": "lsp",
          "type": "address"
        },
        {
          "indexed": false,
          "internalType": "string",
          "name": "newMetadataCID",
          "type": "string"
        }
      ],
      "name": "LSPMetadataUpdated",
      "type": "event"
    },
    {
      "anonymous": false,
      "inputs": [
        {
          "indexed": true,
          "internalType": "address",
          "name": "peserta",
          "type": "address"
        },
        {
          "indexed": false,
          "internalType": "string",
          "name": "newCID",
          "type": "string"
        }
      ],
      "name": "MetadataDiupdate",
      "type": "event"
    },
    {
      "anonymous": false,
      "inputs": [
        {
          "indexed": true,
          "internalType": "address",
          "name": "peserta",
          "type": "address"
        },
        {
          "indexed": false,
          "internalType": "string",
          "name": "metadataCID",
          "type": "string"
        },
        {
          "indexed": false,
          "internalType": "uint256",
          "name": "tanggal",
          "type": "uint256"
        }
      ],
      "name": "PesertaTerdaftar",
      "type": "event"
    },
    {
      "anonymous": false,
      "inputs": [
        {
          "indexed": true,
          "internalType": "address",
          "name": "lsp",
          "type": "address"
        },
        {
          "indexed": false,
          "internalType": "address",
          "name": "sertifikasiID",
          "type": "address"
        },
        {
          "indexed": false,
          "internalType": "string",
          "name": "alasan",
          "type": "string"
        },
        {
          "indexed": false,
          "internalType": "uint256",
          "name": "tanggal",
          "type": "uint256"
        }
      ],
      "name": "SertifikasiBatal",
      "type": "event"
    },
    {
      "anonymous": false,
      "inputs": [
        {
          "indexed": true,
          "internalType": "address",
          "name": "peserta",
          "type": "address"
        },
        {
          "indexed": false,
          "internalType": "address",
          "name": "sertifikasiID",
          "type": "address"
        },
        {
          "indexed": false,
          "internalType": "enum SertifikasiStorage.SkemaSertifikasi",
          "name": "skema",
          "type": "uint8"
        },
        {
          "indexed": false,
          "internalType": "uint256",
          "name": "tanggal",
          "type": "uint256"
        }
      ],
      "name": "SertifikasiDiajukan",
      "type": "event"
    },
    {
      "inputs": [
        {
          "internalType": "address",
          "name": "lspAddress",
          "type": "address"
        }
      ],
      "name": "addLSPToWaitinglist",
      "outputs": [],
      "stateMutability": "nonpayable",
      "type": "function"
    },
    {
      "inputs": [
        {
          "internalType": "enum SertifikasiStorage.SkemaSertifikasi",
          "name": "skema",
          "type": "uint8"
        }
      ],
      "name": "ajukanSertifikasi",
      "outputs": [],
      "stateMutability": "nonpayable",
      "type": "function"
    },
    {
      "inputs": [],
      "name": "batalkanSertifikasi",
      "outputs": [],
      "stateMutability": "nonpayable",
      "type": "function"
    },
    {
      "inputs": [],
      "name": "bnsp",
      "outputs": [
        {
          "internalType": "address",
          "name": "",
          "type": "address"
        }
      ],
      "stateMutability": "view",
      "type": "function"
    },
    {
      "inputs": [
        {
          "internalType": "string",
          "name": "sertifikatCID",
          "type": "string"
        }
      ],
      "name": "cariSertifikasiByCID",
      "outputs": [
        {
          "internalType": "address",
          "name": "sertifikasiID",
          "type": "address"
        }
      ],
      "stateMutability": "view",
      "type": "function"
    },
    {
      "inputs": [
        {
          "internalType": "address",
          "name": "peserta",
          "type": "address"
        }
      ],
      "name": "cekStatusPeserta",
      "outputs": [
        {
          "internalType": "bool",
          "name": "terdaftar",
          "type": "bool"
        },
        {
          "internalType": "bool",
          "name": "aktif",
          "type": "bool"
        },
        {
          "internalType": "bool",
          "name": "adaSertifikasiAktif",
          "type": "bool"
        },
        {
          "internalType": "uint256",
          "name": "totalSertifikasi",
          "type": "uint256"
        }
      ],
      "stateMutability": "view",
      "type": "function"
    },
    {
      "inputs": [
        {
          "internalType": "string",
          "name": "metadataCID",
          "type": "string"
        }
      ],
      "name": "daftarLSP",
      "outputs": [],
      "stateMutability": "nonpayable",
      "type": "function"
    },
    {
      "inputs": [
        {
          "internalType": "string",
          "name": "metadataCID",
          "type": "string"
        }
      ],
      "name": "daftarPeserta",
      "outputs": [],
      "stateMutability": "nonpayable",
      "type": "function"
    },
    {
      "inputs": [
        {
          "internalType": "address",
          "name": "sertifikasiID",
          "type": "address"
        }
      ],
      "name": "getDetailSertifikasi",
      "outputs": [
        {
          "components": [
            {
              "internalType": "address",
              "name": "peserta",
              "type": "address"
            },
            {
              "internalType": "enum SertifikasiStorage.SkemaSertifikasi",
              "name": "skema",
              "type": "uint8"
            },
            {
              "internalType": "string",
              "name": "sertifikatCID",
              "type": "string"
            },
            {
              "internalType": "bool",
              "name": "lulus",
              "type": "bool"
            },
            {
              "internalType": "bool",
              "name": "aktif",
              "type": "bool"
            },
            {
              "internalType": "uint256",
              "name": "tanggalPengajuan",
              "type": "uint256"
            },
            {
              "internalType": "uint256",
              "name": "tanggalSelesai",
              "type": "uint256"
            },
            {
              "internalType": "uint256",
              "name": "tanggalExpiry",
              "type": "uint256"
            },
            {
              "internalType": "address",
              "name": "lspPenilai",
              "type": "address"
            },
            {
              "internalType": "string",
              "name": "alasanGagal",
              "type": "string"
            }
          ],
          "internalType": "struct SertifikasiStorage.Sertifikasi",
          "name": "",
          "type": "tuple"
        }
      ],
      "stateMutability": "view",
      "type": "function"
    },
    {
      "inputs": [
        {
          "internalType": "address",
          "name": "lspAddress",
          "type": "address"
        }
      ],
      "name": "getLSP",
      "outputs": [
        {
          "internalType": "string",
          "name": "metadataCID",
          "type": "string"
        },
        {
          "internalType": "enum RegistrasiLSP.StatusLSP",
          "name": "status",
          "type": "uint8"
        },
        {
          "internalType": "string",
          "name": "suratIzinCID",
          "type": "string"
        },
        {
          "internalType": "string",
          "name": "alasanTolak",
          "type": "string"
        }
      ],
      "stateMutability": "view",
      "type": "function"
    },
    {
      "inputs": [
        {
          "internalType": "address",
          "name": "peserta",
          "type": "address"
        }
      ],
      "name": "getMetadataCID",
      "outputs": [
        {
          "internalType": "string",
          "name": "",
          "type": "string"
        }
      ],
      "stateMutability": "view",
      "type": "function"
    },
    {
      "inputs": [
        {
          "internalType": "address",
          "name": "sertifikasiID",
          "type": "address"
        }
      ],
      "name": "getNilaiPeserta",
      "outputs": [
        {
          "internalType": "uint8",
          "name": "",
          "type": "uint8"
        },
        {
          "internalType": "uint8",
          "name": "",
          "type": "uint8"
        },
        {
          "internalType": "uint8",
          "name": "",
          "type": "uint8"
        },
        {
          "internalType": "bool",
          "name": "",
          "type": "bool"
        }
      ],
      "stateMutability": "view",
      "type": "function"
    },
    {
      "inputs": [
        {
          "internalType": "address",
          "name": "peserta",
          "type": "address"
        }
      ],
      "name": "getPesertaInfo",
      "outputs": [
        {
          "internalType": "string",
          "name": "metadataCID",
          "type": "string"
        },
        {
          "internalType": "bool",
          "name": "terdaftar",
          "type": "bool"
        },
        {
          "internalType": "bool",
          "name": "aktif",
          "type": "bool"
        },
        {
          "internalType": "address",
          "name": "sertifikasiAktif",
          "type": "address"
        },
        {
          "internalType": "uint256",
          "name": "tanggalDaftar",
          "type": "uint256"
        },
        {
          "internalType": "uint256",
          "name": "totalSertifikasi",
          "type": "uint256"
        }
      ],
      "stateMutability": "view",
      "type": "function"
    },
    {
      "inputs": [
        {
          "internalType": "address",
          "name": "peserta",
          "type": "address"
        }
      ],
      "name": "getPesertaMetadata",
      "outputs": [
        {
          "internalType": "string",
          "name": "cid",
          "type": "string"
        }
      ],
      "stateMutability": "view",
      "type": "function"
    },
    {
      "inputs": [
        {
          "internalType": "address",
          "name": "sertifikasiID",
          "type": "address"
        }
      ],
      "name": "getSertifikasi",
      "outputs": [
        {
          "components": [
            {
              "internalType": "address",
              "name": "peserta",
              "type": "address"
            },
            {
              "internalType": "enum SertifikasiStorage.SkemaSertifikasi",
              "name": "skema",
              "type": "uint8"
            },
            {
              "internalType": "string",
              "name": "sertifikatCID",
              "type": "string"
            },
            {
              "internalType": "bool",
              "name": "lulus",
              "type": "bool"
            },
            {
              "internalType": "bool",
              "name": "aktif",
              "type": "bool"
            },
            {
              "internalType": "uint256",
              "name": "tanggalPengajuan",
              "type": "uint256"
            },
            {
              "internalType": "uint256",
              "name": "tanggalSelesai",
              "type": "uint256"
            },
            {
              "internalType": "uint256",
              "name": "tanggalExpiry",
              "type": "uint256"
            },
            {
              "internalType": "address",
              "name": "lspPenilai",
              "type": "address"
            },
            {
              "internalType": "string",
              "name": "alasanGagal",
              "type": "string"
            }
          ],
          "internalType": "struct SertifikasiStorage.Sertifikasi",
          "name": "",
          "type": "tuple"
        }
      ],
      "stateMutability": "view",
      "type": "function"
    },
    {
      "inputs": [
        {
          "internalType": "uint256",
          "name": "id",
          "type": "uint256"
        }
      ],
      "name": "getSertifikasiAddressById",
      "outputs": [
        {
          "internalType": "address",
          "name": "",
          "type": "address"
        }
      ],
      "stateMutability": "view",
      "type": "function"
    },
    {
      "inputs": [
        {
          "internalType": "address",
          "name": "sertifikasiID",
          "type": "address"
        }
      ],
      "name": "getSertifikasiDetail",
      "outputs": [
        {
          "internalType": "address",
          "name": "peserta",
          "type": "address"
        },
        {
          "internalType": "enum SertifikasiStorage.SkemaSertifikasi",
          "name": "skema",
          "type": "uint8"
        },
        {
          "internalType": "string",
          "name": "sertifikatCID",
          "type": "string"
        },
        {
          "internalType": "bool",
          "name": "lulus",
          "type": "bool"
        },
        {
          "internalType": "bool",
          "name": "aktif",
          "type": "bool"
        },
        {
          "internalType": "uint256",
          "name": "tanggalPengajuan",
          "type": "uint256"
        },
        {
          "internalType": "uint256",
          "name": "tanggalSelesai",
          "type": "uint256"
        },
        {
          "internalType": "address",
          "name": "lspPenilai",
          "type": "address"
        },
        {
          "internalType": "string",
          "name": "alasanGagal",
          "type": "string"
        }
      ],
      "stateMutability": "view",
      "type": "function"
    },
    {
      "inputs": [
        {
          "internalType": "address",
          "name": "sertifikasiID",
          "type": "address"
        }
      ],
      "name": "getSertifikatCID",
      "outputs": [
        {
          "internalType": "string",
          "name": "cid",
          "type": "string"
        }
      ],
      "stateMutability": "view",
      "type": "function"
    },
    {
      "inputs": [
        {
          "internalType": "enum SertifikasiStorage.SkemaSertifikasi",
          "name": "skema",
          "type": "uint8"
        }
      ],
      "name": "getSkemaNama",
      "outputs": [
        {
          "internalType": "string",
          "name": "",
          "type": "string"
        }
      ],
      "stateMutability": "pure",
      "type": "function"
    },
    {
      "inputs": [
        {
          "internalType": "address",
          "name": "lspAddress",
          "type": "address"
        }
      ],
      "name": "getStatusLSP",
      "outputs": [
        {
          "internalType": "int8",
          "name": "",
          "type": "int8"
        }
      ],
      "stateMutability": "view",
      "type": "function"
    },
    {
      "inputs": [],
      "name": "getTotalSertifikasi",
      "outputs": [
        {
          "internalType": "uint256",
          "name": "",
          "type": "uint256"
        }
      ],
      "stateMutability": "view",
      "type": "function"
    },
    {
      "inputs": [
        {
          "internalType": "address",
          "name": "lspAddress",
          "type": "address"
        }
      ],
      "name": "hapusLSP",
      "outputs": [],
      "stateMutability": "nonpayable",
      "type": "function"
    },
    {
      "inputs": [
        {
          "internalType": "address",
          "name": "sertifikasiID",
          "type": "address"
        },
        {
          "internalType": "uint8",
          "name": "tulis",
          "type": "uint8"
        },
        {
          "internalType": "uint8",
          "name": "praktek",
          "type": "uint8"
        },
        {
          "internalType": "uint8",
          "name": "wawancara",
          "type": "uint8"
        },
        {
          "internalType": "bool",
          "name": "lulus",
          "type": "bool"
        }
      ],
      "name": "inputNilaiPeserta",
      "outputs": [],
      "stateMutability": "nonpayable",
      "type": "function"
    },
    {
      "inputs": [
        {
          "internalType": "address",
          "name": "",
          "type": "address"
        }
      ],
      "name": "isLSP",
      "outputs": [
        {
          "internalType": "bool",
          "name": "",
          "type": "bool"
        }
      ],
      "stateMutability": "view",
      "type": "function"
    },
    {
      "inputs": [
        {
          "internalType": "address",
          "name": "",
          "type": "address"
        }
      ],
      "name": "isLSPTerdaftar",
      "outputs": [
        {
          "internalType": "bool",
          "name": "",
          "type": "bool"
        }
      ],
      "stateMutability": "view",
      "type": "function"
    },
    {
      "inputs": [
        {
          "internalType": "address",
          "name": "",
          "type": "address"
        }
      ],
      "name": "isPesertaTerdaftar",
      "outputs": [
        {
          "internalType": "bool",
          "name": "",
          "type": "bool"
        }
      ],
      "stateMutability": "view",
      "type": "function"
    },
    {
      "inputs": [
        {
          "internalType": "address",
          "name": "peserta",
          "type": "address"
        }
      ],
      "name": "lihatRiwayatSertifikasi",
      "outputs": [
        {
          "internalType": "address[]",
          "name": "",
          "type": "address[]"
        }
      ],
      "stateMutability": "view",
      "type": "function"
    },
    {
      "inputs": [
        {
          "internalType": "address",
          "name": "",
          "type": "address"
        }
      ],
      "name": "lspList",
      "outputs": [
        {
          "internalType": "string",
          "name": "metadataCID",
          "type": "string"
        },
        {
          "internalType": "enum RegistrasiLSP.StatusLSP",
          "name": "status",
          "type": "uint8"
        },
        {
          "internalType": "string",
          "name": "suratIzinCID",
          "type": "string"
        },
        {
          "internalType": "string",
          "name": "alasanTolak",
          "type": "string"
        }
      ],
      "stateMutability": "view",
      "type": "function"
    },
    {
      "inputs": [
        {
          "internalType": "address",
          "name": "",
          "type": "address"
        }
      ],
      "name": "lspWaitinglist",
      "outputs": [
        {
          "internalType": "bool",
          "name": "",
          "type": "bool"
        }
      ],
      "stateMutability": "view",
      "type": "function"
    },
    {
      "inputs": [
        {
          "internalType": "address",
          "name": "",
          "type": "address"
        }
      ],
      "name": "nilaiPeserta",
      "outputs": [
        {
          "internalType": "uint8",
          "name": "tulis",
          "type": "uint8"
        },
        {
          "internalType": "uint8",
          "name": "praktek",
          "type": "uint8"
        },
        {
          "internalType": "uint8",
          "name": "wawancara",
          "type": "uint8"
        },
        {
          "internalType": "bool",
          "name": "sudahInput",
          "type": "bool"
        }
      ],
      "stateMutability": "view",
      "type": "function"
    },
    {
      "inputs": [],
      "name": "pesertaCount",
      "outputs": [
        {
          "internalType": "uint256",
          "name": "",
          "type": "uint256"
        }
      ],
      "stateMutability": "view",
      "type": "function"
    },
    {
      "inputs": [
        {
          "internalType": "address",
          "name": "",
          "type": "address"
        }
      ],
      "name": "pesertaList",
      "outputs": [
        {
          "internalType": "string",
          "name": "metadataCID",
          "type": "string"
        },
        {
          "internalType": "bool",
          "name": "terdaftar",
          "type": "bool"
        },
        {
          "internalType": "bool",
          "name": "aktif",
          "type": "bool"
        },
        {
          "internalType": "address",
          "name": "sertifikasiAktif",
          "type": "address"
        },
        {
          "internalType": "uint256",
          "name": "tanggalDaftar",
          "type": "uint256"
        }
      ],
      "stateMutability": "view",
      "type": "function"
    },
    {
      "inputs": [
        {
          "internalType": "string",
          "name": "",
          "type": "string"
        }
      ],
      "name": "sertifikasiByCID",
      "outputs": [
        {
          "internalType": "address",
          "name": "",
          "type": "address"
        }
      ],
      "stateMutability": "view",
      "type": "function"
    },
    {
      "inputs": [
        {
          "internalType": "uint256",
          "name": "",
          "type": "uint256"
        }
      ],
      "name": "sertifikasiById",
      "outputs": [
        {
          "internalType": "address",
          "name": "",
          "type": "address"
        }
      ],
      "stateMutability": "view",
      "type": "function"
    },
    {
      "inputs": [
        {
          "internalType": "address",
          "name": "",
          "type": "address"
        }
      ],
      "name": "sertifikasiList",
      "outputs": [
        {
          "internalType": "address",
          "name": "peserta",
          "type": "address"
        },
        {
          "internalType": "enum SertifikasiStorage.SkemaSertifikasi",
          "name": "skema",
          "type": "uint8"
        },
        {
          "internalType": "string",
          "name": "sertifikatCID",
          "type": "string"
        },
        {
          "internalType": "bool",
          "name": "lulus",
          "type": "bool"
        },
        {
          "internalType": "bool",
          "name": "aktif",
          "type": "bool"
        },
        {
          "internalType": "uint256",
          "name": "tanggalPengajuan",
          "type": "uint256"
        },
        {
          "internalType": "uint256",
          "name": "tanggalSelesai",
          "type": "uint256"
        },
        {
          "internalType": "uint256",
          "name": "tanggalExpiry",
          "type": "uint256"
        },
        {
          "internalType": "address",
          "name": "lspPenilai",
          "type": "address"
        },
        {
          "internalType": "string",
          "name": "alasanGagal",
          "type": "string"
        }
      ],
      "stateMutability": "view",
      "type": "function"
    },
    {
      "inputs": [
        {
          "internalType": "address",
          "name": "lspAddress",
          "type": "address"
        },
        {
          "internalType": "string",
          "name": "alasan",
          "type": "string"
        }
      ],
      "name": "tolakLSP",
      "outputs": [],
      "stateMutability": "nonpayable",
      "type": "function"
    },
    {
      "inputs": [
        {
          "internalType": "address",
          "name": "sertifikasiID",
          "type": "address"
        },
        {
          "internalType": "string",
          "name": "alasan",
          "type": "string"
        }
      ],
      "name": "updateKegagalan",
      "outputs": [],
      "stateMutability": "nonpayable",
      "type": "function"
    },
    {
      "inputs": [
        {
          "internalType": "address",
          "name": "sertifikasiID",
          "type": "address"
        },
        {
          "internalType": "string",
          "name": "sertifikatCID",
          "type": "string"
        }
      ],
      "name": "updateKelulusan",
      "outputs": [],
      "stateMutability": "nonpayable",
      "type": "function"
    },
    {
      "inputs": [
        {
          "internalType": "string",
          "name": "newCID",
          "type": "string"
        }
      ],
      "name": "updateMetadata",
      "outputs": [],
      "stateMutability": "nonpayable",
      "type": "function"
    },
    {
      "inputs": [
        {
          "internalType": "string",
          "name": "newMetadataCID",
          "type": "string"
        }
      ],
      "name": "updateMetadataLSP",
      "outputs": [],
      "stateMutability": "nonpayable",
      "type": "function"
    },
    {
      "inputs": [
        {
          "internalType": "address",
          "name": "sertifikasiID",
          "type": "address"
        }
      ],
      "name": "verifikasiKelulusan",
      "outputs": [
        {
          "internalType": "bool",
          "name": "valid",
          "type": "bool"
        }
      ],
      "stateMutability": "view",
      "type": "function"
    },
    {
      "inputs": [
        {
          "internalType": "string",
          "name": "sertifikatCID",
          "type": "string"
        }
      ],
      "name": "verifikasiKelulusanByCID",
      "outputs": [
        {
          "internalType": "bool",
          "name": "valid",
          "type": "bool"
        },
        {
          "internalType": "address",
          "name": "sertifikasiID",
          "type": "address"
        }
      ],
      "stateMutability": "view",
      "type": "function"
    },
    {
      "inputs": [
        {
          "internalType": "address",
          "name": "lspAddress",
          "type": "address"
        },
        {
          "internalType": "string",
          "name": "suratIzinCID",
          "type": "string"
        }
      ],
      "name": "verifikasiLSP",
      "outputs": [],
      "stateMutability": "nonpayable",
      "type": "function"
    },
    {
      "inputs": [
        {
          "internalType": "address",
          "name": "sertifikasiID",
          "type": "address"
        }
      ],
      "name": "verifikasiSertifikasiLengkap",
      "outputs": [
        {
          "internalType": "bool",
          "name": "exists",
          "type": "bool"
        },
        {
          "internalType": "bool",
          "name": "lulus",
          "type": "bool"
        },
        {
          "internalType": "bool",
          "name": "aktif",
          "type": "bool"
        },
        {
          "internalType": "address",
          "name": "peserta",
          "type": "address"
        },
        {
          "internalType": "enum SertifikasiStorage.SkemaSertifikasi",
          "name": "skema",
          "type": "uint8"
        },
        {
          "internalType": "string",
          "name": "sertifikatCID",
          "type": "string"
        },
        {
          "internalType": "uint256",
          "name": "tanggalSelesai",
          "type": "uint256"
        },
        {
          "internalType": "address",
          "name": "lspPenilai",
          "type": "address"
        }
      ],
      "stateMutability": "view",
      "type": "function"
    }
  ],
  "bytecode": "0x6080604052348015600f57600080fd5b50600080546001600160a01b03191633179055614522806100316000396000f3fe608060405234801561001057600080fd5b50600436106102735760003560e01c8063732a6f3211610151578063b945ff45116100c3578063e064453211610087578063e064453214610715578063e216eaeb1461073b578063e8acac991461074e578063f0279a7014610761578063f2416e3e14610795578063f81ce2d21461079d57600080fd5b8063b945ff451461069f578063c73c600514610529578063cb5fb9a0146106b2578063d39cd69e146106d9578063d75f27ac1461070257600080fd5b80639653d19e116101155780639653d19e146106145780639e2ed88414610627578063a35fcfe51461063a578063a3d9914f146102dd578063afaf49ea1461064d578063b7352cfc1461066057600080fd5b8063732a6f32146105a55780637433efb4146105b8578063821a29d0146105cb5780638d70327f146105de578063918b5be11461060157600080fd5b806337158e99116101ea5780635cf6de2b116101ae5780635cf6de2b146104fe5780635dc49397146105295780635e58b527146105495780635eb5e4e71461056c5780636df8a5a61461057f5780636e75758e1461059257600080fd5b806337158e99146103d55780633af61c21146104075780633ced72f91461042a5780634021e5cf1461043d5780634586d6721461046057600080fd5b806314851c8a1161023c57806314851c8a1461033957806316467b601461035957806316c89ca01461036e57806316efcaac1461039657806321567a97146103ba578063282ef021146103cd57600080fd5b8062ee260b1461027857806302acad99146102aa5780630b5a9a7e146102dd5780630e0473e5146102fd5780631017604f14610314575b600080fd5b61028b610286366004613959565b6107d8565b6040516102a19a999897969594939291906139e4565b60405180910390f35b6102cd6102b8366004613959565b600d6020526000908152604090205460ff1681565b60405190151581526020016102a1565b6102f06102eb366004613959565b61095c565b6040516102a19190613a6e565b61030660065481565b6040519081526020016102a1565b610327610322366004613959565b610bcf565b6040516102a196959493929190613b3e565b61034c610347366004613959565b610d74565b6040516102a19190613b83565b61036c610367366004613c11565b610ded565b005b61038161037c366004613959565b610fd7565b6040516102a199989796959493929190613c64565b6103a96103a4366004613959565b611250565b6040516102a1959493929190613ce5565b61036c6103c8366004613959565b611319565b61036c61143d565b6103e86103e3366004613d25565b611656565b6040805192151583526001600160a01b039091166020830152016102a1565b6102cd610415366004613959565b600c6020526000908152604090205460ff1681565b61036c610438366004613c11565b6118da565b6102cd61044b366004613959565b60046020526000908152604090205460ff1681565b6104cf61046e366004613959565b6001600160a01b03166000908152600760209081526040918290208251608081018452905460ff8082168084526101008304821694840185905262010000830482169584018690526301000000909204161515606090920182905293919291565b6040516102a1949392919060ff9485168152928416602084015292166040820152901515606082015260800190565b600054610511906001600160a01b031681565b6040516001600160a01b0390911681526020016102a1565b61053c610537366004613959565b611a7a565b6040516102a19190613d67565b6102cd610557366004613959565b60016020526000908152604090205460ff1681565b61036c61057a366004613d7a565b611b86565b61036c61058d366004613c11565b611f35565b6105116105a0366004613d9b565b612154565b61036c6105b3366004613c11565b6121c1565b6102cd6105c6366004613959565b61237e565b61036c6105d9366004613dc5565b6125a1565b6105f16105ec366004613959565b612777565b6040516102a19493929190613e33565b61036c61060f366004613d25565b612961565b6105f1610622366004613959565b612a70565b61036c610635366004613d25565b612c39565b61036c610648366004613d25565b612d50565b61036c61065b366004613d25565b613021565b6104cf61066e366004613959565b60076020526000908152604090205460ff808216916101008104821691620100008204811691630100000090041684565b6105116106ad366004613d25565b613265565b6106c56106c0366004613959565b6132e1565b6040516102a1989796959493929190613e8d565b6105116106e7366004613d9b565b600a602052600090815260409020546001600160a01b031681565b61036c610710366004613959565b613555565b610728610723366004613959565b6135a0565b60405160009190910b81526020016102a1565b61053c610749366004613959565b6135f9565b61053c61075c366004613d7a565b613659565b61051161076f366004613f11565b80516020818301810180516008825292820191909301209152546001600160a01b031681565b600954610306565b6107b06107ab366004613959565b613727565b60408051941515855292151560208501529015159183019190915260608201526080016102a1565b600360205260009081526040902080546001820180546001600160a01b03831693600160a01b90930460ff1692919061081090613fca565b80601f016020809104026020016040519081016040528092919081815260200182805461083c90613fca565b80156108895780601f1061085e57610100808354040283529160200191610889565b820191906000526020600020905b81548152906001019060200180831161086c57829003601f168201915b5050505060028301546003840154600485015460058601546006870154600788018054979860ff808816996101009098041697509495939492936001600160a01b0390921692916108d990613fca565b80601f016020809104026020016040519081016040528092919081815260200182805461090590613fca565b80156109525780601f1061092757610100808354040283529160200191610952565b820191906000526020600020905b81548152906001019060200180831161093557829003601f168201915b505050505090508a565b604080516101408101825260008082526020820181905260609282018390528282018190526080820181905260a0820181905260c0820181905260e082018190526101008201526101208101919091526001600160a01b03828116600090815260036020526040902054166109ec5760405162461bcd60e51b81526004016109e390614004565b60405180910390fd5b6001600160a01b038281166000908152600360208181526040928390208351610140810190945280549485168452929390840191600160a01b90910460ff1690811115610a3b57610a3b613974565b6003811115610a4c57610a4c613974565b8152602001600182018054610a6090613fca565b80601f0160208091040260200160405190810160405280929190818152602001828054610a8c90613fca565b8015610ad95780601f10610aae57610100808354040283529160200191610ad9565b820191906000526020600020905b815481529060010190602001808311610abc57829003601f168201915b5050509183525050600282015460ff8082161515602084015261010090910416151560408201526003820154606082015260048201546080820152600582015460a082015260068201546001600160a01b031660c082015260078201805460e090920191610b4690613fca565b80601f0160208091040260200160405190810160405280929190818152602001828054610b7290613fca565b8015610bbf5780601f10610b9457610100808354040283529160200191610bbf565b820191906000526020600020905b815481529060010190602001808311610ba257829003601f168201915b5050505050815250509050919050565b606060008060008060008060026000896001600160a01b03166001600160a01b031681526020019081526020016000206040518060c0016040529081600082018054610c1a90613fca565b80601f0160208091040260200160405190810160405280929190818152602001828054610c4690613fca565b8015610c935780601f10610c6857610100808354040283529160200191610c93565b820191906000526020600020905b815481529060010190602001808311610c7657829003601f168201915b5050509183525050600182015460ff808216151560208085019190915261010083049091161515604080850191909152620100009092046001600160a01b031660608401526002840180548351818402810184019094528084526080909401939091830182828015610d2e57602002820191906000526020600020905b81546001600160a01b03168152600190910190602001808311610d10575b5050509183525050600391909101546020918201528151908201516040830151606084015160a085015160809095015151939d929c50909a509850919650945092505050565b6001600160a01b038116600090815260026020818152604092839020909101805483518184028101840190945280845260609392830182828015610de157602002820191906000526020600020905b81546001600160a01b03168152600190910190602001808311610dc3575b50505050509050919050565b3360009081526001602052604090205460ff16610e1c5760405162461bcd60e51b81526004016109e39061403b565b826001600160a01b038116610e435760405162461bcd60e51b81526004016109e39061405e565b82828080601f0160208091040260200160405190810160405280939291908181526020018383808284376000920182905250845190039250610e9a9150505760405162461bcd60e51b81526004016109e39061408a565b6001600160a01b03851660009081526003602052604090206002810154610100900460ff16610f055760405162461bcd60e51b815260206004820152601760248201527629b2b93a34b334b5b0b9b4903a34b230b59030b5ba34b360491b60448201526064016109e3565b80546001600160a01b0316610f2c5760405162461bcd60e51b81526004016109e390614004565b60028101805461ffff191690554260048201556006810180546001600160a01b0319163317905560078101610f62858783614110565b5080546001600160a01b031660009081526002602052604090819020600101805462010000600160b01b03191690555133907f7176ae479d15b28ef81160f7cb60a461e03d280ed14952ffe689854e31aede6490610fc79089908990899042906141f9565b60405180910390a2505050505050565b6001600160a01b0381811660009081526003602052604081205490918291606091839182918291829182918791166110215760405162461bcd60e51b81526004016109e390614004565b6001600160a01b038a811660009081526003602081815260408084208151610140810190925280549586168252939490939291840191600160a01b90910460ff169081111561107257611072613974565b600381111561108357611083613974565b815260200160018201805461109790613fca565b80601f01602080910402602001604051908101604052809291908181526020018280546110c390613fca565b80156111105780601f106110e557610100808354040283529160200191611110565b820191906000526020600020905b8154815290600101906020018083116110f357829003601f168201915b5050509183525050600282015460ff8082161515602084015261010090910416151560408201526003820154606082015260048201546080820152600582015460a082015260068201546001600160a01b031660c082015260078201805460e09092019161117d90613fca565b80601f01602080910402602001604051908101604052809291908181526020018280546111a990613fca565b80156111f65780601f106111cb576101008083540402835291602001916111f6565b820191906000526020600020905b8154815290600101906020018083116111d957829003601f168201915b5050505050815250509050806000015181602001518260400151836060015184608001518560a001518660c00151876101000151886101200151995099509950995099509950995099509950509193959799909294969850565b60026020526000908152604090208054819061126b90613fca565b80601f016020809104026020016040519081016040528092919081815260200182805461129790613fca565b80156112e45780601f106112b9576101008083540402835291602001916112e4565b820191906000526020600020905b8154815290600101906020018083116112c757829003601f168201915b505050506001830154600390930154919260ff8082169361010083049091169250620100009091046001600160a01b03169085565b6000546001600160a01b031633146113435760405162461bcd60e51b81526004016109e39061422f565b806001600160a01b03811661136a5760405162461bcd60e51b81526004016109e39061405e565b6001600160a01b0382166000908152600d602052604090205460ff16156113ca5760405162461bcd60e51b815260206004820152601460248201527314dd59185a08191a4b5dd85a5d1a5b99db1a5cdd60621b60448201526064016109e3565b6001600160a01b0382166000818152600d602052604090819020805460ff19166001179055517fb805885fe4dd8482cc8db6d8ad71cbb6eb1f7a7d765760278d55a92d6fad29f190611431906020808252600190820152602d60f81b604082015260600190565b60405180910390a25050565b3360009081526002602052604090206001015460ff168015611476575033600090815260026020526040902060010154610100900460ff165b6114925760405162461bcd60e51b81526004016109e390614253565b336000908152600260205260409020600101546201000090046001600160a01b0316806115015760405162461bcd60e51b815260206004820152601b60248201527f546964616b2061646120736572746966696b61736920616b746966000000000060448201526064016109e3565b6001600160a01b03811660009081526003602052604090206002810154610100900460ff166115725760405162461bcd60e51b815260206004820152601d60248201527f536572746966696b61736920737564616820746964616b20616b74696600000060448201526064016109e3565b60028101805461ff00191690554260048201556040805180820190915260178152764469626174616c6b616e206f6c6568207065736572746160481b602082015260078201906115c29082614280565b50336000908152600260209081526040808320600101805462010000600160b01b031916905580516001600160a01b03861681526060928101839052601792810192909252764469626174616c6b616e206f6c6568207065736572746160481b608083015242908201527f7176ae479d15b28ef81160f7cb60a461e03d280ed14952ffe689854e31aede649060a001611431565b6000808261169f5760405162461bcd60e51b815260206004820152601660248201527543494420746964616b20626f6c6568206b6f736f6e6760501b60448201526064016109e3565b600884846040516116b192919061433f565b908152604051908190036020019020546001600160a01b03169050806116dc575060009050806118d3565b6001600160a01b0381811660009081526003602081815260408084208151610140810190925280549586168252939490939291840191600160a01b90910460ff169081111561172d5761172d613974565b600381111561173e5761173e613974565b815260200160018201805461175290613fca565b80601f016020809104026020016040519081016040528092919081815260200182805461177e90613fca565b80156117cb5780601f106117a0576101008083540402835291602001916117cb565b820191906000526020600020905b8154815290600101906020018083116117ae57829003601f168201915b5050509183525050600282015460ff8082161515602084015261010090910416151560408201526003820154606082015260048201546080820152600582015460a082015260068201546001600160a01b031660c082015260078201805460e09092019161183890613fca565b80601f016020809104026020016040519081016040528092919081815260200182805461186490613fca565b80156118b15780601f10611886576101008083540402835291602001916118b1565b820191906000526020600020905b81548152906001019060200180831161189457829003601f168201915b5050505050815250509050806060015180156118cf57508060800151155b9250505b9250929050565b6000546001600160a01b031633146119045760405162461bcd60e51b81526004016109e39061422f565b826001600160a01b03811661192b5760405162461bcd60e51b81526004016109e39061405e565b82828080601f01602080910402602001604051908101604052809392919081815260200183838082843760009201829052508451900392506119829150505760405162461bcd60e51b81526004016109e39061408a565b6001600160a01b0385166000908152600b6020526040812090600182015460ff1660028111156119b4576119b4613974565b14611a015760405162461bcd60e51b815260206004820152601f60248201527f4c535020746964616b2064616c616d20737461747573206d656e756e6767750060448201526064016109e3565b60018101805460ff1916600217905560038101611a1f858783614110565b506040805160208101909152600081526002820190611a3e9082614280565b50856001600160a01b03167f6214efe84e589b41714ba0c9ee2bb9bde0eb09b641a218032b5f7ad0e7ee777d8686604051610fc792919061434f565b6001600160a01b03811660009081526002602052604090206001015460609060ff16611ae85760405162461bcd60e51b815260206004820152601760248201527f5065736572746120746964616b2074657264616674617200000000000000000060448201526064016109e3565b6001600160a01b03821660009081526002602052604090208054611b0b90613fca565b80601f0160208091040260200160405190810160405280929190818152602001828054611b3790613fca565b8015610de15780601f10611b5957610100808354040283529160200191610de1565b820191906000526020600020905b815481529060010190602001808311611b675750939695505050505050565b3360009081526002602052604090206001015460ff168015611bbf575033600090815260026020526040902060010154610100900460ff165b611bdb5760405162461bcd60e51b81526004016109e390614253565b33600090815260026020526040902060018101546201000090046001600160a01b031615611c4b5760405162461bcd60e51b815260206004820152601b60248201527f4d617369682061646120736572746966696b61736920616b746966000000000060448201526064016109e3565b60098054906000611c5b83614381565b9091555050600954336000818152600560205260408120805491928492909142919085611c8783614381565b909155506040805160a060208201819052600c60c08301526b534552544946494b4153495f60a01b60e0830152918101959095526001600160a01b0390931660608501526080840191909152908201526101000160408051808303601f1901815282825280516020918201206000868152600a835283902080546001600160a01b0319166001600160a01b03831617905561014084019092523383529092508101856003811115611d3a57611d3a613974565b815260200160405180602001604052806000815250815260200160001515815260200160011515815260200142815260200160008152602001426305a39a80611d83919061439a565b815260006020808301829052604080518083018252838152938101939093526001600160a01b0385811683526003808352939092208451815493166001600160a01b0319841681178255918501519093909284926001600160a81b03199091161790600160a01b908490811115611dfc57611dfc613974565b021790555060408201516001820190611e159082614280565b506060820151600282018054608085015161ffff1990911692151561ff00191692909217610100921515830217905560a0830151600383015560c0830151600483015560e083015160058301558201516006820180546001600160a01b0319166001600160a01b039092169190911790556101208201516007820190611e9b9082614280565b5050506001838101805462010000600160b01b031916620100006001600160a01b03851690810291909117909155600285018054928301815560009081526020902090910180546001600160a01b031916909117905560405133907f3ac6af73e630a22fd1e8f791a2b123684b5551df2f5f617948313d0df595a37290611f27908490889042906143ad565b60405180910390a250505050565b3360009081526001602052604090205460ff16611f645760405162461bcd60e51b81526004016109e39061403b565b826001600160a01b038116611f8b5760405162461bcd60e51b81526004016109e39061405e565b82828080601f0160208091040260200160405190810160405280939291908181526020018383808284376000920182905250845190039250611fe29150505760405162461bcd60e51b81526004016109e39061408a565b6001600160a01b03851660009081526003602052604090206002810154610100900460ff1661204d5760405162461bcd60e51b815260206004820152601760248201527629b2b93a34b334b5b0b9b4903a34b230b59030b5ba34b360491b60448201526064016109e3565b80546001600160a01b03166120745760405162461bcd60e51b81526004016109e390614004565b60028101805460ff191660019081179091558101612093858783614110565b5060028101805461ff00191690554260048201556006810180546001600160a01b0319163317905560405186906008906120d0908890889061433f565b908152604080516020928190038301812080546001600160a01b0319166001600160a01b039586161790558454909316600090815260029092529020600101805462010000600160b01b031916905533907fad88f87555b407755a665f13e36f4952e39e6ee937b6c0adb7896b91d47bb8e390610fc79089908990899042906141f9565b600060095482111580156121685750600082115b6121a55760405162461bcd60e51b815260206004820152600e60248201526d1251081d1a59185ac81d985b1a5960921b60448201526064016109e3565b506000908152600a60205260409020546001600160a01b031690565b6000546001600160a01b031633146121eb5760405162461bcd60e51b81526004016109e39061422f565b826001600160a01b0381166122125760405162461bcd60e51b81526004016109e39061405e565b82828080601f01602080910402602001604051908101604052809392919081815260200183838082843760009201829052508451900392506122699150505760405162461bcd60e51b81526004016109e39061408a565b6001600160a01b0385166000908152600b6020526040812090600182015460ff16600281111561229b5761229b613974565b146122e85760405162461bcd60e51b815260206004820152601f60248201527f4c535020746964616b2064616c616d20737461747573206d656e756e6767750060448201526064016109e3565b6001818101805460ff1916909117905560028101612307858783614110565b5060408051602081019091526000815260038201906123269082614280565b506001600160a01b038616600081815260016020819052604091829020805460ff19169091179055517fa2afc48ad450df786fc5287f1e8dea74f2f5e8252d2aac21bb732fb36e83f94690610fc7908890889061434f565b6001600160a01b038181166000908152600360205260408120549091166123a757506000919050565b6001600160a01b0382811660009081526003602081815260408084208151610140810190925280549586168252939490939291840191600160a01b90910460ff16908111156123f8576123f8613974565b600381111561240957612409613974565b815260200160018201805461241d90613fca565b80601f016020809104026020016040519081016040528092919081815260200182805461244990613fca565b80156124965780601f1061246b57610100808354040283529160200191612496565b820191906000526020600020905b81548152906001019060200180831161247957829003601f168201915b5050509183525050600282015460ff8082161515602084015261010090910416151560408201526003820154606082015260048201546080820152600582015460a082015260068201546001600160a01b031660c082015260078201805460e09092019161250390613fca565b80601f016020809104026020016040519081016040528092919081815260200182805461252f90613fca565b801561257c5780601f106125515761010080835404028352916020019161257c565b820191906000526020600020905b81548152906001019060200180831161255f57829003601f168201915b50505050508152505090508060600151801561259a57508060800151155b9392505050565b3360009081526001602052604090205460ff166125d05760405162461bcd60e51b81526004016109e39061403b565b846001600160a01b0381166125f75760405162461bcd60e51b81526004016109e39061405e565b6001600160a01b0386166000908152600760205260409020546301000000900460ff161561265d5760405162461bcd60e51b8152602060048201526013602482015272139a5b185a481cdd59185a08191a5a5b9c1d5d606a1b60448201526064016109e3565b60648560ff1611158015612675575060648460ff1611155b8015612685575060648360ff1611155b6126c65760405162461bcd60e51b815260206004820152601260248201527104e696c6169206d616b73696d616c203130360741b60448201526064016109e3565b506040805160808101825260ff958616815293851660208086019182529386168583019081526001606087019081526001600160a01b0390981660009081526007865283812096518754935192519951151563010000000263ff000000199a8a1662010000029a909a1663ffff000019938a166101000261ffff1990951691909916179290921716959095179590951790925560039052919020600201805491151560ff1992909216919091179055565b6001600160a01b0381166000908152600b60205260408120600181015481546060939284928392829160ff16906002830190600384019084906127b990613fca565b80601f01602080910402602001604051908101604052809291908181526020018280546127e590613fca565b80156128325780601f1061280757610100808354040283529160200191612832565b820191906000526020600020905b81548152906001019060200180831161281557829003601f168201915b5050505050935081805461284590613fca565b80601f016020809104026020016040519081016040528092919081815260200182805461287190613fca565b80156128be5780601f10612893576101008083540402835291602001916128be565b820191906000526020600020905b8154815290600101906020018083116128a157829003601f168201915b505050505091508080546128d190613fca565b80601f01602080910402602001604051908101604052809291908181526020018280546128fd90613fca565b801561294a5780601f1061291f5761010080835404028352916020019161294a565b820191906000526020600020905b81548152906001019060200180831161292d57829003601f168201915b505050505090509450945094509450509193509193565b3360009081526002602052604090206001015460ff16801561299a575033600090815260026020526040902060010154610100900460ff165b6129b65760405162461bcd60e51b81526004016109e390614253565b81818080601f0160208091040260200160405190810160405280939291908181526020018383808284376000920182905250845190039250612a0d9150505760405162461bcd60e51b81526004016109e39061408a565b336000908152600260205260409020612a27838583614110565b50336001600160a01b03167fbfc8ffd6fbbc13c20f5b640faea3048bcbf648d1ed4ab5a142eb81a4d5c11eca8484604051612a6392919061434f565b60405180910390a2505050565b600b60205260009081526040902080548190612a8b90613fca565b80601f0160208091040260200160405190810160405280929190818152602001828054612ab790613fca565b8015612b045780601f10612ad957610100808354040283529160200191612b04565b820191906000526020600020905b815481529060010190602001808311612ae757829003601f168201915b5050506001840154600285018054949560ff909216949193509150612b2890613fca565b80601f0160208091040260200160405190810160405280929190818152602001828054612b5490613fca565b8015612ba15780601f10612b7657610100808354040283529160200191612ba1565b820191906000526020600020905b815481529060010190602001808311612b8457829003601f168201915b505050505090806003018054612bb690613fca565b80601f0160208091040260200160405190810160405280929190818152602001828054612be290613fca565b8015612c2f5780601f10612c0457610100808354040283529160200191612c2f565b820191906000526020600020905b815481529060010190602001808311612c1257829003601f168201915b5050505050905084565b81818080601f0160208091040260200160405190810160405280939291908181526020018383808284376000920182905250845190039250612c909150505760405162461bcd60e51b81526004016109e39061408a565b336000908152600b602052604081206001015460ff166002811115612cb757612cb7613974565b03612cfa5760405162461bcd60e51b81526020600482015260136024820152722132b63ab6903832b93730b4103230b33a30b960691b60448201526064016109e3565b336000908152600b60205260409020612d14838583614110565b50336001600160a01b03167f888338719acbecc4ba224509d272f9176d7b20628c353787dd9b2a1cdcd33f638484604051612a6392919061434f565b81818080601f0160208091040260200160405190810160405280939291908181526020018383808284376000920182905250845190039250612da79150505760405162461bcd60e51b81526004016109e39061408a565b336000908152600b602052604081206001015460ff166002811115612dce57612dce613974565b14612e325760405162461bcd60e51b815260206004820152602e60248201527f5375646168207065726e6168206461667461722061746175207374617475732060448201526d62756b616e204d656e756e67677560901b60648201526084016109e3565b336000908152600b602052604090208054612e4c90613fca565b159050612e915760405162461bcd60e51b815260206004820152601360248201527229bab230b4103832b93730b4103230b33a30b960691b60448201526064016109e3565b6000546001600160a01b03163303612ef65760405162461bcd60e51b815260206004820152602260248201527f424e535020746964616b2062697361206461667461722073656261676169204c604482015261053560f41b60648201526084016109e3565b604051806080016040528084848080601f016020809104026020016040519081016040528093929190818152602001838380828437600092018290525093855250505060208083018290526040805180830182528381528185015280518083018252838152606090940193909352338252600b90522081518190612f7a9082614280565b50602082015160018083018054909160ff1990911690836002811115612fa257612fa2613974565b021790555060408201516002820190612fbb9082614280565b5060608201516003820190612fd09082614280565b5050336000818152600c602052604090819020805460ff19166001179055519091507f97aeb5fb194ec62c9d9b39612021999b672308ae532baa9acaef2ddc56c95c4f90612a63908690869061434f565b81818080601f01602080910402602001604051908101604052809392919081815260200183838082843760009201829052508451900392506130789150505760405162461bcd60e51b81526004016109e39061408a565b3360009081526002602052604090206001015460ff16156130cd5760405162461bcd60e51b815260206004820152600f60248201526e29bab230b4103a32b93230b33a30b960891b60448201526064016109e3565b6040518060c0016040528084848080601f0160208091040260200160405190810160405280939291908181526020018383808284376000920182905250938552505060016020840181905260408401525060608201819052608090910190604051908082528060200260200182016040528015613154578160200160208202803683370190505b508152426020918201523360009081526002909152604090208151819061317b9082614280565b50602082810151600183018054604086015160608701516001600160a01b0316620100000262010000600160b01b03199115156101000261ff00199515159590951661ffff19909316929092179390931792909216919091179055608083015180516131ed92600285019201906138c8565b5060a09190910151600390910155336000908152600460205260408120805460ff19166001179055600680549161322383614381565b9190505550336001600160a01b03167f5c2d1095c6c47db736747eb0de0af919db06bb86af4c022f4da6cd652fde0ea8848442604051612a63939291906143d8565b6000816132ad5760405162461bcd60e51b815260206004820152601660248201527543494420746964616b20626f6c6568206b6f736f6e6760501b60448201526064016109e3565b600883836040516132bf92919061433f565b908152604051908190036020019020546001600160a01b031690505b92915050565b6001600160a01b038181166000908152600360208181526040808420815161014081019092528054958616825293948594859485948594606094869485948594919291840191600160a01b900460ff169081111561334157613341613974565b600381111561335257613352613974565b815260200160018201805461336690613fca565b80601f016020809104026020016040519081016040528092919081815260200182805461339290613fca565b80156133df5780601f106133b4576101008083540402835291602001916133df565b820191906000526020600020905b8154815290600101906020018083116133c257829003601f168201915b5050509183525050600282015460ff8082161515602084015261010090910416151560408201526003820154606082015260048201546080820152600582015460a082015260068201546001600160a01b031660c082015260078201805460e09092019161344c90613fca565b80601f016020809104026020016040519081016040528092919081815260200182805461347890613fca565b80156134c55780601f1061349a576101008083540402835291602001916134c5565b820191906000526020600020905b8154815290600101906020018083116134a857829003601f168201915b50505091909252505081516001600160a01b031615159a5090915089905061351257505060408051602081019091526000808252975087965086955085945084935091508290508061354a565b6001816060015182608001518360000151846020015185604001518660c0015187610100015198509850985098509850985098509850505b919395975091939597565b6000546001600160a01b0316331461357f5760405162461bcd60e51b81526004016109e39061422f565b6001600160a01b03166000908152600c60205260409020805460ff19169055565b6001600160a01b0381166000908152600c602052604081205460ff166135c95750600019919050565b6001600160a01b0382166000908152600b602052604081206001015460ff16600281111561259a5761259a613974565b6001600160a01b03818116600090815260036020526040902054606091166136335760405162461bcd60e51b81526004016109e390614004565b6001600160a01b03821660009081526003602052604090206001018054611b0b90613fca565b6060600082600381111561366f5761366f613974565b03613693576040518060800160405280604c8152602001614431604c913992915050565b60018260038111156136a7576136a7613974565b036136cb576040518060600160405280603681526020016144b76036913992915050565b60028260038111156136df576136df613974565b03613703576040518060600160405280603a815260200161447d603a913992915050565b6040518060600160405280603481526020016143fd6034913992915050565b919050565b600080600080600060026000876001600160a01b03166001600160a01b031681526020019081526020016000206040518060c001604052908160008201805461376f90613fca565b80601f016020809104026020016040519081016040528092919081815260200182805461379b90613fca565b80156137e85780601f106137bd576101008083540402835291602001916137e8565b820191906000526020600020905b8154815290600101906020018083116137cb57829003601f168201915b5050509183525050600182015460ff808216151560208085019190915261010083049091161515604080850191909152620100009092046001600160a01b03166060840152600284018054835181840281018401909452808452608090940193909183018282801561388357602002820191906000526020600020905b81546001600160a01b03168152600190910190602001808311613865575b505050918352505060039190910154602091820152810151604082015160608301516080909301515191999098506001600160a01b0390921615159650945092505050565b82805482825590600052602060002090810192821561391d579160200282015b8281111561391d57825182546001600160a01b0319166001600160a01b039091161782556020909201916001909101906138e8565b5061392992915061392d565b5090565b5b80821115613929576000815560010161392e565b80356001600160a01b038116811461372257600080fd5b60006020828403121561396b57600080fd5b61259a82613942565b634e487b7160e01b600052602160045260246000fd5b6004811061399a5761399a613974565b9052565b6000815180845260005b818110156139c4576020818501810151868301820152016139a8565b506000602082860101526020601f19601f83011685010191505092915050565b6001600160a01b038b1681526139fd602082018b61398a565b61014060408201526000613a1561014083018b61399e565b8915156060840152881515608084015260a0830188905260c0830187905260e083018690526001600160a01b038516610100840152828103610120840152613a5d818561399e565b9d9c50505050505050505050505050565b60208152613a886020820183516001600160a01b03169052565b60006020830151613a9c604084018261398a565b5060408301516101406060840152613ab861016084018261399e565b90506060840151613acd608085018215159052565b50608084015180151560a08501525060a084015160c084015260c084015160e084015260e0840151610100840152610100840151613b176101208501826001600160a01b03169052565b50610120840151838203601f1901610140850152613b35828261399e565b95945050505050565b60c081526000613b5160c083018961399e565b96151560208301525093151560408501526001600160a01b03929092166060840152608083015260a090910152919050565b602080825282518282018190526000918401906040840190835b81811015613bc45783516001600160a01b0316835260209384019390920191600101613b9d565b509095945050505050565b60008083601f840112613be157600080fd5b50813567ffffffffffffffff811115613bf957600080fd5b6020830191508360208285010111156118d357600080fd5b600080600060408486031215613c2657600080fd5b613c2f84613942565b9250602084013567ffffffffffffffff811115613c4b57600080fd5b613c5786828701613bcf565b9497909650939450505050565b6001600160a01b038a168152613c7d602082018a61398a565b61012060408201526000613c9561012083018a61399e565b8815156060840152871515608084015260a0830187905260c083018690526001600160a01b03851660e0840152828103610100840152613cd5818561399e565b9c9b505050505050505050505050565b60a081526000613cf860a083018861399e565b95151560208301525092151560408401526001600160a01b03919091166060830152608090910152919050565b60008060208385031215613d3857600080fd5b823567ffffffffffffffff811115613d4f57600080fd5b613d5b85828601613bcf565b90969095509350505050565b60208152600061259a602083018461399e565b600060208284031215613d8c57600080fd5b81356004811061259a57600080fd5b600060208284031215613dad57600080fd5b5035919050565b803560ff8116811461372257600080fd5b600080600080600060a08688031215613ddd57600080fd5b613de686613942565b9450613df460208701613db4565b9350613e0260408701613db4565b9250613e1060608701613db4565b915060808601358015158114613e2557600080fd5b809150509295509295909350565b608081526000613e46608083018761399e565b60038610613e5657613e56613974565b8560208401528281036040840152613e6e818661399e565b90508281036060840152613e82818561399e565b979650505050505050565b8815158152871515602082015286151560408201526001600160a01b0386166060820152613ebe608082018661398a565b61010060a08201526000613ed661010083018661399e565b60c0830194909452506001600160a01b039190911660e0909101529695505050505050565b634e487b7160e01b600052604160045260246000fd5b600060208284031215613f2357600080fd5b813567ffffffffffffffff811115613f3a57600080fd5b8201601f81018413613f4b57600080fd5b803567ffffffffffffffff811115613f6557613f65613efb565b604051601f8201601f19908116603f0116810167ffffffffffffffff81118282101715613f9457613f94613efb565b604052818152828201602001861015613fac57600080fd5b81602084016020830137600091810160200191909152949350505050565b600181811c90821680613fde57607f821691505b602082108103613ffe57634e487b7160e01b600052602260045260246000fd5b50919050565b6020808252601b908201527f536572746966696b61736920746964616b20646974656d756b616e0000000000604082015260600190565b602080825260099082015268048616e7961204c53560bc1b604082015260600190565b602080825260129082015271105b185b585d081d1a59185ac81d985b1a5960721b604082015260600190565b60208082526019908201527f537472696e6720746964616b20626f6c6568206b6f736f6e6700000000000000604082015260600190565b601f82111561410b57806000526020600020601f840160051c810160208510156140e85750805b601f840160051c820191505b8181101561410857600081556001016140f4565b50505b505050565b67ffffffffffffffff83111561412857614128613efb565b61413c836141368354613fca565b836140c1565b6000601f84116001811461417057600085156141585750838201355b600019600387901b1c1916600186901b178355614108565b600083815260209020601f19861690835b828110156141a15786850135825560209485019460019092019101614181565b50868210156141be5760001960f88860031b161c19848701351681555b505060018560011b0183555050505050565b81835281816020850137506000828201602090810191909152601f909101601f19169091010190565b6001600160a01b038516815260606020820181905260009061421e90830185876141d0565b905082604083015295945050505050565b6020808252600a9082015269048616e796120424e53560b41b604082015260600190565b6020808252601390820152722430b73cb0903832b9b2b93a309030b5ba34b360691b604082015260600190565b815167ffffffffffffffff81111561429a5761429a613efb565b6142ae816142a88454613fca565b846140c1565b6020601f8211600181146142e257600083156142ca5750848201515b600019600385901b1c1916600184901b178455614108565b600084815260208120601f198516915b8281101561431257878501518255602094850194600190920191016142f2565b50848210156143305786840151600019600387901b60f8161c191681555b50505050600190811b01905550565b8183823760009101908152919050565b6020815260006143636020830184866141d0565b949350505050565b634e487b7160e01b600052601160045260246000fd5b6000600182016143935761439361436b565b5060010190565b808201808211156132db576132db61436b565b6001600160a01b0384168152606081016143ca602083018561398a565b826040830152949350505050565b6040815260006143ec6040830185876141d0565b905082602083015294935050505056fe4f6b75706173692050656e616e6767756e67204a617761622050656e67656e64616c69616e2050656e63656d6172616e204169724f6b75706173692050656e616e6767756e67204a61776162204f7065726173696f6e616c20496e7374616c6173692050656e67656e64616c69616e2050656e63656d6172616e2055646172614f6b75706173692050656e616e6767756e67204a61776162204f7065726173696f6e616c2050656e676f6c6168616e20416972204c696d6261684f6b75706173692050656e616e6767756e67204a617761622050656e67656e64616c69616e2050656e63656d6172616e205564617261a26469706673582212206b5e0ec2d91f1534f071b199dd9308654d34e6889d91eba3648ed2547e7f868064736f6c634300081c0033",
  "linkReferences": {},
  "deployedLinkReferences": {}
}