{
  "_format": "hh-sol-artifact-1",
  "contractName": "MainContract",
  "sourceName": "contracts/MainContract.sol",
  "abi": [
    {
      "inputs": [],
      "stateMutability": "nonpayable",
      "type": "constructor"
    },
    {
      "anonymous": false,
      "inputs": [
        {
          "indexed": true,
          "internalType": "address",
          "name": "lsp",
          "type": "address"
        },
        {
          "indexed": false,
          "internalType": "address",
          "name": "sertifikasiID",
          "type": "address"
        },
        {
          "indexed": false,
          "internalType": "string",
          "name": "sertifikatCID",
          "type": "string"
        },
        {
          "indexed": false,
          "internalType": "uint256",
          "name": "tanggal",
          "type": "uint256"
        }
      ],
      "name": "KelulusanDiupdate",
      "type": "event"
    },
    {
      "anonymous": false,
      "inputs": [
        {
          "indexed": true,
          "internalType": "address",
          "name": "lsp",
          "type": "address"
        }
      ],
      "name": "LSPDihapus",
      "type": "event"
    },
    {
      "anonymous": false,
      "inputs": [
        {
          "indexed": true,
          "internalType": "address",
          "name": "lsp",
          "type": "address"
        },
        {
          "indexed": false,
          "internalType": "string",
          "name": "metadataCID",
          "type": "string"
        }
      ],
      "name": "LSPDitambahkan",
      "type": "event"
    },
    {
      "anonymous": false,
      "inputs": [
        {
          "indexed": true,
          "internalType": "address",
          "name": "lsp",
          "type": "address"
        },
        {
          "indexed": false,
          "internalType": "string",
          "name": "newMetadataCID",
          "type": "string"
        }
      ],
      "name": "LSPMetadataUpdated",
      "type": "event"
    },
    {
      "anonymous": false,
      "inputs": [
        {
          "indexed": true,
          "internalType": "address",
          "name": "peserta",
          "type": "address"
        },
        {
          "indexed": false,
          "internalType": "string",
          "name": "newCID",
          "type": "string"
        }
      ],
      "name": "MetadataDiupdate",
      "type": "event"
    },
    {
      "anonymous": false,
      "inputs": [
        {
          "indexed": true,
          "internalType": "address",
          "name": "peserta",
          "type": "address"
        }
      ],
      "name": "PesertaDinonaktifkan",
      "type": "event"
    },
    {
      "anonymous": false,
      "inputs": [
        {
          "indexed": true,
          "internalType": "address",
          "name": "peserta",
          "type": "address"
        },
        {
          "indexed": false,
          "internalType": "string",
          "name": "metadataCID",
          "type": "string"
        },
        {
          "indexed": false,
          "internalType": "uint256",
          "name": "tanggal",
          "type": "uint256"
        }
      ],
      "name": "PesertaTerdaftar",
      "type": "event"
    },
    {
      "anonymous": false,
      "inputs": [
        {
          "indexed": true,
          "internalType": "address",
          "name": "lsp",
          "type": "address"
        },
        {
          "indexed": false,
          "internalType": "address",
          "name": "sertifikasiID",
          "type": "address"
        },
        {
          "indexed": false,
          "internalType": "string",
          "name": "alasan",
          "type": "string"
        },
        {
          "indexed": false,
          "internalType": "uint256",
          "name": "tanggal",
          "type": "uint256"
        }
      ],
      "name": "SertifikasiBatal",
      "type": "event"
    },
    {
      "anonymous": false,
      "inputs": [
        {
          "indexed": true,
          "internalType": "address",
          "name": "peserta",
          "type": "address"
        },
        {
          "indexed": false,
          "internalType": "address",
          "name": "sertifikasiID",
          "type": "address"
        },
        {
          "indexed": false,
          "internalType": "enum SertifikasiStorage.SkemaSertifikasi",
          "name": "skema",
          "type": "uint8"
        },
        {
          "indexed": false,
          "internalType": "uint256",
          "name": "tanggal",
          "type": "uint256"
        }
      ],
      "name": "SertifikasiDiajukan",
      "type": "event"
    },
    {
      "inputs": [
        {
          "internalType": "enum SertifikasiStorage.SkemaSertifikasi",
          "name": "skema",
          "type": "uint8"
        }
      ],
      "name": "ajukanSertifikasi",
      "outputs": [],
      "stateMutability": "nonpayable",
      "type": "function"
    },
    {
      "inputs": [],
      "name": "batalkanSertifikasi",
      "outputs": [],
      "stateMutability": "nonpayable",
      "type": "function"
    },
    {
      "inputs": [],
      "name": "bnsp",
      "outputs": [
        {
          "internalType": "address",
          "name": "",
          "type": "address"
        }
      ],
      "stateMutability": "view",
      "type": "function"
    },
    {
      "inputs": [
        {
          "internalType": "address",
          "name": "lspAddress",
          "type": "address"
        }
      ],
      "name": "cekStatusLSP",
      "outputs": [
        {
          "internalType": "bool",
          "name": "aktif",
          "type": "bool"
        },
        {
          "internalType": "string",
          "name": "metadata",
          "type": "string"
        }
      ],
      "stateMutability": "view",
      "type": "function"
    },
    {
      "inputs": [
        {
          "internalType": "address",
          "name": "peserta",
          "type": "address"
        }
      ],
      "name": "cekStatusPeserta",
      "outputs": [
        {
          "internalType": "bool",
          "name": "terdaftar",
          "type": "bool"
        },
        {
          "internalType": "bool",
          "name": "aktif",
          "type": "bool"
        },
        {
          "internalType": "bool",
          "name": "adaSertifikasiAktif",
          "type": "bool"
        },
        {
          "internalType": "uint256",
          "name": "totalSertifikasi",
          "type": "uint256"
        }
      ],
      "stateMutability": "view",
      "type": "function"
    },
    {
      "inputs": [
        {
          "internalType": "string",
          "name": "metadataCID",
          "type": "string"
        }
      ],
      "name": "daftarPeserta",
      "outputs": [],
      "stateMutability": "nonpayable",
      "type": "function"
    },
    {
      "inputs": [
        {
          "internalType": "address",
          "name": "sertifikasiID",
          "type": "address"
        }
      ],
      "name": "getDetailSertifikasi",
      "outputs": [
        {
          "components": [
            {
              "internalType": "address",
              "name": "peserta",
              "type": "address"
            },
            {
              "internalType": "enum SertifikasiStorage.SkemaSertifikasi",
              "name": "skema",
              "type": "uint8"
            },
            {
              "internalType": "string",
              "name": "sertifikatCID",
              "type": "string"
            },
            {
              "internalType": "bool",
              "name": "lulus",
              "type": "bool"
            },
            {
              "internalType": "bool",
              "name": "aktif",
              "type": "bool"
            },
            {
              "internalType": "uint256",
              "name": "tanggalPengajuan",
              "type": "uint256"
            },
            {
              "internalType": "uint256",
              "name": "tanggalSelesai",
              "type": "uint256"
            },
            {
              "internalType": "uint256",
              "name": "tanggalExpiry",
              "type": "uint256"
            },
            {
              "internalType": "address",
              "name": "lspPenilai",
              "type": "address"
            },
            {
              "internalType": "string",
              "name": "alasanGagal",
              "type": "string"
            }
          ],
          "internalType": "struct SertifikasiStorage.Sertifikasi",
          "name": "",
          "type": "tuple"
        }
      ],
      "stateMutability": "view",
      "type": "function"
    },
    {
      "inputs": [
        {
          "internalType": "address",
          "name": "peserta",
          "type": "address"
        }
      ],
      "name": "getMetadataCID",
      "outputs": [
        {
          "internalType": "string",
          "name": "",
          "type": "string"
        }
      ],
      "stateMutability": "view",
      "type": "function"
    },
    {
      "inputs": [
        {
          "internalType": "address",
          "name": "lspAddress",
          "type": "address"
        }
      ],
      "name": "getMetadataLSP",
      "outputs": [
        {
          "internalType": "string",
          "name": "",
          "type": "string"
        }
      ],
      "stateMutability": "view",
      "type": "function"
    },
    {
      "inputs": [
        {
          "internalType": "address",
          "name": "peserta",
          "type": "address"
        }
      ],
      "name": "getPesertaInfo",
      "outputs": [
        {
          "internalType": "string",
          "name": "metadataCID",
          "type": "string"
        },
        {
          "internalType": "bool",
          "name": "terdaftar",
          "type": "bool"
        },
        {
          "internalType": "bool",
          "name": "aktif",
          "type": "bool"
        },
        {
          "internalType": "address",
          "name": "sertifikasiAktif",
          "type": "address"
        },
        {
          "internalType": "uint256",
          "name": "tanggalDaftar",
          "type": "uint256"
        },
        {
          "internalType": "uint256",
          "name": "totalSertifikasi",
          "type": "uint256"
        }
      ],
      "stateMutability": "view",
      "type": "function"
    },
    {
      "inputs": [
        {
          "internalType": "address",
          "name": "peserta",
          "type": "address"
        }
      ],
      "name": "getPesertaMetadata",
      "outputs": [
        {
          "internalType": "string",
          "name": "cid",
          "type": "string"
        }
      ],
      "stateMutability": "view",
      "type": "function"
    },
    {
      "inputs": [
        {
          "internalType": "address",
          "name": "sertifikasiID",
          "type": "address"
        }
      ],
      "name": "getSertifikasi",
      "outputs": [
        {
          "components": [
            {
              "internalType": "address",
              "name": "peserta",
              "type": "address"
            },
            {
              "internalType": "enum SertifikasiStorage.SkemaSertifikasi",
              "name": "skema",
              "type": "uint8"
            },
            {
              "internalType": "string",
              "name": "sertifikatCID",
              "type": "string"
            },
            {
              "internalType": "bool",
              "name": "lulus",
              "type": "bool"
            },
            {
              "internalType": "bool",
              "name": "aktif",
              "type": "bool"
            },
            {
              "internalType": "uint256",
              "name": "tanggalPengajuan",
              "type": "uint256"
            },
            {
              "internalType": "uint256",
              "name": "tanggalSelesai",
              "type": "uint256"
            },
            {
              "internalType": "uint256",
              "name": "tanggalExpiry",
              "type": "uint256"
            },
            {
              "internalType": "address",
              "name": "lspPenilai",
              "type": "address"
            },
            {
              "internalType": "string",
              "name": "alasanGagal",
              "type": "string"
            }
          ],
          "internalType": "struct SertifikasiStorage.Sertifikasi",
          "name": "",
          "type": "tuple"
        }
      ],
      "stateMutability": "view",
      "type": "function"
    },
    {
      "inputs": [
        {
          "internalType": "uint256",
          "name": "id",
          "type": "uint256"
        }
      ],
      "name": "getSertifikasiAddressById",
      "outputs": [
        {
          "internalType": "address",
          "name": "",
          "type": "address"
        }
      ],
      "stateMutability": "view",
      "type": "function"
    },
    {
      "inputs": [
        {
          "internalType": "address",
          "name": "sertifikasiID",
          "type": "address"
        }
      ],
      "name": "getSertifikasiDetail",
      "outputs": [
        {
          "internalType": "address",
          "name": "peserta",
          "type": "address"
        },
        {
          "internalType": "enum SertifikasiStorage.SkemaSertifikasi",
          "name": "skema",
          "type": "uint8"
        },
        {
          "internalType": "string",
          "name": "sertifikatCID",
          "type": "string"
        },
        {
          "internalType": "bool",
          "name": "lulus",
          "type": "bool"
        },
        {
          "internalType": "bool",
          "name": "aktif",
          "type": "bool"
        },
        {
          "internalType": "uint256",
          "name": "tanggalPengajuan",
          "type": "uint256"
        },
        {
          "internalType": "uint256",
          "name": "tanggalSelesai",
          "type": "uint256"
        },
        {
          "internalType": "address",
          "name": "lspPenilai",
          "type": "address"
        },
        {
          "internalType": "string",
          "name": "alasanGagal",
          "type": "string"
        }
      ],
      "stateMutability": "view",
      "type": "function"
    },
    {
      "inputs": [
        {
          "internalType": "address",
          "name": "sertifikasiID",
          "type": "address"
        }
      ],
      "name": "getSertifikatCID",
      "outputs": [
        {
          "internalType": "string",
          "name": "cid",
          "type": "string"
        }
      ],
      "stateMutability": "view",
      "type": "function"
    },
    {
      "inputs": [
        {
          "internalType": "enum SertifikasiStorage.SkemaSertifikasi",
          "name": "skema",
          "type": "uint8"
        }
      ],
      "name": "getSkemaNama",
      "outputs": [
        {
          "internalType": "string",
          "name": "",
          "type": "string"
        }
      ],
      "stateMutability": "pure",
      "type": "function"
    },
    {
      "inputs": [],
      "name": "getTotalSertifikasi",
      "outputs": [
        {
          "internalType": "uint256",
          "name": "",
          "type": "uint256"
        }
      ],
      "stateMutability": "view",
      "type": "function"
    },
    {
      "inputs": [
        {
          "internalType": "address",
          "name": "lspAddress",
          "type": "address"
        }
      ],
      "name": "hapusLSP",
      "outputs": [],
      "stateMutability": "nonpayable",
      "type": "function"
    },
    {
      "inputs": [
        {
          "internalType": "address",
          "name": "",
          "type": "address"
        }
      ],
      "name": "isLSP",
      "outputs": [
        {
          "internalType": "bool",
          "name": "",
          "type": "bool"
        }
      ],
      "stateMutability": "view",
      "type": "function"
    },
    {
      "inputs": [
        {
          "internalType": "address",
          "name": "",
          "type": "address"
        }
      ],
      "name": "isPesertaTerdaftar",
      "outputs": [
        {
          "internalType": "bool",
          "name": "",
          "type": "bool"
        }
      ],
      "stateMutability": "view",
      "type": "function"
    },
    {
      "inputs": [
        {
          "internalType": "address",
          "name": "peserta",
          "type": "address"
        }
      ],
      "name": "lihatRiwayatSertifikasi",
      "outputs": [
        {
          "internalType": "address[]",
          "name": "",
          "type": "address[]"
        }
      ],
      "stateMutability": "view",
      "type": "function"
    },
    {
      "inputs": [
        {
          "internalType": "address",
          "name": "",
          "type": "address"
        }
      ],
      "name": "lspMetadata",
      "outputs": [
        {
          "internalType": "string",
          "name": "",
          "type": "string"
        }
      ],
      "stateMutability": "view",
      "type": "function"
    },
    {
      "inputs": [
        {
          "internalType": "address",
          "name": "peserta",
          "type": "address"
        }
      ],
      "name": "nonaktifkanPeserta",
      "outputs": [],
      "stateMutability": "nonpayable",
      "type": "function"
    },
    {
      "inputs": [],
      "name": "pesertaCount",
      "outputs": [
        {
          "internalType": "uint256",
          "name": "",
          "type": "uint256"
        }
      ],
      "stateMutability": "view",
      "type": "function"
    },
    {
      "inputs": [
        {
          "internalType": "address",
          "name": "",
          "type": "address"
        }
      ],
      "name": "pesertaList",
      "outputs": [
        {
          "internalType": "string",
          "name": "metadataCID",
          "type": "string"
        },
        {
          "internalType": "bool",
          "name": "terdaftar",
          "type": "bool"
        },
        {
          "internalType": "bool",
          "name": "aktif",
          "type": "bool"
        },
        {
          "internalType": "address",
          "name": "sertifikasiAktif",
          "type": "address"
        },
        {
          "internalType": "uint256",
          "name": "tanggalDaftar",
          "type": "uint256"
        }
      ],
      "stateMutability": "view",
      "type": "function"
    },
    {
      "inputs": [
        {
          "internalType": "uint256",
          "name": "",
          "type": "uint256"
        }
      ],
      "name": "sertifikasiById",
      "outputs": [
        {
          "internalType": "address",
          "name": "",
          "type": "address"
        }
      ],
      "stateMutability": "view",
      "type": "function"
    },
    {
      "inputs": [
        {
          "internalType": "address",
          "name": "",
          "type": "address"
        }
      ],
      "name": "sertifikasiList",
      "outputs": [
        {
          "internalType": "address",
          "name": "peserta",
          "type": "address"
        },
        {
          "internalType": "enum SertifikasiStorage.SkemaSertifikasi",
          "name": "skema",
          "type": "uint8"
        },
        {
          "internalType": "string",
          "name": "sertifikatCID",
          "type": "string"
        },
        {
          "internalType": "bool",
          "name": "lulus",
          "type": "bool"
        },
        {
          "internalType": "bool",
          "name": "aktif",
          "type": "bool"
        },
        {
          "internalType": "uint256",
          "name": "tanggalPengajuan",
          "type": "uint256"
        },
        {
          "internalType": "uint256",
          "name": "tanggalSelesai",
          "type": "uint256"
        },
        {
          "internalType": "uint256",
          "name": "tanggalExpiry",
          "type": "uint256"
        },
        {
          "internalType": "address",
          "name": "lspPenilai",
          "type": "address"
        },
        {
          "internalType": "string",
          "name": "alasanGagal",
          "type": "string"
        }
      ],
      "stateMutability": "view",
      "type": "function"
    },
    {
      "inputs": [
        {
          "internalType": "address",
          "name": "lspAddress",
          "type": "address"
        },
        {
          "internalType": "string",
          "name": "metadataCID",
          "type": "string"
        }
      ],
      "name": "tambahLSP",
      "outputs": [],
      "stateMutability": "nonpayable",
      "type": "function"
    },
    {
      "inputs": [
        {
          "internalType": "address[]",
          "name": "lspAddresses",
          "type": "address[]"
        },
        {
          "internalType": "string[]",
          "name": "metadataCIDs",
          "type": "string[]"
        }
      ],
      "name": "tambahMultipleLSP",
      "outputs": [],
      "stateMutability": "nonpayable",
      "type": "function"
    },
    {
      "inputs": [
        {
          "internalType": "address",
          "name": "sertifikasiID",
          "type": "address"
        },
        {
          "internalType": "string",
          "name": "alasan",
          "type": "string"
        }
      ],
      "name": "updateKegagalan",
      "outputs": [],
      "stateMutability": "nonpayable",
      "type": "function"
    },
    {
      "inputs": [
        {
          "internalType": "address",
          "name": "sertifikasiID",
          "type": "address"
        },
        {
          "internalType": "string",
          "name": "sertifikatCID",
          "type": "string"
        }
      ],
      "name": "updateKelulusan",
      "outputs": [],
      "stateMutability": "nonpayable",
      "type": "function"
    },
    {
      "inputs": [
        {
          "internalType": "string",
          "name": "newCID",
          "type": "string"
        }
      ],
      "name": "updateMetadata",
      "outputs": [],
      "stateMutability": "nonpayable",
      "type": "function"
    },
    {
      "inputs": [
        {
          "internalType": "string",
          "name": "newMetadataCID",
          "type": "string"
        }
      ],
      "name": "updateMetadataLSP",
      "outputs": [],
      "stateMutability": "nonpayable",
      "type": "function"
    },
    {
      "inputs": [
        {
          "internalType": "address",
          "name": "sertifikasiID",
          "type": "address"
        }
      ],
      "name": "verifikasiKelulusan",
      "outputs": [
        {
          "internalType": "bool",
          "name": "valid",
          "type": "bool"
        }
      ],
      "stateMutability": "view",
      "type": "function"
    },
    {
      "inputs": [
        {
          "internalType": "address",
          "name": "sertifikasiID",
          "type": "address"
        }
      ],
      "name": "verifikasiSertifikasiLengkap",
      "outputs": [
        {
          "internalType": "bool",
          "name": "exists",
          "type": "bool"
        },
        {
          "internalType": "bool",
          "name": "lulus",
          "type": "bool"
        },
        {
          "internalType": "bool",
          "name": "aktif",
          "type": "bool"
        },
        {
          "internalType": "address",
          "name": "peserta",
          "type": "address"
        },
        {
          "internalType": "enum SertifikasiStorage.SkemaSertifikasi",
          "name": "skema",
          "type": "uint8"
        },
        {
          "internalType": "string",
          "name": "sertifikatCID",
          "type": "string"
        },
        {
          "internalType": "uint256",
          "name": "tanggalSelesai",
          "type": "uint256"
        },
        {
          "internalType": "address",
          "name": "lspPenilai",
          "type": "address"
        }
      ],
      "stateMutability": "view",
      "type": "function"
    }
  ],
  "bytecode": "0x6080604052348015600f57600080fd5b50600080546001600160a01b03191633179055613b60806100316000396000f3fe608060405234801561001057600080fd5b50600436106102105760003560e01c80635eba0d4911610125578063afaf49ea116100ad578063d75f27ac1161007c578063d75f27ac14610522578063e216eaeb14610535578063e8acac9914610548578063f2416e3e1461055b578063f81ce2d21461056357600080fd5b8063afaf49ea146104bf578063c73c6005146103d1578063cb5fb9a0146104d2578063d39cd69e146104f957600080fd5b806386425cb3116100f457806386425cb3146104735780638f2bc38f14610486578063918b5be1146104995780639e2ed884146104ac578063a3d9914f1461024757600080fd5b80635eba0d49146104275780636df8a5a61461043a5780636e75758e1461044d5780637433efb41461046057600080fd5b8063282ef021116101a85780635ac78a30116101775780635ac78a30146103855780635cf6de2b146103a65780635dc49397146103d15780635e58b527146103f15780635eb5e4e71461041457600080fd5b8063282ef02114610324578063333eb2d91461032c5780634021e5cf1461033f578063571ad3b21461037257600080fd5b806314851c8a116101e457806314851c8a146102a357806316467b60146102c357806316c89ca0146102d857806316efcaac1461030057600080fd5b8062ee260b146102155780630b5a9a7e146102475780630e0473e5146102675780631017604f1461027e575b600080fd5b610228610223366004612ff0565b61059e565b60405161023e9a99989796959493929190613089565b60405180910390f35b61025a610255366004612ff0565b610722565b60405161023e9190613113565b61027060065481565b60405190815260200161023e565b61029161028c366004612ff0565b610995565b60405161023e969594939291906131e3565b6102b66102b1366004612ff0565b610b3a565b60405161023e9190613228565b6102d66102d13660046132bd565b610bb3565b005b6102eb6102e6366004612ff0565b610d9d565b60405161023e99989796959493929190613310565b61031361030e366004612ff0565b611016565b60405161023e959493929190613391565b6102d66110df565b6102d661033a366004612ff0565b6112fd565b61036261034d366004612ff0565b60046020526000908152604090205460ff1681565b604051901515815260200161023e565b6102d66103803660046132bd565b6114db565b610398610393366004612ff0565b6116be565b60405161023e9291906133d1565b6000546103b9906001600160a01b031681565b6040516001600160a01b03909116815260200161023e565b6103e46103df366004612ff0565b61177f565b60405161023e91906133f4565b6103626103ff366004612ff0565b60016020526000908152604090205460ff1681565b6102d6610422366004613407565b611885565b6103e4610435366004612ff0565b611c34565b6102d66104483660046132bd565b611cce565b6103b961045b366004613428565b611ebd565b61036261046e366004612ff0565b611f2a565b6102d6610481366004613486565b61214d565b6103e4610494366004612ff0565b612416565b6102d66104a73660046134f7565b612496565b6102d66104ba3660046134f7565b6125a5565b6102d66104cd3660046134f7565b612681565b6104e56104e0366004612ff0565b6128c5565b60405161023e989796959493929190613539565b6103b9610507366004613428565b6008602052600090815260409020546001600160a01b031681565b6102d6610530366004612ff0565b612b39565b6103e4610543366004612ff0565b612c53565b6103e4610556366004613407565b612cb3565b600754610270565b610576610571366004612ff0565b612d81565b604080519415158552921515602085015290151591830191909152606082015260800161023e565b600360205260009081526040902080546001820180546001600160a01b03831693600160a01b90930460ff169291906105d6906135a7565b80601f0160208091040260200160405190810160405280929190818152602001828054610602906135a7565b801561064f5780601f106106245761010080835404028352916020019161064f565b820191906000526020600020905b81548152906001019060200180831161063257829003601f168201915b5050505060028301546003840154600485015460058601546006870154600788018054979860ff808816996101009098041697509495939492936001600160a01b03909216929161069f906135a7565b80601f01602080910402602001604051908101604052809291908181526020018280546106cb906135a7565b80156107185780601f106106ed57610100808354040283529160200191610718565b820191906000526020600020905b8154815290600101906020018083116106fb57829003601f168201915b505050505090508a565b604080516101408101825260008082526020820181905260609282018390528282018190526080820181905260a0820181905260c0820181905260e082018190526101008201526101208101919091526001600160a01b03828116600090815260036020526040902054166107b25760405162461bcd60e51b81526004016107a9906135e1565b60405180910390fd5b6001600160a01b038281166000908152600360208181526040928390208351610140810190945280549485168452929390840191600160a01b90910460ff16908111156108015761080161300b565b60038111156108125761081261300b565b8152602001600182018054610826906135a7565b80601f0160208091040260200160405190810160405280929190818152602001828054610852906135a7565b801561089f5780601f106108745761010080835404028352916020019161089f565b820191906000526020600020905b81548152906001019060200180831161088257829003601f168201915b5050509183525050600282015460ff8082161515602084015261010090910416151560408201526003820154606082015260048201546080820152600582015460a082015260068201546001600160a01b031660c082015260078201805460e09092019161090c906135a7565b80601f0160208091040260200160405190810160405280929190818152602001828054610938906135a7565b80156109855780601f1061095a57610100808354040283529160200191610985565b820191906000526020600020905b81548152906001019060200180831161096857829003601f168201915b5050505050815250509050919050565b606060008060008060008060026000896001600160a01b03166001600160a01b031681526020019081526020016000206040518060c00160405290816000820180546109e0906135a7565b80601f0160208091040260200160405190810160405280929190818152602001828054610a0c906135a7565b8015610a595780601f10610a2e57610100808354040283529160200191610a59565b820191906000526020600020905b815481529060010190602001808311610a3c57829003601f168201915b5050509183525050600182015460ff808216151560208085019190915261010083049091161515604080850191909152620100009092046001600160a01b031660608401526002840180548351818402810184019094528084526080909401939091830182828015610af457602002820191906000526020600020905b81546001600160a01b03168152600190910190602001808311610ad6575b5050509183525050600391909101546020918201528151908201516040830151606084015160a085015160809095015151939d929c50909a509850919650945092505050565b6001600160a01b038116600090815260026020818152604092839020909101805483518184028101840190945280845260609392830182828015610ba757602002820191906000526020600020905b81546001600160a01b03168152600190910190602001808311610b89575b50505050509050919050565b3360009081526001602052604090205460ff16610be25760405162461bcd60e51b81526004016107a990613618565b826001600160a01b038116610c095760405162461bcd60e51b81526004016107a99061363b565b82828080601f0160208091040260200160405190810160405280939291908181526020018383808284376000920182905250845190039250610c609150505760405162461bcd60e51b81526004016107a990613667565b6001600160a01b03851660009081526003602052604090206002810154610100900460ff16610ccb5760405162461bcd60e51b815260206004820152601760248201527629b2b93a34b334b5b0b9b4903a34b230b59030b5ba34b360491b60448201526064016107a9565b80546001600160a01b0316610cf25760405162461bcd60e51b81526004016107a9906135e1565b60028101805461ffff191690554260048201556006810180546001600160a01b0319163317905560078101610d28858783613703565b5080546001600160a01b031660009081526002602052604090819020600101805462010000600160b01b03191690555133907f7176ae479d15b28ef81160f7cb60a461e03d280ed14952ffe689854e31aede6490610d8d9089908990899042906137ec565b60405180910390a2505050505050565b6001600160a01b038181166000908152600360205260408120549091829160609183918291829182918291879116610de75760405162461bcd60e51b81526004016107a9906135e1565b6001600160a01b038a811660009081526003602081815260408084208151610140810190925280549586168252939490939291840191600160a01b90910460ff1690811115610e3857610e3861300b565b6003811115610e4957610e4961300b565b8152602001600182018054610e5d906135a7565b80601f0160208091040260200160405190810160405280929190818152602001828054610e89906135a7565b8015610ed65780601f10610eab57610100808354040283529160200191610ed6565b820191906000526020600020905b815481529060010190602001808311610eb957829003601f168201915b5050509183525050600282015460ff8082161515602084015261010090910416151560408201526003820154606082015260048201546080820152600582015460a082015260068201546001600160a01b031660c082015260078201805460e090920191610f43906135a7565b80601f0160208091040260200160405190810160405280929190818152602001828054610f6f906135a7565b8015610fbc5780601f10610f9157610100808354040283529160200191610fbc565b820191906000526020600020905b815481529060010190602001808311610f9f57829003601f168201915b5050505050815250509050806000015181602001518260400151836060015184608001518560a001518660c00151876101000151886101200151995099509950995099509950995099509950509193959799909294969850565b600260205260009081526040902080548190611031906135a7565b80601f016020809104026020016040519081016040528092919081815260200182805461105d906135a7565b80156110aa5780601f1061107f576101008083540402835291602001916110aa565b820191906000526020600020905b81548152906001019060200180831161108d57829003601f168201915b505050506001830154600390930154919260ff8082169361010083049091169250620100009091046001600160a01b03169085565b3360009081526002602052604090206001015460ff168015611118575033600090815260026020526040902060010154610100900460ff165b6111345760405162461bcd60e51b81526004016107a990613822565b336000908152600260205260409020600101546201000090046001600160a01b0316806111a35760405162461bcd60e51b815260206004820152601b60248201527f546964616b2061646120736572746966696b61736920616b746966000000000060448201526064016107a9565b6001600160a01b03811660009081526003602052604090206002810154610100900460ff166112145760405162461bcd60e51b815260206004820152601d60248201527f536572746966696b61736920737564616820746964616b20616b74696600000060448201526064016107a9565b60028101805461ff00191690554260048201556040805180820190915260178152764469626174616c6b616e206f6c6568207065736572746160481b60208201526007820190611264908261384f565b50336000908152600260209081526040808320600101805462010000600160b01b031916905580516001600160a01b03861681526060928101839052601792810192909252764469626174616c6b616e206f6c6568207065736572746160481b60808301524282820152517f7176ae479d15b28ef81160f7cb60a461e03d280ed14952ffe689854e31aede649181900360a00190a25050565b6000546001600160a01b031633146113275760405162461bcd60e51b81526004016107a99061390e565b806001600160a01b03811661134e5760405162461bcd60e51b81526004016107a99061363b565b6001600160a01b03821660009081526002602052604090206001015460ff166113b35760405162461bcd60e51b81526020600482015260176024820152762832b9b2b93a30903a34b230b5903a32b93230b33a30b960491b60448201526064016107a9565b6001600160a01b038216600090815260026020526040902060010154610100900460ff1661141c5760405162461bcd60e51b81526020600482015260166024820152752832b9b2b93a309039bab230b4103737b730b5ba34b360511b60448201526064016107a9565b6001600160a01b038083166000908152600260205260409020600101805461ff0019169081905562010000900416156114a3576001600160a01b038083166000818152600260208181526040808420600101805462010000900490961684526003825283208201805461ff0019169055929091529052805462010000600160b01b03191690555b6040516001600160a01b038316907f8194e6e1f0c13cde85898f77a21e77a9a474e25719e7ddc4b59857d9a5a2a31d90600090a25050565b6000546001600160a01b031633146115055760405162461bcd60e51b81526004016107a99061390e565b826001600160a01b03811661152c5760405162461bcd60e51b81526004016107a99061363b565b82828080601f01602080910402602001604051908101604052809392919081815260200183838082843760009201829052508451900392506115839150505760405162461bcd60e51b81526004016107a990613667565b6001600160a01b03851660009081526001602052604090205460ff16156115e25760405162461bcd60e51b81526020600482015260136024820152722629a81039bab230b4103a32b93230b33a30b960691b60448201526064016107a9565b6000546001600160a01b039081169086160361163b5760405162461bcd60e51b81526020600482015260186024820152770424e535020746964616b2062697361206a616469204c53560441b60448201526064016107a9565b6001600160a01b0385166000908152600160208181526040808420805460ff1916909317909255600990529020611673848683613703565b50846001600160a01b03167fb805885fe4dd8482cc8db6d8ad71cbb6eb1f7a7d765760278d55a92d6fad29f185856040516116af929190613932565b60405180910390a25050505050565b6001600160a01b03811660009081526001602090815260408083205460099092528220805460609260ff16919081906116f6906135a7565b80601f0160208091040260200160405190810160405280929190818152602001828054611722906135a7565b801561176f5780601f106117445761010080835404028352916020019161176f565b820191906000526020600020905b81548152906001019060200180831161175257829003601f168201915b5050505050905091509150915091565b6001600160a01b03811660009081526002602052604090206001015460609060ff166117e75760405162461bcd60e51b81526020600482015260176024820152762832b9b2b93a30903a34b230b5903a32b93230b33a30b960491b60448201526064016107a9565b6001600160a01b0382166000908152600260205260409020805461180a906135a7565b80601f0160208091040260200160405190810160405280929190818152602001828054611836906135a7565b8015610ba75780601f1061185857610100808354040283529160200191610ba7565b820191906000526020600020905b8154815290600101906020018083116118665750939695505050505050565b3360009081526002602052604090206001015460ff1680156118be575033600090815260026020526040902060010154610100900460ff165b6118da5760405162461bcd60e51b81526004016107a990613822565b33600090815260026020526040902060018101546201000090046001600160a01b03161561194a5760405162461bcd60e51b815260206004820152601b60248201527f4d617369682061646120736572746966696b61736920616b746966000000000060448201526064016107a9565b6007805490600061195a8361395c565b90915550506007543360008181526005602052604081208054919284929091429190856119868361395c565b909155506040805160a060208201819052600c60c08301526b534552544946494b4153495f60a01b60e0830152918101959095526001600160a01b0390931660608501526080840191909152908201526101000160408051808303601f19018152828252805160209182012060008681526008835283902080546001600160a01b0319166001600160a01b03831617905561014084019092523383529092508101856003811115611a3957611a3961300b565b815260200160405180602001604052806000815250815260200160001515815260200160011515815260200142815260200160008152602001426305a39a80611a829190613975565b815260006020808301829052604080518083018252838152938101939093526001600160a01b0385811683526003808352939092208451815493166001600160a01b0319841681178255918501519093909284926001600160a81b03199091161790600160a01b908490811115611afb57611afb61300b565b021790555060408201516001820190611b14908261384f565b506060820151600282018054608085015161ffff1990911692151561ff00191692909217610100921515830217905560a0830151600383015560c0830151600483015560e083015160058301558201516006820180546001600160a01b0319166001600160a01b039092169190911790556101208201516007820190611b9a908261384f565b5050506001838101805462010000600160b01b031916620100006001600160a01b03851690810291909117909155600285018054928301815560009081526020902090910180546001600160a01b031916909117905560405133907f3ac6af73e630a22fd1e8f791a2b123684b5551df2f5f617948313d0df595a37290611c269084908890429061398e565b60405180910390a250505050565b60096020526000908152604090208054611c4d906135a7565b80601f0160208091040260200160405190810160405280929190818152602001828054611c79906135a7565b8015611cc65780601f10611c9b57610100808354040283529160200191611cc6565b820191906000526020600020905b815481529060010190602001808311611ca957829003601f168201915b505050505081565b3360009081526001602052604090205460ff16611cfd5760405162461bcd60e51b81526004016107a990613618565b826001600160a01b038116611d245760405162461bcd60e51b81526004016107a99061363b565b82828080601f0160208091040260200160405190810160405280939291908181526020018383808284376000920182905250845190039250611d7b9150505760405162461bcd60e51b81526004016107a990613667565b6001600160a01b03851660009081526003602052604090206002810154610100900460ff16611de65760405162461bcd60e51b815260206004820152601760248201527629b2b93a34b334b5b0b9b4903a34b230b59030b5ba34b360491b60448201526064016107a9565b80546001600160a01b0316611e0d5760405162461bcd60e51b81526004016107a9906135e1565b60028101805460ff191660019081179091558101611e2c858783613703565b506002808201805461ff001916905542600483018190556006830180546001600160a01b0319163390811790915583546001600160a01b03166000908152602093909352604092839020600101805462010000600160b01b031916905591517fad88f87555b407755a665f13e36f4952e39e6ee937b6c0adb7896b91d47bb8e391610d8d918a918a918a91906137ec565b60006007548211158015611ed15750600082115b611f0e5760405162461bcd60e51b815260206004820152600e60248201526d1251081d1a59185ac81d985b1a5960921b60448201526064016107a9565b506000908152600860205260409020546001600160a01b031690565b6001600160a01b03818116600090815260036020526040812054909116611f5357506000919050565b6001600160a01b0382811660009081526003602081815260408084208151610140810190925280549586168252939490939291840191600160a01b90910460ff1690811115611fa457611fa461300b565b6003811115611fb557611fb561300b565b8152602001600182018054611fc9906135a7565b80601f0160208091040260200160405190810160405280929190818152602001828054611ff5906135a7565b80156120425780601f1061201757610100808354040283529160200191612042565b820191906000526020600020905b81548152906001019060200180831161202557829003601f168201915b5050509183525050600282015460ff8082161515602084015261010090910416151560408201526003820154606082015260048201546080820152600582015460a082015260068201546001600160a01b031660c082015260078201805460e0909201916120af906135a7565b80601f01602080910402602001604051908101604052809291908181526020018280546120db906135a7565b80156121285780601f106120fd57610100808354040283529160200191612128565b820191906000526020600020905b81548152906001019060200180831161210b57829003601f168201915b50505050508152505090508060600151801561214657508060800151155b9392505050565b6000546001600160a01b031633146121775760405162461bcd60e51b81526004016107a99061390e565b8281146121be5760405162461bcd60e51b8152602060048201526015602482015274082e4e4c2f240d8cadccee8d040dad2e6dac2e8c6d605b1b60448201526064016107a9565b826121fa5760405162461bcd60e51b815260206004820152600c60248201526b4172726179206b6f736f6e6760a01b60448201526064016107a9565b600080546001600160a01b0316905b8481101561240e576000868683818110612225576122256139b9565b905060200201602081019061223a9190612ff0565b9050366000868685818110612251576122516139b9565b905060200281019061226391906139cf565b90925090506001600160a01b03831661228e5760405162461bcd60e51b81526004016107a99061363b565b846001600160a01b0316836001600160a01b0316036122ea5760405162461bcd60e51b81526020600482015260186024820152770424e535020746964616b2062697361206a616469204c53560441b60448201526064016107a9565b6001600160a01b03831660009081526001602052604090205460ff16156123495760405162461bcd60e51b81526020600482015260136024820152722629a81039bab230b4103a32b93230b33a30b960691b60448201526064016107a9565b60008190036123875760405162461bcd60e51b815260206004820152600a602482015269434944206b6f736f6e6760b01b60448201526064016107a9565b6001600160a01b0383166000908152600160208181526040808420805460ff19169093179092556009905290206123bf828483613703565b50826001600160a01b03167fb805885fe4dd8482cc8db6d8ad71cbb6eb1f7a7d765760278d55a92d6fad29f183836040516123fb929190613932565b60405180910390a2505050600101612209565b505050505050565b6001600160a01b03811660009081526001602052604090205460609060ff166124735760405162461bcd60e51b815260206004820152600f60248201526e2629a8103a34b230b59030b5ba34b360891b60448201526064016107a9565b6001600160a01b0382166000908152600960205260409020805461180a906135a7565b3360009081526002602052604090206001015460ff1680156124cf575033600090815260026020526040902060010154610100900460ff165b6124eb5760405162461bcd60e51b81526004016107a990613822565b81818080601f01602080910402602001604051908101604052809392919081815260200183838082843760009201829052508451900392506125429150505760405162461bcd60e51b81526004016107a990613667565b33600090815260026020526040902061255c838583613703565b50336001600160a01b03167fbfc8ffd6fbbc13c20f5b640faea3048bcbf648d1ed4ab5a142eb81a4d5c11eca8484604051612598929190613932565b60405180910390a2505050565b3360009081526001602052604090205460ff166125d45760405162461bcd60e51b81526004016107a990613618565b81818080601f016020809104026020016040519081016040528093929190818152602001838380828437600092018290525084519003925061262b9150505760405162461bcd60e51b81526004016107a990613667565b336000908152600960205260409020612645838583613703565b50336001600160a01b03167f888338719acbecc4ba224509d272f9176d7b20628c353787dd9b2a1cdcd33f638484604051612598929190613932565b81818080601f01602080910402602001604051908101604052809392919081815260200183838082843760009201829052508451900392506126d89150505760405162461bcd60e51b81526004016107a990613667565b3360009081526002602052604090206001015460ff161561272d5760405162461bcd60e51b815260206004820152600f60248201526e29bab230b4103a32b93230b33a30b960891b60448201526064016107a9565b6040518060c0016040528084848080601f01602080910402602001604051908101604052809392919081815260200183838082843760009201829052509385525050600160208401819052604084015250606082018190526080909101906040519080825280602002602001820160405280156127b4578160200160208202803683370190505b50815242602091820152336000908152600290915260409020815181906127db908261384f565b50602082810151600183018054604086015160608701516001600160a01b0316620100000262010000600160b01b03199115156101000261ff00199515159590951661ffff199093169290921793909317929092169190911790556080830151805161284d9260028501920190612f22565b5060a09190910151600390910155336000908152600460205260408120805460ff1916600117905560068054916128838361395c565b9190505550336001600160a01b03167f5c2d1095c6c47db736747eb0de0af919db06bb86af4c022f4da6cd652fde0ea884844260405161259893929190613a16565b6001600160a01b038181166000908152600360208181526040808420815161014081019092528054958616825293948594859485948594606094869485948594919291840191600160a01b900460ff16908111156129255761292561300b565b60038111156129365761293661300b565b815260200160018201805461294a906135a7565b80601f0160208091040260200160405190810160405280929190818152602001828054612976906135a7565b80156129c35780601f10612998576101008083540402835291602001916129c3565b820191906000526020600020905b8154815290600101906020018083116129a657829003601f168201915b5050509183525050600282015460ff8082161515602084015261010090910416151560408201526003820154606082015260048201546080820152600582015460a082015260068201546001600160a01b031660c082015260078201805460e090920191612a30906135a7565b80601f0160208091040260200160405190810160405280929190818152602001828054612a5c906135a7565b8015612aa95780601f10612a7e57610100808354040283529160200191612aa9565b820191906000526020600020905b815481529060010190602001808311612a8c57829003601f168201915b50505091909252505081516001600160a01b031615159a50909150899050612af6575050604080516020810190915260008082529750879650869550859450849350915082905080612b2e565b6001816060015182608001518360000151846020015185604001518660c0015187610100015198509850985098509850985098509850505b919395975091939597565b6000546001600160a01b03163314612b635760405162461bcd60e51b81526004016107a99061390e565b806001600160a01b038116612b8a5760405162461bcd60e51b81526004016107a99061363b565b6001600160a01b03821660009081526001602052604090205460ff16612be85760405162461bcd60e51b81526020600482015260136024820152722629a8103a34b230b5903234ba32b6bab5b0b760691b60448201526064016107a9565b6001600160a01b0382166000908152600160209081526040808320805460ff1916905560099091528120612c1b91612f87565b6040516001600160a01b038316907f22407bb0836f3851e1efb5a2e6bf1300ae37ab53df7d44caf473010da3fe4f4d90600090a25050565b6001600160a01b0381811660009081526003602052604090205460609116612c8d5760405162461bcd60e51b81526004016107a9906135e1565b6001600160a01b0382166000908152600360205260409020600101805461180a906135a7565b60606000826003811115612cc957612cc961300b565b03612ced576040518060800160405280604c8152602001613a6f604c913992915050565b6001826003811115612d0157612d0161300b565b03612d2557604051806060016040528060368152602001613af56036913992915050565b6002826003811115612d3957612d3961300b565b03612d5d576040518060600160405280603a8152602001613abb603a913992915050565b604051806060016040528060348152602001613a3b6034913992915050565b919050565b600080600080600060026000876001600160a01b03166001600160a01b031681526020019081526020016000206040518060c0016040529081600082018054612dc9906135a7565b80601f0160208091040260200160405190810160405280929190818152602001828054612df5906135a7565b8015612e425780601f10612e1757610100808354040283529160200191612e42565b820191906000526020600020905b815481529060010190602001808311612e2557829003601f168201915b5050509183525050600182015460ff808216151560208085019190915261010083049091161515604080850191909152620100009092046001600160a01b031660608401526002840180548351818402810184019094528084526080909401939091830182828015612edd57602002820191906000526020600020905b81546001600160a01b03168152600190910190602001808311612ebf575b505050918352505060039190910154602091820152810151604082015160608301516080909301515191999098506001600160a01b0390921615159650945092505050565b828054828255906000526020600020908101928215612f77579160200282015b82811115612f7757825182546001600160a01b0319166001600160a01b03909116178255602090920191600190910190612f42565b50612f83929150612fc4565b5090565b508054612f93906135a7565b6000825580601f10612fa3575050565b601f016020900490600052602060002090810190612fc19190612fc4565b50565b5b80821115612f835760008155600101612fc5565b80356001600160a01b0381168114612d7c57600080fd5b60006020828403121561300257600080fd5b61214682612fd9565b634e487b7160e01b600052602160045260246000fd5b6004811061303f57634e487b7160e01b600052602160045260246000fd5b9052565b6000815180845260005b818110156130695760208185018101518683018201520161304d565b506000602082860101526020601f19601f83011685010191505092915050565b6001600160a01b038b1681526130a2602082018b613021565b610140604082015260006130ba61014083018b613043565b8915156060840152881515608084015260a0830188905260c0830187905260e083018690526001600160a01b0385166101008401528281036101208401526131028185613043565b9d9c50505050505050505050505050565b6020815261312d6020820183516001600160a01b03169052565b600060208301516131416040840182613021565b506040830151610140606084015261315d610160840182613043565b90506060840151613172608085018215159052565b50608084015180151560a08501525060a084015160c084015260c084015160e084015260e08401516101008401526101008401516131bc6101208501826001600160a01b03169052565b50610120840151838203601f19016101408501526131da8282613043565b95945050505050565b60c0815260006131f660c0830189613043565b96151560208301525093151560408501526001600160a01b03929092166060840152608083015260a090910152919050565b602080825282518282018190526000918401906040840190835b818110156132695783516001600160a01b0316835260209384019390920191600101613242565b509095945050505050565b60008083601f84011261328657600080fd5b50813567ffffffffffffffff81111561329e57600080fd5b6020830191508360208285010111156132b657600080fd5b9250929050565b6000806000604084860312156132d257600080fd5b6132db84612fd9565b9250602084013567ffffffffffffffff8111156132f757600080fd5b61330386828701613274565b9497909650939450505050565b6001600160a01b038a168152613329602082018a613021565b6101206040820152600061334161012083018a613043565b8815156060840152871515608084015260a0830187905260c083018690526001600160a01b03851660e08401528281036101008401526133818185613043565b9c9b505050505050505050505050565b60a0815260006133a460a0830188613043565b95151560208301525092151560408401526001600160a01b03919091166060830152608090910152919050565b82151581526040602082015260006133ec6040830184613043565b949350505050565b6020815260006121466020830184613043565b60006020828403121561341957600080fd5b81356004811061214657600080fd5b60006020828403121561343a57600080fd5b5035919050565b60008083601f84011261345357600080fd5b50813567ffffffffffffffff81111561346b57600080fd5b6020830191508360208260051b85010111156132b657600080fd5b6000806000806040858703121561349c57600080fd5b843567ffffffffffffffff8111156134b357600080fd5b6134bf87828801613441565b909550935050602085013567ffffffffffffffff8111156134df57600080fd5b6134eb87828801613441565b95989497509550505050565b6000806020838503121561350a57600080fd5b823567ffffffffffffffff81111561352157600080fd5b61352d85828601613274565b90969095509350505050565b8815158152871515602082015286151560408201526001600160a01b038616606082015261356a6080820186613021565b61010060a08201526000613582610100830186613043565b60c0830194909452506001600160a01b039190911660e0909101529695505050505050565b600181811c908216806135bb57607f821691505b6020821081036135db57634e487b7160e01b600052602260045260246000fd5b50919050565b6020808252601b908201527f536572746966696b61736920746964616b20646974656d756b616e0000000000604082015260600190565b602080825260099082015268048616e7961204c53560bc1b604082015260600190565b602080825260129082015271105b185b585d081d1a59185ac81d985b1a5960721b604082015260600190565b60208082526019908201527f537472696e6720746964616b20626f6c6568206b6f736f6e6700000000000000604082015260600190565b634e487b7160e01b600052604160045260246000fd5b601f8211156136fe57806000526020600020601f840160051c810160208510156136db5750805b601f840160051c820191505b818110156136fb57600081556001016136e7565b50505b505050565b67ffffffffffffffff83111561371b5761371b61369e565b61372f8361372983546135a7565b836136b4565b6000601f841160018114613763576000851561374b5750838201355b600019600387901b1c1916600186901b1783556136fb565b600083815260209020601f19861690835b828110156137945786850135825560209485019460019092019101613774565b50868210156137b15760001960f88860031b161c19848701351681555b505060018560011b0183555050505050565b81835281816020850137506000828201602090810191909152601f909101601f19169091010190565b6001600160a01b038516815260606020820181905260009061381190830185876137c3565b905082604083015295945050505050565b6020808252601390820152722430b73cb0903832b9b2b93a309030b5ba34b360691b604082015260600190565b815167ffffffffffffffff8111156138695761386961369e565b61387d8161387784546135a7565b846136b4565b6020601f8211600181146138b157600083156138995750848201515b600019600385901b1c1916600184901b1784556136fb565b600084815260208120601f198516915b828110156138e157878501518255602094850194600190920191016138c1565b50848210156138ff5786840151600019600387901b60f8161c191681555b50505050600190811b01905550565b6020808252600a9082015269048616e796120424e53560b41b604082015260600190565b6020815260006133ec6020830184866137c3565b634e487b7160e01b600052601160045260246000fd5b60006001820161396e5761396e613946565b5060010190565b8082018082111561398857613988613946565b92915050565b6001600160a01b0384168152606081016139ab6020830185613021565b826040830152949350505050565b634e487b7160e01b600052603260045260246000fd5b6000808335601e198436030181126139e657600080fd5b83018035915067ffffffffffffffff821115613a0157600080fd5b6020019150368190038213156132b657600080fd5b604081526000613a2a6040830185876137c3565b905082602083015294935050505056fe4f6b75706173692050656e616e6767756e67204a617761622050656e67656e64616c69616e2050656e63656d6172616e204169724f6b75706173692050656e616e6767756e67204a61776162204f7065726173696f6e616c20496e7374616c6173692050656e67656e64616c69616e2050656e63656d6172616e2055646172614f6b75706173692050656e616e6767756e67204a61776162204f7065726173696f6e616c2050656e676f6c6168616e20416972204c696d6261684f6b75706173692050656e616e6767756e67204a617761622050656e67656e64616c69616e2050656e63656d6172616e205564617261a2646970667358221220d2894a931f87581e3f6d2bbd919c0fba3865dc43966986b2a231b963cd1e022c64736f6c634300081c0033",
  "linkReferences": {},
  "deployedLinkReferences": {}
}